{
  "_format": "hh3-artifact-1",
  "contractName": "AccountManager",
  "sourceName": "contracts/SC1_AccountManager.sol",
  "abi": [
    {
      "anonymous": false,
      "inputs": [
        {
          "indexed": true,
          "internalType": "address",
          "name": "wallet",
          "type": "address"
        },
        {
          "indexed": false,
          "internalType": "string",
          "name": "nom",
          "type": "string"
        },
        {
          "indexed": false,
          "internalType": "uint256",
          "name": "date",
          "type": "uint256"
        }
      ],
      "name": "UniversiteRegistered",
      "type": "event"
    },
    {
      "anonymous": false,
      "inputs": [
        {
          "indexed": true,
          "internalType": "address",
          "name": "wallet",
          "type": "address"
        },
        {
          "indexed": false,
          "internalType": "uint256",
          "name": "date",
          "type": "uint256"
        }
      ],
      "name": "UserDeactivated",
      "type": "event"
    },
    {
      "anonymous": false,
      "inputs": [
        {
          "indexed": true,
          "internalType": "address",
          "name": "wallet",
          "type": "address"
        },
        {
          "indexed": false,
          "internalType": "enum AccountManager.Role",
          "name": "role",
          "type": "uint8"
        },
        {
          "indexed": true,
          "internalType": "address",
          "name": "universite",
          "type": "address"
        },
        {
          "indexed": false,
          "internalType": "uint256",
          "name": "date",
          "type": "uint256"
        }
      ],
      "name": "UserRegistered",
      "type": "event"
    },
    {
      "inputs": [
        {
          "internalType": "address",
          "name": "_wallet",
          "type": "address"
        },
        {
          "internalType": "string",
          "name": "_nom",
          "type": "string"
        },
        {
          "internalType": "string",
          "name": "_prenom",
          "type": "string"
        },
        {
          "internalType": "string",
          "name": "_filiere",
          "type": "string"
        }
      ],
      "name": "addEncadrant",
      "outputs": [],
      "stateMutability": "nonpayable",
      "type": "function"
    },
    {
      "inputs": [
        {
          "internalType": "address",
          "name": "_wallet",
          "type": "address"
        },
        {
          "internalType": "string",
          "name": "_nom",
          "type": "string"
        },
        {
          "internalType": "string",
          "name": "_prenom",
          "type": "string"
        },
        {
          "internalType": "string",
          "name": "_filiere",
          "type": "string"
        }
      ],
      "name": "addStudent",
      "outputs": [],
      "stateMutability": "nonpayable",
      "type": "function"
    },
    {
      "inputs": [
        {
          "internalType": "address",
          "name": "_wallet",
          "type": "address"
        }
      ],
      "name": "deactivateUser",
      "outputs": [],
      "stateMutability": "nonpayable",
      "type": "function"
    },
    {
      "inputs": [],
      "name": "getAllEncadrants",
      "outputs": [
        {
          "internalType": "address[]",
          "name": "",
          "type": "address[]"
        }
      ],
      "stateMutability": "view",
      "type": "function"
    },
    {
      "inputs": [],
      "name": "getAllRH",
      "outputs": [
        {
          "internalType": "address[]",
          "name": "",
          "type": "address[]"
        }
      ],
      "stateMutability": "view",
      "type": "function"
    },
    {
      "inputs": [],
      "name": "getAllStudents",
      "outputs": [
        {
          "internalType": "address[]",
          "name": "",
          "type": "address[]"
        }
      ],
      "stateMutability": "view",
      "type": "function"
    },
    {
      "inputs": [],
      "name": "getAllUniversites",
      "outputs": [
        {
          "internalType": "address[]",
          "name": "",
          "type": "address[]"
        }
      ],
      "stateMutability": "view",
      "type": "function"
    },
    {
      "inputs": [
        {
          "internalType": "address",
          "name": "_uni",
          "type": "address"
        }
      ],
      "name": "getEncadrantsByUniversite",
      "outputs": [
        {
          "internalType": "address[]",
          "name": "",
          "type": "address[]"
        }
      ],
      "stateMutability": "view",
      "type": "function"
    },
    {
      "inputs": [
        {
          "internalType": "address",
          "name": "_wallet",
          "type": "address"
        }
      ],
      "name": "getRole",
      "outputs": [
        {
          "internalType": "enum AccountManager.Role",
          "name": "",
          "type": "uint8"
        }
      ],
      "stateMutability": "view",
      "type": "function"
    },
    {
      "inputs": [
        {
          "internalType": "address",
          "name": "_uni",
          "type": "address"
        }
      ],
      "name": "getStudentsByUniversite",
      "outputs": [
        {
          "internalType": "address[]",
          "name": "",
          "type": "address[]"
        }
      ],
      "stateMutability": "view",
      "type": "function"
    },
    {
      "inputs": [
        {
          "internalType": "address",
          "name": "_wallet",
          "type": "address"
        }
      ],
      "name": "getUniversite",
      "outputs": [
        {
          "components": [
            {
              "internalType": "address",
              "name": "wallet",
              "type": "address"
            },
            {
              "internalType": "string",
              "name": "nom",
              "type": "string"
            },
            {
              "internalType": "string",
              "name": "ville",
              "type": "string"
            },
            {
              "internalType": "bool",
              "name": "isActive",
              "type": "bool"
            },
            {
              "internalType": "uint256",
              "name": "registeredAt",
              "type": "uint256"
            }
          ],
          "internalType": "struct AccountManager.Universite",
          "name": "",
          "type": "tuple"
        }
      ],
      "stateMutability": "view",
      "type": "function"
    },
    {
      "inputs": [
        {
          "internalType": "address",
          "name": "_wallet",
          "type": "address"
        }
      ],
      "name": "getUser",
      "outputs": [
        {
          "components": [
            {
              "internalType": "address",
              "name": "wallet",
              "type": "address"
            },
            {
              "internalType": "enum AccountManager.Role",
              "name": "role",
              "type": "uint8"
            },
            {
              "internalType": "string",
              "name": "nom",
              "type": "string"
            },
            {
              "internalType": "string",
              "name": "prenom",
              "type": "string"
            },
            {
              "internalType": "string",
              "name": "filiere",
              "type": "string"
            },
            {
              "internalType": "string",
              "name": "entreprise",
              "type": "string"
            },
            {
              "internalType": "address",
              "name": "universite",
              "type": "address"
            },
            {
              "internalType": "bool",
              "name": "isActive",
              "type": "bool"
            },
            {
              "internalType": "uint256",
              "name": "registeredAt",
              "type": "uint256"
            }
          ],
          "internalType": "struct AccountManager.User",
          "name": "",
          "type": "tuple"
        }
      ],
      "stateMutability": "view",
      "type": "function"
    },
    {
      "inputs": [
        {
          "internalType": "address",
          "name": "_wallet",
          "type": "address"
        },
        {
          "internalType": "enum AccountManager.Role",
          "name": "_role",
          "type": "uint8"
        }
      ],
      "name": "isAuthorized",
      "outputs": [
        {
          "internalType": "bool",
          "name": "",
          "type": "bool"
        }
      ],
      "stateMutability": "view",
      "type": "function"
    },
    {
      "inputs": [
        {
          "internalType": "string",
          "name": "_nom",
          "type": "string"
        },
        {
          "internalType": "string",
          "name": "_prenom",
          "type": "string"
        },
        {
          "internalType": "string",
          "name": "_entreprise",
          "type": "string"
        }
      ],
      "name": "registerRH",
      "outputs": [],
      "stateMutability": "nonpayable",
      "type": "function"
    },
    {
      "inputs": [
        {
          "internalType": "string",
          "name": "_nom",
          "type": "string"
        },
        {
          "internalType": "string",
          "name": "_ville",
          "type": "string"
        }
      ],
      "name": "registerUniversite",
      "outputs": [],
      "stateMutability": "nonpayable",
      "type": "function"
    }
  ],
  "bytecode": "0x60808060405234601557612cb9908161001a8239f35b5f80fdfe6080806040526004361015610012575f80fd5b5f3560e01c9081630b09f6251461276e575080631a47767b146125c557806328343272146124b957806328d2944c14611e065780634427673314611dc2578063463faeb8146114175780635e8cc2e71461139a5780635f8678061461131d5780636f77926b146110ec5780639174176814610ad4578063cd5149be146109c1578063cf9f499914610353578063dc35a8ed146102c7578063e9e309271461023a5763f1e24b1d146100c1575f80fd5b34610236576020366003190112610236576100da612829565b5f60806040516100e981612940565b8281526060602082015260606040820152826060820152015260018060a01b0316805f52600160205260ff600360405f20015416156101e2575f52600160205260405f2060405161013981612940565b81546001600160a01b0316815261015260018301612bc3565b916020820192835261016660028201612bc3565b604083019081526101cf600460ff60038501541693606086019415158552015491608085019283526101bc6040519687966020885260018060a01b0390511660208801525160a0604088015260c0870190612879565b9051858203601f19016060870152612879565b9151151560808401525160a08301520390f35b60405162461bcd60e51b815260206004820152602660248201527f4163636f756e744d616e616765723a20756e697665727369746520696e74726f604482015265757661626c6560d01b6064820152608490fd5b5f80fd5b34610236575f3660031901126102365760405180602060035491828152019060035f527fc2575a0e9e593c00f959f8c92f12db2869c3395a3b0502d05e2516446f71f85b905f5b8181106102a8576102a4856102988187038261295b565b604051918291826127e7565b0390f35b82546001600160a01b0316845260209093019260019283019201610281565b34610236576040366003190112610236576102e0612829565b602435906005821015610236576001600160a01b03165f908152602081905260409020600581015460a01c60ff169081610322575b6020826040519015158152f35b60ff91505460a01c1690600582101561033f576020911482610315565b634e487b7160e01b5f52602160045260245ffd5b34610236576103613661289d565b91959493929094335f525f60205260ff60405f205460a01c16600581101561033f57600414806109a1575b6103959061297c565b6001600160a01b0316946103aa861515612a9f565b855f525f60205260ff60405f205460a01c16600581101561033f57610417926103d66104089215612aeb565b6103f9604051976103e689612924565b8989526020890197600189523691612b46565b9860408801998a523691612b46565b92606086019384523691612b46565b608084019081526040516020969161042f888361295b565b5f825260a0860191825260c086019333855260e087019360018552610100880196428852895f525f8b5260405f209860018060a01b039060018060a01b03905116166001600160601b0360a01b8a541617895551600581101561033f57885460ff60a01b191660a09190911b60ff60a01b1617885551805160018901916001600160401b0382116106995781908c6104c78554612b8b565b601f8111610950575b50508c908d601f84116001146108ec57505f926108e1575b50508160011b915f199060031b1c19161790555b51805160028801916001600160401b03821161069957819061051e8454612b8b565b601f8111610893575b508b90601f831160011461082e575f92610823575b50508160011b915f199060031b1c19161790555b51805160038701916001600160401b0382116106995781906105728454612b8b565b601f81116107d5575b508a90601f8311600114610772575f92610767575b50508160011b915f199060031b1c19161790555b51805160048601916001600160401b038211610699576105c48354612b8b565b601f8111610724575b508890601f83116001146106b857918060069796949261063996945f926106ad575b50508160011b915f199060031b1c19161790555b9051600586018054925160ff60a01b90151560a01b166001600160a01b039092166001600160a81b031990931692909217179055565b51910155600354600160401b8110156106995780600161065e92016003556003612a0b565b81549060031b9083821b9160018060a01b03901b1916179055604051916001835242908301525f516020612c645f395f51905f5260403393a3005b634e487b7160e01b5f52604160045260245ffd5b015190508b806105ef565b90601f19831691845f528a5f20925f5b8c82821061070e575050926001928592610639989660069b9a9896106106f6575b505050811b019055610603565b01515f1960f88460031b161c191690558b80806106e9565b60018596829396860151815501950193016106c8565b835f52895f20601f840160051c8101918b851061075d575b601f0160051c01905b81811061075257506105cd565b5f8155600101610745565b909150819061073c565b015190508a80610590565b5f8581528c81209350601f198516905b8d8282106107bf5750509084600195949392106107a7575b505050811b0190556105a4565b01515f1960f88460031b161c191690558a808061079a565b6001859682939686015181550195019301610782565b909150835f528a5f20601f840160051c8101918c8510610819575b90601f859493920160051c01905b81811061080b575061057b565b5f81558493506001016107fe565b90915081906107f0565b015190508b8061053c565b5f8581528d81209350601f198516908e5b82821061087b575050908460019594939210610863575b505050811b019055610550565b01515f1960f88460031b161c191690558b8080610856565b8060018697829497870151815501960194019061083f565b909150835f528b5f20601f840160051c8101918d85106108d7575b90601f859493920160051c01905b8181106108c95750610527565b5f81558493506001016108bc565b90915081906108ae565b015190508c806104e8565b5f8681528181209450601f198616915b828210610938575050908460019594939210610920575b505050811b0190556104fc565b01515f1960f88460031b161c191690558c8080610913565b806001869782949787015181550196019401906108fc565b90919250845f52815f2090601f850160051c8201928510610997575b90601f859493920160051c01905b818110610989578e91506104d0565b5f815584935060010161097a565b909150819061096c565b50335f525f60205261039560ff600560405f20015460a01c16905061038c565b34610236576020366003190112610236576109da612829565b6004546001600160a01b03909116905f805b828110610a8357506109fd90612a59565b915f905f5b838110610a1757604051806102a487826127e7565b80610a236001926129f3565b838060a01b0391549060031b1c165f525f60205282828060a01b03600560405f2001541614610a53575b01610a02565b610a5c816129f3565b838060a01b0391549060031b1c16610a7d610a7686612a20565b9588612a8b565b52610a4d565b610a8c816129f3565b90546001600160a01b0360039290921b1c81165f90815260208190526040902060050154168414610ac0575b6001016109ec565b90610acc600191612a20565b919050610ab8565b3461023657610ae23661289d565b91959493929094335f525f60205260ff60405f205460a01c16600581101561033f57600414806110cc575b610b169061297c565b6001600160a01b031694610b2b861515612a9f565b855f525f60205260ff60405f205460a01c16600581101561033f57610b7a92610b576104089215612aeb565b6103f960405197610b6789612924565b8989526020890197600289523691612b46565b6080840190815260405160209691610b92888361295b565b5f825260a0860191825260c086019333855260e087019360018552610100880196428852895f525f8b5260405f209860018060a01b039060018060a01b03905116166001600160601b0360a01b8a541617895551600581101561033f57885460ff60a01b191660a09190911b60ff60a01b1617885551805160018901916001600160401b0382116106995781908c610c2a8554612b8b565b601f811161107b575b50508c908d601f841160011461101757505f9261100c575b50508160011b915f199060031b1c19161790555b51805160028801916001600160401b038211610699578190610c818454612b8b565b601f8111610fbe575b508b90601f8311600114610f59575f92610f4e575b50508160011b915f199060031b1c19161790555b51805160038701916001600160401b038211610699578190610cd58454612b8b565b601f8111610f00575b508a90601f8311600114610e9d575f92610e92575b50508160011b915f199060031b1c19161790555b51805160048601916001600160401b03821161069957610d278354612b8b565b601f8111610e4f575b508890601f8311600114610dfc579180600697969492610d9c96945f926106ad5750505f19600383901b1c191660019190911b1790559051600586018054925160ff60a01b90151560a01b166001600160a01b039092166001600160a81b031990931692909217179055565b51910155600454600160401b81101561069957806001610dc192016004556004612a0b565b81549060031b9083821b9160018060a01b03901b1916179055604051916002835242908301525f516020612c645f395f51905f5260403393a3005b90601f19831691845f528a5f20925f5b8c828210610e39575050926001928592610d9c989660069b9a9896106106f657505050811b019055610603565b6001859682939686015181550195019301610e0c565b835f52895f20601f840160051c8101918b8510610e88575b601f0160051c01905b818110610e7d5750610d30565b5f8155600101610e70565b9091508190610e67565b015190508a80610cf3565b5f8581528c81209350601f198516905b8d828210610eea575050908460019594939210610ed2575b505050811b019055610d07565b01515f1960f88460031b161c191690558a8080610ec5565b6001859682939686015181550195019301610ead565b909150835f528a5f20601f840160051c8101918c8510610f44575b90601f859493920160051c01905b818110610f365750610cde565b5f8155849350600101610f29565b9091508190610f1b565b015190508b80610c9f565b5f8581528d81209350601f198516908e5b828210610fa6575050908460019594939210610f8e575b505050811b019055610cb3565b01515f1960f88460031b161c191690558b8080610f81565b80600186978294978701518155019601940190610f6a565b909150835f528b5f20601f840160051c8101918d8510611002575b90601f859493920160051c01905b818110610ff45750610c8a565b5f8155849350600101610fe7565b9091508190610fd9565b015190508c80610c4b565b5f8681528181209450601f198616915b82821061106357505090846001959493921061104b575b505050811b019055610c5f565b01515f1960f88460031b161c191690558c808061103e565b80600186978294978701518155019601940190611027565b90919250845f52815f2090601f850160051c82019285106110c2575b90601f859493920160051c01905b8181106110b4578e9150610c33565b5f81558493506001016110a5565b9091508190611097565b50335f525f602052610b1660ff600560405f20015460a01c169050610b0d565b3461023657602036600319011261023657611105612829565b5f61010060405161111581612924565b8281528260208201526060604082015260608082015260606080820152606060a08201528260c08201528260e0820152015260018060a01b0316805f525f60205260ff60405f205460a01c16600581101561033f57156112d8575f525f60205260405f2060405161118581612924565b81546001600160a01b038116825260208201929060a01c60ff16600581101561033f5783526111b660018201612bc3565b604083019081526111c960028301612bc3565b606084019081526111dc60038401612bc3565b608085019081526111ef60048501612bc3565b9060a0860191825260058501549260c0870195600160a01b600190038516875260e088019460a01c60ff16151585526006015494610100880195865260405198899860208a52600160a01b6001900390511660208a015251604089016112549161286c565b51606088016101209052610140880161126c91612879565b9051878203601f190160808901526112849190612879565b9051868203601f190160a088015261129c9190612879565b9051858203601f190160c08701526112b49190612879565b92516001600160a01b031660e0850152511515610100840152516101208301520390f35b60405162461bcd60e51b815260206004820152601b60248201527f4163636f756e744d616e616765723a20696e74726f757661626c6500000000006044820152606490fd5b34610236575f3660031901126102365760405180602060025491828152019060025f527f405787fa12a823e0f2b7631cc41b3ba8828b3321ca811111fa75cd3aa3bb5ace905f5b81811061137b576102a4856102988187038261295b565b82546001600160a01b0316845260209093019260019283019201611364565b34610236575f3660031901126102365760405180602060055491828152019060055f527f036b6384b5eca791c62761152d0c79bb0604c104a5fb6f4eb0703f3154bb3db0905f5b8181106113f8576102a4856102988187038261295b565b82546001600160a01b03168452602090930192600192830192016113e1565b34610236576040366003190112610236576004356001600160401b0381116102365761144790369060040161283f565b906024356001600160401b0381116102365761146790369060040161283f565b9290611474331515612a9f565b335f525f60205260ff60405f205460a01c16600581101561033f576114999015612aeb565b8115611d7d576114cc604051916114af83612940565b3383526114bd368587612b46565b95602084019687523691612b46565b60408281019182526001606084018181524260808601908152335f908152602084905293909320945185546001600160a01b0319166001600160a01b0391909116178555965180519397929391850191906001600160401b0382116106995781906115378454612b8b565b601f8111611d2d575b50602090601f8311600114611cca575f92611cbf575b50508160011b915f199060031b1c19161790555b6002830195519586516001600160401b0381116106995761158b8254612b8b565b601f8111611c7a575b506020601f8211600114611c135781906004969798995f92611c08575b50508160011b915f199060031b1c19161790555b600384019051151560ff8019835416911617905551910155604051916115ea83612924565b338352602083019260048452611601368484612b46565b60408281019182525160209591611618878361295b565b5f82526060840191825260405161162f888261295b565b5f81526080850190815260405190611647898361295b565b5f80835260a087019283523360c08801818152600160e08a01908152426101008b01908152928452838d526040909320985189546001600160a01b0319166001600160a01b03919091161789559651909695919490600581101561033f57885460ff60a01b191660a09190911b60ff60a01b1617885551805160018901916001600160401b038211610699578c82916116e08554612b8b565b601f8111611bb0575b5081601f8411600114611b4c57505f92611b41575b50508160011b915f199060031b1c19161790555b51805160028801916001600160401b0382116106995781908c6117358554612b8b565b601f8111611af0575b50508c908d601f8411600114611a8c57505f92611a81575b50508160011b915f199060031b1c19161790555b51805160038701916001600160401b03821161069957819061178c8454612b8b565b601f8111611a33575b508b90601f83116001146119ce575f926119c3575b50508160011b915f199060031b1c19161790555b51805160048601916001600160401b038211610699576117de8354612b8b565b601f8111611980575b508990601f831160011461191557918060069796949261185396945f9261190a5750505f19600383901b1c191660019190911b1790559051600586018054925160ff60a01b90151560a01b166001600160a01b039092166001600160a81b031990931692909217179055565b5191015560025490600160401b8210156106995761189a8260017fd30e4e478f29630b6d2a2414a2739f858e168e57133c244ecb2b6ecb1411c13b94016002556002612a0b565b81549060031b9033821b9160018060a01b03901b191617905582604051916040835281604084015260608301375f6060848301015242848201526060813394601f80199101168101030190a26040519060048252429082015233905f516020612c645f395f51905f5260403392a3005b015190508c806105ef565b90601f19831691845f528b5f20925f5b8d82821061196a575050926001928592611853989660069b9a98961061195257505050811b019055610603565b01515f1960f88460031b161c191690558c80806106e9565b6001859682939686015181550195019301611925565b835f528a5f20601f840160051c8101918c85106119b9575b601f0160051c01905b8181106119ae57506117e7565b5f81556001016119a1565b9091508190611998565b015190508b806117aa565b5f8581528d81209350601f198516908e5b828210611a1b575050908460019594939210611a03575b505050811b0190556117be565b01515f1960f88460031b161c191690558b80806119f6565b806001869782949787015181550196019401906119df565b909150835f528b5f20601f840160051c8101918d8510611a77575b90601f859493920160051c01905b818110611a695750611795565b5f8155849350600101611a5c565b9091508190611a4e565b015190508c80611756565b5f8681528181209450601f198616915b828210611ad8575050908460019594939210611ac0575b505050811b01905561176a565b01515f1960f88460031b161c191690558c8080611ab3565b80600186978294978701518155019601940190611a9c565b90919250845f52815f2090601f850160051c8201928510611b37575b90601f859493920160051c01905b818110611b29578e915061173e565b5f8155849350600101611b1a565b9091508190611b0c565b015190508d806116fe565b5f8681528181209450601f198616915b828210611b98575050908460019594939210611b80575b505050811b019055611712565b01515f1960f88460031b161c191690558d8080611b73565b80600186978294978701518155019601940190611b5c565b909250845f52815f2090601f850160051c8201928510611bfe575b918f9291601f8695930160051c01905b818110611be857506116e9565b90925060019193505f815501918e918493611bdb565b9091508190611bcb565b0151905089806115b1565b601f19821698835f52815f20995f5b818110611c6257509160049798999a91846001959410611c4a575b505050811b0190556115c5565b01515f1960f88460031b161c19169055898080611c3d565b838301518c556001909b019a60209384019301611c22565b825f5260205f20601f830160051c81019160208410611cb5575b601f0160051c01905b818110611caa5750611594565b5f8155600101611c9d565b9091508190611c94565b015190508980611556565b5f8581528281209350601f198516905b818110611d155750908460019594939210611cfd575b505050811b01905561156a565b01515f1960f88460031b161c19169055898080611cf0565b92936020600181928786015181550195019301611cda565b909150835f5260205f20601f840160051c81019160208510611d73575b90601f859493920160051c01905b818110611d655750611540565b5f8155849350600101611d58565b9091508190611d4a565b60405162461bcd60e51b815260206004820152601a60248201527f4163636f756e744d616e616765723a206e6f6d207265717569730000000000006044820152606490fd5b34610236576020366003190112610236576001600160a01b03611de3612829565b165f525f602052602060ff60405f205460a01c16611e04604051809261286c565bf35b34610236576060366003190112610236576004356001600160401b03811161023657611e3690369060040161283f565b906024356001600160401b03811161023657611e5690369060040161283f565b6044939193356001600160401b03811161023657611e7890369060040161283f565b919094611e86331515612a9f565b335f525f60205260ff60405f205460a01c16600581101561033f57611eab9015612aeb565b821561246957611ee790611ed860405196611ec588612924565b3388526020880196600388523691612b46565b92604087019384523691612b46565b9160608501928352611f1460209660405192611f03898561295b565b5f8452608088019384523691612b46565b9060a0860191825260c08601935f855260e087019360018552610100880196428852335f525f8a5260405f209860018060a01b039060018060a01b03905116166001600160601b0360a01b8a541617895551600581101561033f57885460ff60a01b191660a09190911b60ff60a01b1617885551805160018901916001600160401b038211610699578190611fa98454612b8b565b601f811161241b575b508b90601f83116001146123b6575f926123ab575b50508160011b915f199060031b1c19161790555b51805160028801916001600160401b038211610699578190611ffd8454612b8b565b601f811161235d575b508a90601f83116001146122fa575f926122ef575b50508160011b915f199060031b1c19161790555b51805160038701916001600160401b0382116106995781906120518454612b8b565b601f81116122a1575b508990601f831160011461223e575f92612233575b50508160011b915f199060031b1c19161790555b51805160048601916001600160401b038211610699576120a38354612b8b565b601f81116121f0575b508790601f831160011461218557918060069796949261211896945f9261217a5750505f19600383901b1c191660019190911b1790559051600586018054925160ff60a01b90151560a01b166001600160a01b039092166001600160a81b031990931692909217179055565b5191015560055490600160401b8210156106995761213f8260015f94016005556005612a0b565b81549060031b9033821b9160018060a01b03901b1916179055604051906003825242908201525f516020612c645f395f51905f5260403392a3005b015190508a806105ef565b90601f19831691845f52895f20925f5b8b8282106121da575050926001928592612118989660069b9a9896106121c257505050811b019055610603565b01515f1960f88460031b161c191690558a80806106e9565b6001859682939686015181550195019301612195565b835f52885f20601f840160051c8101918a8510612229575b601f0160051c01905b81811061221e57506120ac565b5f8155600101612211565b9091508190612208565b01519050898061206f565b5f8581528b81209350601f198516905b8c82821061228b575050908460019594939210612273575b505050811b019055612083565b01515f1960f88460031b161c19169055898080612266565b600185968293968601518155019501930161224e565b909150835f52895f20601f840160051c8101918b85106122e5575b90601f859493920160051c01905b8181106122d7575061205a565b5f81558493506001016122ca565b90915081906122bc565b015190508a8061201b565b5f8581528c81209350601f198516905b8d82821061234757505090846001959493921061232f575b505050811b01905561202f565b01515f1960f88460031b161c191690558a8080612322565b600185968293968601518155019501930161230a565b909150835f528a5f20601f840160051c8101918c85106123a1575b90601f859493920160051c01905b8181106123935750612006565b5f8155849350600101612386565b9091508190612378565b015190508b80611fc7565b5f8581528d81209350601f198516908e5b8282106124035750509084600195949392106123eb575b505050811b019055611fdb565b01515f1960f88460031b161c191690558b80806123de565b806001869782949787015181550196019401906123c7565b909150835f528b5f20601f840160051c8101918d851061245f575b90601f859493920160051c01905b8181106124515750611fb2565b5f8155849350600101612444565b9091508190612436565b60405162461bcd60e51b815260206004820152602260248201527f4163636f756e744d616e616765723a20656e7472657072697365207265717569604482015261736560f01b6064820152608490fd5b34610236576020366003190112610236576124d2612829565b6003546001600160a01b03909116905f805b82811061257457506124f590612a59565b915f905f5b83811061250f57604051806102a487826127e7565b8061251b6001926129c7565b838060a01b0391549060031b1c165f525f60205282828060a01b03600560405f200154161461254b575b016124fa565b612554816129c7565b838060a01b0391549060031b1c1661256e610a7686612a20565b52612545565b61257d816129c7565b90546001600160a01b0360039290921b1c81165f908152602081905260409020600501541684146125b1575b6001016124e4565b906125bd600191612a20565b9190506125a9565b34610236576020366003190112610236576125de612829565b335f525f60205260ff60405f205460a01c16600581101561033f576004148061274e575b61260b9061297c565b6001600160a01b03165f8181526020819052604090205460a01c60ff16600581101561033f57156126fa57805f525f6020523360018060a01b03600560405f200154160361269857805f525f602052600560405f200160ff60a01b1981541690557f0a3c4dd3ee5277d6eada470cf9b47a480953120ecafcbbdc14bde6f8a62489306020604051428152a2005b60405162461bcd60e51b815260206004820152603460248201527f4163636f756e744d616e616765723a207574696c6973617465757220686f727360448201527320646520766f74726520756e697665727369746560601b6064820152608490fd5b60405162461bcd60e51b815260206004820152602660248201527f4163636f756e744d616e616765723a207574696c6973617465757220696e65786044820152651a5cdd185b9d60d21b6064820152608490fd5b50335f525f60205261260b60ff600560405f20015460a01c169050612602565b34610236575f36600319011261023657600454808252602082019060045f527f8a35acfbc15ff81a39ae7d344fd709f28e8600b4aa8c65c6b64bfe7fe36bd19b905f5b8181106127c8576102a4856102988187038261295b565b82546001600160a01b03168452602090930192600192830192016127b1565b60206040818301928281528451809452019201905f5b81811061280a5750505090565b82516001600160a01b03168452602093840193909201916001016127fd565b600435906001600160a01b038216820361023657565b9181601f84011215610236578235916001600160401b038311610236576020838186019501011161023657565b90600582101561033f5752565b805180835260209291819084018484015e5f828201840152601f01601f1916010190565b906080600319830112610236576004356001600160a01b038116810361023657916024356001600160401b03811161023657816128dc9160040161283f565b929092916044356001600160401b03811161023657816128fe9160040161283f565b92909291606435906001600160401b038211610236576129209160040161283f565b9091565b61012081019081106001600160401b0382111761069957604052565b60a081019081106001600160401b0382111761069957604052565b90601f801991011681019081106001600160401b0382111761069957604052565b1561298357565b606460405162461bcd60e51b815260206004820152602060248201527f4163636f756e744d616e616765723a2061646d696e20756e697175656d656e746044820152fd5b6003548110156129df5760035f5260205f2001905f90565b634e487b7160e01b5f52603260045260245ffd5b6004548110156129df5760045f5260205f2001905f90565b80548210156129df575f5260205f2001905f90565b5f198114612a2e5760010190565b634e487b7160e01b5f52601160045260245ffd5b6001600160401b0381116106995760051b60200190565b90612a6382612a42565b612a70604051918261295b565b8281528092612a81601f1991612a42565b0190602036910137565b80518210156129df5760209160051b010190565b15612aa657565b60405162461bcd60e51b815260206004820152601f60248201527f4163636f756e744d616e616765723a2077616c6c657420696e76616c696465006044820152606490fd5b15612af257565b60405162461bcd60e51b815260206004820152602660248201527f4163636f756e744d616e616765723a2077616c6c65742064656a6120656e726560448201526567697374726560d01b6064820152608490fd5b9291926001600160401b0382116106995760405191612b6f601f8201601f19166020018461295b565b829481845281830111610236578281602093845f960137010152565b90600182811c92168015612bb9575b6020831014612ba557565b634e487b7160e01b5f52602260045260245ffd5b91607f1691612b9a565b9060405191825f825492612bd684612b8b565b8084529360018116908115612c415750600114612bfd575b50612bfb9250038361295b565b565b90505f9291925260205f20905f915b818310612c25575050906020612bfb928201015f612bee565b6020919350806001915483858901015201910190918492612c0c565b905060209250612bfb94915060ff191682840152151560051b8201015f612bee56fed95e9ded6fca5a94a6923cbd8cea2c5bae0d97478bb9b5de613a46b5064d8d80a26469706673582212206a99bf5f54f7527478da782aab6fb3e9a0fa2a36c3ee25df6a7a0d0a3713bcfa64736f6c634300081c0033",
  "linkReferences": {},
  "deployedLinkReferences": {},
  "immutableReferences": {},
  "inputSourceName": "project/contracts/SC1_AccountManager.sol",
  "buildInfoId": "solc-0_8_28-b46f0e05dff82e20e848cee071e572db398628b1"
}