{
  "_format": "hh3-artifact-1",
  "contractName": "CandidatureManager",
  "sourceName": "contracts/SC3_CandidatureManager.sol",
  "abi": [
    {
      "inputs": [
        {
          "internalType": "address",
          "name": "_userManager",
          "type": "address"
        },
        {
          "internalType": "address",
          "name": "_offreManager",
          "type": "address"
        }
      ],
      "stateMutability": "nonpayable",
      "type": "constructor"
    },
    {
      "anonymous": false,
      "inputs": [
        {
          "indexed": true,
          "internalType": "address",
          "name": "etudiant",
          "type": "address"
        },
        {
          "indexed": true,
          "internalType": "uint256",
          "name": "offreId",
          "type": "uint256"
        },
        {
          "indexed": false,
          "internalType": "string",
          "name": "message",
          "type": "string"
        }
      ],
      "name": "AdminAlerte",
      "type": "event"
    },
    {
      "anonymous": false,
      "inputs": [
        {
          "indexed": true,
          "internalType": "address",
          "name": "etudiant",
          "type": "address"
        },
        {
          "indexed": true,
          "internalType": "uint256",
          "name": "offreId",
          "type": "uint256"
        },
        {
          "indexed": false,
          "internalType": "uint256",
          "name": "date",
          "type": "uint256"
        }
      ],
      "name": "CandidatureAccepted",
      "type": "event"
    },
    {
      "anonymous": false,
      "inputs": [
        {
          "indexed": true,
          "internalType": "address",
          "name": "etudiant",
          "type": "address"
        },
        {
          "indexed": true,
          "internalType": "uint256",
          "name": "offreId",
          "type": "uint256"
        },
        {
          "indexed": false,
          "internalType": "uint256",
          "name": "date",
          "type": "uint256"
        }
      ],
      "name": "CandidatureRefused",
      "type": "event"
    },
    {
      "anonymous": false,
      "inputs": [
        {
          "indexed": true,
          "internalType": "uint256",
          "name": "candidatureId",
          "type": "uint256"
        },
        {
          "indexed": true,
          "internalType": "address",
          "name": "etudiant",
          "type": "address"
        },
        {
          "indexed": true,
          "internalType": "uint256",
          "name": "offreId",
          "type": "uint256"
        },
        {
          "indexed": false,
          "internalType": "uint256",
          "name": "date",
          "type": "uint256"
        }
      ],
      "name": "CandidatureSoumise",
      "type": "event"
    },
    {
      "inputs": [
        {
          "internalType": "uint256",
          "name": "_candidatureId",
          "type": "uint256"
        }
      ],
      "name": "accepter",
      "outputs": [],
      "stateMutability": "nonpayable",
      "type": "function"
    },
    {
      "inputs": [],
      "name": "admin",
      "outputs": [
        {
          "internalType": "address",
          "name": "",
          "type": "address"
        }
      ],
      "stateMutability": "view",
      "type": "function"
    },
    {
      "inputs": [
        {
          "internalType": "uint256",
          "name": "_id",
          "type": "uint256"
        }
      ],
      "name": "getCandidature",
      "outputs": [
        {
          "components": [
            {
              "internalType": "uint256",
              "name": "id",
              "type": "uint256"
            },
            {
              "internalType": "address",
              "name": "etudiantWallet",
              "type": "address"
            },
            {
              "internalType": "uint256",
              "name": "offreId",
              "type": "uint256"
            },
            {
              "internalType": "uint16",
              "name": "scoreMatching",
              "type": "uint16"
            },
            {
              "internalType": "enum CandidatureManager.Statut",
              "name": "statut",
              "type": "uint8"
            },
            {
              "internalType": "uint256",
              "name": "soumiseAt",
              "type": "uint256"
            },
            {
              "internalType": "uint256",
              "name": "traiteeAt",
              "type": "uint256"
            }
          ],
          "internalType": "struct CandidatureManager.Candidature",
          "name": "",
          "type": "tuple"
        }
      ],
      "stateMutability": "view",
      "type": "function"
    },
    {
      "inputs": [
        {
          "internalType": "address",
          "name": "_etudiant",
          "type": "address"
        },
        {
          "internalType": "uint256",
          "name": "_offreId",
          "type": "uint256"
        }
      ],
      "name": "getCandidatureAcceptee",
      "outputs": [
        {
          "internalType": "uint256",
          "name": "",
          "type": "uint256"
        }
      ],
      "stateMutability": "view",
      "type": "function"
    },
    {
      "inputs": [
        {
          "internalType": "address",
          "name": "_etudiant",
          "type": "address"
        }
      ],
      "name": "getCandidaturesEtudiant",
      "outputs": [
        {
          "components": [
            {
              "internalType": "uint256",
              "name": "id",
              "type": "uint256"
            },
            {
              "internalType": "address",
              "name": "etudiantWallet",
              "type": "address"
            },
            {
              "internalType": "uint256",
              "name": "offreId",
              "type": "uint256"
            },
            {
              "internalType": "uint16",
              "name": "scoreMatching",
              "type": "uint16"
            },
            {
              "internalType": "enum CandidatureManager.Statut",
              "name": "statut",
              "type": "uint8"
            },
            {
              "internalType": "uint256",
              "name": "soumiseAt",
              "type": "uint256"
            },
            {
              "internalType": "uint256",
              "name": "traiteeAt",
              "type": "uint256"
            }
          ],
          "internalType": "struct CandidatureManager.Candidature[]",
          "name": "",
          "type": "tuple[]"
        }
      ],
      "stateMutability": "view",
      "type": "function"
    },
    {
      "inputs": [
        {
          "internalType": "uint256",
          "name": "_offreId",
          "type": "uint256"
        }
      ],
      "name": "getCandidaturesParOffre",
      "outputs": [
        {
          "components": [
            {
              "internalType": "uint256",
              "name": "id",
              "type": "uint256"
            },
            {
              "internalType": "address",
              "name": "etudiantWallet",
              "type": "address"
            },
            {
              "internalType": "uint256",
              "name": "offreId",
              "type": "uint256"
            },
            {
              "internalType": "uint16",
              "name": "scoreMatching",
              "type": "uint16"
            },
            {
              "internalType": "enum CandidatureManager.Statut",
              "name": "statut",
              "type": "uint8"
            },
            {
              "internalType": "uint256",
              "name": "soumiseAt",
              "type": "uint256"
            },
            {
              "internalType": "uint256",
              "name": "traiteeAt",
              "type": "uint256"
            }
          ],
          "internalType": "struct CandidatureManager.Candidature[]",
          "name": "",
          "type": "tuple[]"
        }
      ],
      "stateMutability": "view",
      "type": "function"
    },
    {
      "inputs": [],
      "name": "offreManager",
      "outputs": [
        {
          "internalType": "contract OffreManager",
          "name": "",
          "type": "address"
        }
      ],
      "stateMutability": "view",
      "type": "function"
    },
    {
      "inputs": [
        {
          "internalType": "uint256",
          "name": "_offreId",
          "type": "uint256"
        },
        {
          "internalType": "uint16",
          "name": "_scoreMatching",
          "type": "uint16"
        }
      ],
      "name": "postuler",
      "outputs": [],
      "stateMutability": "nonpayable",
      "type": "function"
    },
    {
      "inputs": [
        {
          "internalType": "uint256",
          "name": "_candidatureId",
          "type": "uint256"
        }
      ],
      "name": "refuser",
      "outputs": [],
      "stateMutability": "nonpayable",
      "type": "function"
    },
    {
      "inputs": [],
      "name": "userManager",
      "outputs": [
        {
          "internalType": "contract UserManager",
          "name": "",
          "type": "address"
        }
      ],
      "stateMutability": "view",
      "type": "function"
    }
  ],
  "bytecode": "0x608034609957601f6112a838819003918201601f19168301916001600160401b03831184841017609d578084926040948552833981010312609957604b602060458360b1565b920160b1565b600160038190555f80546001600160a01b03199081166001600160a01b039586161790915581548116939092169290921790915560028054909116331790556040516111e390816100c58239f35b5f80fd5b634e487b7160e01b5f52604160045260245ffd5b51906001600160a01b038216820360995756fe6080806040526004361015610012575f80fd5b5f3560e01c908163023a90e314610da257508063258e7acb14610cb85780635c8a768714610c9157806367895ceb14610a68578063905c4cd414610988578063a2ba1c52146107ce578063d3a8b7df146106fe578063dfa990bb1461064b578063e034bbca146100b65763f851a4401461008a575f80fd5b346100b2575f3660031901126100b2576002546040516001600160a01b039091168152602090f35b5f80fd5b346100b25760403660031901126100b25760043560243561ffff81168091036100b2575f5460405163dc35a8ed60e01b81523360048201526001602482015290602090829060449082906001600160a01b03165afa908115610509575f91610611575b50156105b357335f52600560205260405f20825f5260205260405f2054610564576064811161051457600154604051632021037f60e21b815260048101849052905f90829060249082906001600160a01b03165afa8015610509575f9061032f575b61016091500151156102eb57600354905f1982146102d75760018201600355604051906101a782610e76565b828252602082013381526040830185815260608401928352608084015f815260a085019142835260c08601935f8552875f52600460205260405f2096518755600187019060018060a01b039051166bffffffffffffffffffffffff60a01b82541617905551600286015561ffff6003860194511661ffff19855416178455519260038410156102c35760059362ff000082549160101b169062ff0000191617905551600484015551910155335f52600560205260405f20825f526020528060405f2055815f52600660205261027f8160405f20611174565b335f5260076020526102948160405f20611174565b604051904282527fc952fe035d7bad4b2656c331ecd9e06523cd74003e0217224a5bab7f784b583e60203393a4005b634e487b7160e01b5f52602160045260245ffd5b634e487b7160e01b5f52601160045260245ffd5b606460405162461bcd60e51b815260206004820152602060248201527f43616e64696461747572654d616e616765723a206f66667265206665726d65656044820152fd5b503d805f833e61033f8183610e91565b8101906020818303126100b2578051906001600160401b0382116100b25701906101a0828203126100b257604051906101a082018281106001600160401b038211176104f5576040528251825260208301516001600160a01b03811681036100b257602083015260408301516001600160401b0381116100b257816103c591850161111f565b604083015260608301516001600160401b0381116100b257816103e991850161111f565b606083015260808301516001600160401b0381116100b2578161040d91850161111f565b608083015260a08301516001600160401b0381116100b2578161043191850161111f565b60a083015260c08301516001600160401b0381116100b2578161045591850161111f565b60c083015260e08301516001600160401b0381116100b2578161047991850161111f565b60e0830152610100830151906001600160401b0382116100b25761049e91840161111f565b61010082015261012082015160ff811681036100b25761012082015261014082015161ffff811681036100b25761016092610180916101408401526104e4848201610f97565b84840152015161018082015261017b565b634e487b7160e01b5f52604160045260245ffd5b6040513d5f823e3d90fd5b60405162461bcd60e51b815260206004820152602260248201527f43616e64696461747572654d616e616765723a2073636f726520696e76616c69604482015261646560f01b6064820152608490fd5b60405162461bcd60e51b815260206004820152602160248201527f43616e64696461747572654d616e616765723a2064656a612063616e646964616044820152601d60fa1b6064820152608490fd5b60405162461bcd60e51b815260206004820152603060248201527f43616e64696461747572654d616e616765723a206574756469616e742061757460448201526f1bdc9a5cd9481d5b9a5c5d595b595b9d60821b6064820152608490fd5b90506020813d602011610643575b8161062c60209383610e91565b810103126100b25761063d90610f97565b83610119565b3d915061061f565b346100b25760203660031901126100b257600435610667610ec9565b50805f52600460205261067f60405f20541515611003565b5f52600460205260e060405f2060056040519161069b83610e76565b8054835260018101546001600160a01b0316602084015260028101546040840152600381015461ffff811660608501526106de9060101c60ff1660808501610f8b565b600481015460a0840152015460c08201526106fc6040518092610ddb565bf35b346100b25760403660031901126100b2576001600160a01b0361071f610dc5565b165f52600560205260405f206024355f5260205260405f2054610743811515611003565b805f52600460205260ff600360405f20015460101c1660038110156102c35760010361077457602090604051908152f35b60405162461bcd60e51b815260206004820152602c60248201527f43616e64696461747572654d616e616765723a2063616e64696461747572652060448201526b6e6f6e20616363657074656560a01b6064820152608490fd5b346100b25760203660031901126100b2575f5460405163dc35a8ed60e01b815233600480830191909152600360248301523591602090829060449082906001600160a01b03165afa8015610509575f9061094d575b61082d9150610fa4565b805f52600460205261084460405f20541515611003565b5f52600460205260405f20600381019060ff825460101c1660038110156102c35761086f9015611063565b60015460028201805460405163189757df60e11b81526004810191909152336024820152909391602090829060449082906001600160a01b03165afa8015610509575f90610912575b6108c291506110bb565b6202000062ff0000198254161790554260058201556001808060a01b03910154169054907f945af089c4bb5b0675b5f05c78e00a5b8d6b974dba4d0be0fbcce8ae43061c5f6020604051428152a3005b506020813d602011610945575b8161092c60209383610e91565b810103126100b2576109406108c291610f97565b6108b8565b3d915061091f565b506020813d602011610980575b8161096760209383610e91565b810103126100b25761097b61082d91610f97565b610823565b3d915061095a565b346100b25760203660031901126100b2576004355f52600660205260405f2080546109b281610eff565b915f5b8281106109ce57604051806109ca8682610e33565b0390f35b806109db60019284610f4e565b90549060031b1c5f52600460205260405f206005604051916109fc83610e76565b80548352848060a01b038582015416602084015260028101546040840152610a3b60ff600383015461ffff8116606087015260101c1660808501610f8b565b600481015460a0840152015460c0820152610a568287610f77565b52610a618186610f77565b50016109b5565b346100b25760203660031901126100b2575f5460405163dc35a8ed60e01b815233600480830191909152600360248301523591602090829060449082906001600160a01b03165afa8015610509575f90610c56575b610ac79150610fa4565b805f526004602052610ade60405f20541515611003565b5f52600460205260405f20600381019060ff825460101c1660038110156102c357610b099015611063565b60015460028201805460405163189757df60e11b81526004810191909152336024820152909391602090829060449082906001600160a01b03165afa8015610509575f90610c1b575b610b5c91506110bb565b6201000062ff0000198254161790554260058201556001808060a01b039101541690549081817fc11abdc53fb3e038f86714ca351908bb4c6a406d66eb5c1d3634a61ce09211e26020604051428152a37f058413cf88f233627820d4ccf8aeb4fee0ac43ff7982e74e76fa129316f10d34608060405160208152602c60208201527f4e6f757665617520737461676520612074726169746572203a20636f6e76656e60408201526b74696f6e207265717569736560a01b6060820152a3005b506020813d602011610c4e575b81610c3560209383610e91565b810103126100b257610c49610b5c91610f97565b610b52565b3d9150610c28565b506020813d602011610c89575b81610c7060209383610e91565b810103126100b257610c84610ac791610f97565b610abd565b3d9150610c63565b346100b2575f3660031901126100b2575f546040516001600160a01b039091168152602090f35b346100b25760203660031901126100b2576001600160a01b03610cd9610dc5565b165f52600760205260405f208054610cf081610eff565b915f5b828110610d0857604051806109ca8682610e33565b80610d1560019284610f4e565b90549060031b1c5f52600460205260405f20600560405191610d3683610e76565b80548352848060a01b038582015416602084015260028101546040840152610d7560ff600383015461ffff8116606087015260101c1660808501610f8b565b600481015460a0840152015460c0820152610d908287610f77565b52610d9b8186610f77565b5001610cf3565b346100b2575f3660031901126100b2576001546001600160a01b03168152602090f35b600435906001600160a01b03821682036100b257565b805182526020808201516001600160a01b0316908301526040808201519083015260608082015161ffff1690830152608081015160038110156102c35760c0918291608085015260a081015160a08501520151910152565b60206040818301928281528451809452019201905f5b818110610e565750505090565b909192602060e082610e6b6001948851610ddb565b019401929101610e49565b60e081019081106001600160401b038211176104f557604052565b90601f801991011681019081106001600160401b038211176104f557604052565b6001600160401b0381116104f55760051b60200190565b60405190610ed682610e76565b5f60c0838281528260208201528260408201528260608201528260808201528260a08201520152565b90610f0982610eb2565b610f166040519182610e91565b8281528092610f27601f1991610eb2565b01905f5b828110610f3757505050565b602090610f42610ec9565b82828501015201610f2b565b8054821015610f63575f5260205f2001905f90565b634e487b7160e01b5f52603260045260245ffd5b8051821015610f635760209160051b010190565b60038210156102c35752565b519081151582036100b257565b15610fab57565b60405162461bcd60e51b815260206004820152602a60248201527f43616e64696461747572654d616e616765723a205248206175746f72697365206044820152691d5b9a5c5d595b595b9d60b21b6064820152608490fd5b1561100a57565b60405162461bcd60e51b815260206004820152602b60248201527f43616e64696461747572654d616e616765723a2063616e64696461747572652060448201526a696e6578697374616e746560a81b6064820152608490fd5b1561106a57565b60405162461bcd60e51b815260206004820152602360248201527f43616e64696461747572654d616e616765723a2073746174757420696e76616c60448201526269646560e81b6064820152608490fd5b156110c257565b60405162461bcd60e51b815260206004820152602f60248201527f43616e64696461747572654d616e616765723a206e6f6e2070726f707269657460448201526e61697265206465206c276f6666726560881b6064820152608490fd5b81601f820112156100b2578051906001600160401b0382116104f55760405192611153601f8401601f191660200185610e91565b828452602083830101116100b257815f9260208093018386015e8301015290565b8054680100000000000000008110156104f55761119691600182018155610f4e565b819291549060031b91821b915f19901b191617905556fea2646970667358221220d517bc1bfb97388023b043b3f5d7dacaace7835dd66d9b4729bb13bb893595f364736f6c634300081c0033",
  "linkReferences": {},
  "deployedLinkReferences": {},
  "immutableReferences": {},
  "inputSourceName": "project/contracts/SC3_CandidatureManager.sol",
  "buildInfoId": "solc-0_8_28-0d1ea19a18def96aac7638c05b32655bb9e07c27"
}