{
  "_format": "hh3-artifact-1",
  "contractName": "CertifManager",
  "sourceName": "contracts/SC7_CertifManager.sol",
  "abi": [
    {
      "inputs": [
        {
          "internalType": "address",
          "name": "_userManager",
          "type": "address"
        },
        {
          "internalType": "address",
          "name": "_conventionManager",
          "type": "address"
        },
        {
          "internalType": "address",
          "name": "_rapportManager",
          "type": "address"
        }
      ],
      "stateMutability": "nonpayable",
      "type": "constructor"
    },
    {
      "anonymous": false,
      "inputs": [
        {
          "indexed": true,
          "internalType": "address",
          "name": "etudiant",
          "type": "address"
        },
        {
          "indexed": false,
          "internalType": "string",
          "name": "hashIPFS",
          "type": "string"
        },
        {
          "indexed": false,
          "internalType": "string",
          "name": "qrCodeData",
          "type": "string"
        },
        {
          "indexed": false,
          "internalType": "uint256",
          "name": "date",
          "type": "uint256"
        }
      ],
      "name": "AttestationCertified",
      "type": "event"
    },
    {
      "anonymous": false,
      "inputs": [
        {
          "indexed": true,
          "internalType": "uint256",
          "name": "attestationId",
          "type": "uint256"
        },
        {
          "indexed": true,
          "internalType": "address",
          "name": "etudiant",
          "type": "address"
        },
        {
          "indexed": false,
          "internalType": "string",
          "name": "hashIPFS",
          "type": "string"
        },
        {
          "indexed": false,
          "internalType": "uint256",
          "name": "date",
          "type": "uint256"
        }
      ],
      "name": "AttestationGeneree",
      "type": "event"
    },
    {
      "anonymous": false,
      "inputs": [
        {
          "indexed": true,
          "internalType": "uint256",
          "name": "attestationId",
          "type": "uint256"
        },
        {
          "indexed": true,
          "internalType": "address",
          "name": "signataire",
          "type": "address"
        },
        {
          "indexed": false,
          "internalType": "uint8",
          "name": "signatureIndex",
          "type": "uint8"
        }
      ],
      "name": "SignatureAttestation",
      "type": "event"
    },
    {
      "inputs": [],
      "name": "admin",
      "outputs": [
        {
          "internalType": "address",
          "name": "",
          "type": "address"
        }
      ],
      "stateMutability": "view",
      "type": "function"
    },
    {
      "inputs": [],
      "name": "conventionManager",
      "outputs": [
        {
          "internalType": "contract ConventionManager",
          "name": "",
          "type": "address"
        }
      ],
      "stateMutability": "view",
      "type": "function"
    },
    {
      "inputs": [
        {
          "internalType": "address",
          "name": "_etudiant",
          "type": "address"
        },
        {
          "internalType": "string",
          "name": "_hashIPFSAttestation",
          "type": "string"
        }
      ],
      "name": "genererAttestation",
      "outputs": [],
      "stateMutability": "nonpayable",
      "type": "function"
    },
    {
      "inputs": [
        {
          "internalType": "uint256",
          "name": "_id",
          "type": "uint256"
        }
      ],
      "name": "getAttestation",
      "outputs": [
        {
          "components": [
            {
              "internalType": "uint256",
              "name": "id",
              "type": "uint256"
            },
            {
              "internalType": "address",
              "name": "etudiantWallet",
              "type": "address"
            },
            {
              "internalType": "string",
              "name": "hashIPFS",
              "type": "string"
            },
            {
              "internalType": "uint256",
              "name": "noteFinale_x10",
              "type": "uint256"
            },
            {
              "internalType": "string",
              "name": "qrCodeData",
              "type": "string"
            },
            {
              "internalType": "bool",
              "name": "signatureTuteur",
              "type": "bool"
            },
            {
              "internalType": "bool",
              "name": "signatureEncadrant",
              "type": "bool"
            },
            {
              "internalType": "bool",
              "name": "signatureAdmin",
              "type": "bool"
            },
            {
              "internalType": "bool",
              "name": "certifiee",
              "type": "bool"
            },
            {
              "internalType": "uint256",
              "name": "genereAt",
              "type": "uint256"
            },
            {
              "internalType": "uint256",
              "name": "certifieeAt",
              "type": "uint256"
            }
          ],
          "internalType": "struct CertifManager.Attestation",
          "name": "",
          "type": "tuple"
        }
      ],
      "stateMutability": "view",
      "type": "function"
    },
    {
      "inputs": [
        {
          "internalType": "address",
          "name": "_etudiant",
          "type": "address"
        }
      ],
      "name": "getAttestationByEtudiant",
      "outputs": [
        {
          "components": [
            {
              "internalType": "uint256",
              "name": "id",
              "type": "uint256"
            },
            {
              "internalType": "address",
              "name": "etudiantWallet",
              "type": "address"
            },
            {
              "internalType": "string",
              "name": "hashIPFS",
              "type": "string"
            },
            {
              "internalType": "uint256",
              "name": "noteFinale_x10",
              "type": "uint256"
            },
            {
              "internalType": "string",
              "name": "qrCodeData",
              "type": "string"
            },
            {
              "internalType": "bool",
              "name": "signatureTuteur",
              "type": "bool"
            },
            {
              "internalType": "bool",
              "name": "signatureEncadrant",
              "type": "bool"
            },
            {
              "internalType": "bool",
              "name": "signatureAdmin",
              "type": "bool"
            },
            {
              "internalType": "bool",
              "name": "certifiee",
              "type": "bool"
            },
            {
              "internalType": "uint256",
              "name": "genereAt",
              "type": "uint256"
            },
            {
              "internalType": "uint256",
              "name": "certifieeAt",
              "type": "uint256"
            }
          ],
          "internalType": "struct CertifManager.Attestation",
          "name": "",
          "type": "tuple"
        }
      ],
      "stateMutability": "view",
      "type": "function"
    },
    {
      "inputs": [
        {
          "internalType": "uint256",
          "name": "_attestationId",
          "type": "uint256"
        }
      ],
      "name": "getQRCode",
      "outputs": [
        {
          "internalType": "string",
          "name": "",
          "type": "string"
        }
      ],
      "stateMutability": "view",
      "type": "function"
    },
    {
      "inputs": [],
      "name": "rapportManager",
      "outputs": [
        {
          "internalType": "contract RapportManager",
          "name": "",
          "type": "address"
        }
      ],
      "stateMutability": "view",
      "type": "function"
    },
    {
      "inputs": [
        {
          "internalType": "uint256",
          "name": "_attestationId",
          "type": "uint256"
        }
      ],
      "name": "signerAttestation",
      "outputs": [],
      "stateMutability": "nonpayable",
      "type": "function"
    },
    {
      "inputs": [],
      "name": "userManager",
      "outputs": [
        {
          "internalType": "contract UserManager",
          "name": "",
          "type": "address"
        }
      ],
      "stateMutability": "view",
      "type": "function"
    },
    {
      "inputs": [
        {
          "internalType": "string",
          "name": "_qrCodeData",
          "type": "string"
        },
        {
          "internalType": "string",
          "name": "_hashPDFActuel",
          "type": "string"
        }
      ],
      "name": "verifier",
      "outputs": [
        {
          "internalType": "bool",
          "name": "authentique",
          "type": "bool"
        },
        {
          "internalType": "address",
          "name": "etudiant",
          "type": "address"
        },
        {
          "internalType": "uint256",
          "name": "noteFinale",
          "type": "uint256"
        },
        {
          "internalType": "uint256",
          "name": "certifieeAt",
          "type": "uint256"
        }
      ],
      "stateMutability": "view",
      "type": "function"
    }
  ],
  "bytecode": "0x60803460b457601f61183138819003918201601f19168301916001600160401b0383118484101760b85780849260609460405283398101031260b45760428160cc565b906057604060516020840160cc565b920160cc565b600160048190555f80546001600160a01b03199081166001600160a01b0396871617909155815481169385169390931790556002805483169390911692909217909155600380549091163317905560405161175190816100e08239f35b5f80fd5b634e487b7160e01b5f52604160045260245ffd5b51906001600160a01b038216820360b45756fe6080806040526004361015610012575f80fd5b5f3560e01c908163025f792b146108b7575080630f031165146107fa578063165e3ec71461038957806329be4db21461028f5780635c8a7687146102685780639226840114610240578063b3ce5e7b146101bc578063b589f6d014610194578063c3c1c2b2146100b65763f851a4401461008a575f80fd5b346100b2575f3660031901126100b2576003546040516001600160a01b039091168152602090f35b5f80fd5b346100b25760203660031901126100b257600435805f5260056020526100e160405f2054151561144d565b805f52600560205260ff600560405f20015460181c161561013e575f52600560205261013a61011f610126600460405f2001604051928380926113cc565b03826112f5565b60405191829160208352602083019061120f565b0390f35b60405162461bcd60e51b815260206004820152602860248201527f4365727469664d616e616765723a206174746573746174696f6e206e6f6e2063604482015267657274696669656560c01b6064820152608490fd5b346100b2575f3660031901126100b2576001546040516001600160a01b039091168152602090f35b346100b25760403660031901126100b25760043567ffffffffffffffff81116100b2576101ed9036906004016111e1565b6024359067ffffffffffffffff82116100b25760809261021461021c9336906004016111e1565b9290916114c7565b6040805194151585526001600160a01b039093166020850152918301526060820152f35b346100b2575f3660031901126100b2576002546040516001600160a01b039091168152602090f35b346100b2575f3660031901126100b2575f546040516001600160a01b039091168152602090f35b346100b25760203660031901126100b2576004356102ab611379565b50805f5260056020526102c360405f2054151561144d565b5f52600560205261013a60405f206007604051916102e0836112d8565b8054835260018101546001600160a01b0316602084015260405161030b8161011f81600286016113cc565b60408401526003810154606084015260405161032e8161011f81600486016113cc565b608084015260ff6005820154818116151560a0860152818160081c16151560c0860152818160101c16151560e086015260181c1615156101008401526006810154610120840152015461014082015260405191829182611233565b346100b25760203660031901126100b257600435805f5260056020526103b460405f2054151561144d565b805f52600560205260405f20600581019081549260ff8460181c166107a35760018281015490546040516346df49ed60e11b81526001600160a01b03928316600482018190529692909116602082602481845afa908115610776576024925f92610781575b506020906040519384809263082af8c760e41b82528b60048301525afa918215610776575f92610745575b50336001600160a01b039190911603610590575050825460ff81166105405760019060ff191617835560405190600182527fcc8aa6930a959447a1ccdab5d5c0508e9821e79eeddca1f3aaa426dfdb323c3b60203393a35b81549060ff821680610533575b80610526575b6104b557005b7fc2a3ad493e915e3ab27a3f1476ab17cfd76cc6c4263c16bd125f18105ae5637192630100000061051b9363ff000000191617905542600782015560405191829160608352600461050c60608501600284016113cc565b918483036020860152016113cc565b4260408301520390a2005b5060ff8260101c166104af565b5060ff8260081c166104a9565b60405162461bcd60e51b815260206004820152602260248201527f4365727469664d616e616765723a2074757465757220612064656a61207369676044820152616e6560f01b6064820152608490fd5b336001600160a01b0391909116036106425750825460ff8160081c166105ef576101009061ff00191617835560405190600282527fcc8aa6930a959447a1ccdab5d5c0508e9821e79eeddca1f3aaa426dfdb323c3b60203393a361049c565b60405162461bcd60e51b815260206004820152602560248201527f4365727469664d616e616765723a20656e63616472616e7420612064656a61206044820152647369676e6560d81b6064820152608490fd5b600354336001600160a01b03909116036106f15760ff8160101c166106a257620100009062ff0000191617835560405190600382527fcc8aa6930a959447a1ccdab5d5c0508e9821e79eeddca1f3aaa426dfdb323c3b60203393a361049c565b60405162461bcd60e51b815260206004820152602160248201527f4365727469664d616e616765723a2061646d696e20612064656a61207369676e6044820152606560f81b6064820152608490fd5b60405162461bcd60e51b815260206004820152602660248201527f4365727469664d616e616765723a207369676e617461697265206e6f6e206175604482015265746f7269736560d01b6064820152608490fd5b61076891925060203d60201161076f575b61076081836112f5565b8101906114a8565b9087610444565b503d610756565b6040513d5f823e3d90fd5b602091925061079c90823d841161076f5761076081836112f5565b9190610419565b60405162461bcd60e51b815260206004820152602960248201527f4365727469664d616e616765723a206174746573746174696f6e2064656a612060448201526863657274696669656560b81b6064820152608490fd5b346100b25760203660031901126100b2576108136111cb565b61081b611379565b506001600160a01b03165f908152600660205260409020548015610856575f52600560205261013a60405f206007604051916102e0836112d8565b60405162461bcd60e51b815260206004820152603360248201527f4365727469664d616e616765723a20617563756e65206174746573746174696f6044820152721b881c1bdd5c8818d95d08195d1d591a585b9d606a1b6064820152608490fd5b346100b25760403660031901126100b2576108d06111cb565b60243567ffffffffffffffff81116100b2576108f09036906004016111e1565b600354919390916001600160a01b03163303611189575060025460405163c4d2fc9960e01b81526001600160a01b0393841660048201819052939091169190602081602481865afa908115610776575f9161114e575b50156110ff57825f52600660205260405f20546110aa5760405163b5f7123f60e01b81526004810184905291602083602481845afa928315610776575f93611076575b505f6024916040519283809263c4a33d8160e01b82528860048301525afa908115610776575f91610ffc575b50600454926109c384611333565b6004556109cf84611645565b906040918251936109e084866112f5565b601085526f181899199a1a9b1b9c1cb0b131b232b360811b60208601526060948451610a0c87826112f5565b602a81526020810191601f198801368437815115610fe85760308353815160011015610fe8579086939291607860218301535f5b60148110610f2a57505093600160206c39ba30b3b2b1b430b4b73b189d60991b958282610ae497602d8398839d9c610a7742611645565b96519e8f9a818c019e8f52805191829101858d015e8a0190601d60f91b84830152518092602e83015e010190601d60f91b84830152805192839101600283015e010190601d60f91b84830152805192839101600283015e01015f838201520301601f1981018552846112f5565b8351610b0c6020828181019487518091875e81015f838201520301601f1981018352826112f5565b51902091835190610b1c826112d8565b8782526020820192898452610b3088611317565b610b3c875191826112f5565b88815236898d01116100b257888c60208301375f60208a83010152868401908152878401918252608084019283525f60a08501525f60c08501525f60e08501525f610100850152426101208501525f610140850152895f526005602052865f209484518655600186019060018060a01b039051166bffffffffffffffffffffffff60a01b82541617905560028501905180519067ffffffffffffffff8211610e58578190610bea8454611341565b601f8111610eda575b50602090601f8311600114610e77575f92610e6c575b50508160011b915f199060031b1c19161790555b5160038401555180519067ffffffffffffffff8211610e5857610c436004850154611341565b601f8111610e10575b50602090601f8311600114610d76576101407fbc248b3af9fd3a95f61b7a1fb7b8ceae2e119ac1620ee4b0a670a9e4414a355f9a9b9c94848b98958998956007955f92610d6b575b50508160011b915f199060031b1c19161760048501555b6005840160a0820151151560ff8019835416911617815560c0820151151561ff0082549160081b169061ff00191617815560e0820151151562ff000082549160101b169062ff00001916178155610100820151151563ff00000082549160181b169063ff000000191617905561012081015160068501550151910155895f52600660205288855f20555f52600760205287845f20558351958487958652850152848401375f828201840152426020830152601f01601f19168101030190a3005b015190505f80610c94565b90600485015f52805f20915f5b601f1985168110610df857507fbc248b3af9fd3a95f61b7a1fb7b8ceae2e119ac1620ee4b0a670a9e4414a355f9a9b9c946001858c999695600795610140958c9b98601f19811610610de0575b505050811b016004850155610cab565b01515f1960f88460031b161c191690555f8080610dd0565b91926020600181928685015181550194019201610d83565b600485015f5260205f20601f840160051c81019160208510610e4e575b601f0160051c01905b818110610e435750610c4c565b5f8155600101610e36565b9091508190610e2d565b634e487b7160e01b5f52604160045260245ffd5b015190508e80610c09565b5f8581528281209350601f198516905b818110610ec25750908460019594939210610eaa575b505050811b019055610c1d565b01515f1960f88460031b161c191690558e8080610e9d565b92936020600181928786015181550195019301610e87565b909150835f5260205f20601f840160051c81019160208510610f20575b90601f859493920160051c01905b818110610f125750610bf3565b5f8155849350600101610f05565b9091508190610ef7565b909192939450600c8101808211610fd4576020811015610fe8578c901a906001600160f81b0319610f62600484901c600f1685611634565b5116918160011b9282840460021483151715610fd457836002019081600211610fd457610f92905f1a9187611634565b536001600160f81b031990610faa90600f1685611634565b51169160030180600311610fd457610fc76001935f1a9186611634565b5301908794939291610a40565b634e487b7160e01b5f52601160045260245ffd5b634e487b7160e01b5f52603260045260245ffd5b90503d805f833e61100d81836112f5565b8101906020818303126100b25780519067ffffffffffffffff82116100b2570181601f820112156100b25780519061104482611317565b9261105260405194856112f5565b828452602083830101116100b257815f9260208093018386015e83010152856109b5565b9092506020813d6020116110a2575b81611092602093836112f5565b810103126100b25751915f610989565b3d9150611085565b60405162461bcd60e51b815260206004820152602760248201527f4365727469664d616e616765723a206174746573746174696f6e2064656a612060448201526667656e6572656560c81b6064820152608490fd5b60405162461bcd60e51b815260206004820152602160248201527f4365727469664d616e616765723a20726170706f7274206e6f6e2076616c69646044820152606560f81b6064820152608490fd5b90506020813d602011611181575b81611169602093836112f5565b810103126100b2575180151581036100b25785610946565b3d915061115c565b62461bcd60e51b815260206004820152601f60248201527f4365727469664d616e616765723a2061646d696e20756e697175656d656e74006044820152606490fd5b600435906001600160a01b03821682036100b257565b9181601f840112156100b25782359167ffffffffffffffff83116100b257602083818601950101116100b257565b805180835260209291819084018484015e5f828201840152601f01601f1916010190565b602081528151602082015260018060a01b036020830151166040820152610160610140611292611272604086015184606087015261018086019061120f565b606086015160808601526080860151601f198683030160a087015261120f565b9360a0810151151560c085015260c0810151151560e085015260e08101511515610100850152610100810151151561012085015261012081015182850152015191015290565b610160810190811067ffffffffffffffff821117610e5857604052565b90601f8019910116810190811067ffffffffffffffff821117610e5857604052565b67ffffffffffffffff8111610e5857601f01601f191660200190565b5f198114610fd45760010190565b90600182811c9216801561136f575b602083101461135b57565b634e487b7160e01b5f52602260045260245ffd5b91607f1691611350565b60405190611386826112d8565b5f6101408382815282602082015260606040820152826060820152606060808201528260a08201528260c08201528260e082015282610100820152826101208201520152565b5f92918154916113db83611341565b808352926001811690811561143057506001146113f757505050565b5f9081526020812093945091925b838310611416575060209250010190565b600181602092949394548385870101520191019190611405565b915050602093945060ff929192191683830152151560051b010190565b1561145457565b60405162461bcd60e51b815260206004820152602660248201527f4365727469664d616e616765723a206174746573746174696f6e20696e6578696044820152657374616e746560d01b6064820152608490fd5b908160209103126100b257516001600160a01b03811681036100b25790565b906114ef602060405183819483830196873781015f838201520301601f1981018352826112f5565b5190205f52600760205260405f20548015611627575f52600560205260405f209160ff600584015460181c161561160d57611547602060405183819483830196873781015f838201520301601f1981018352826112f5565b519020600282016040516020810191815f82549261156484611341565b93600181169081156115ef57506001146115b0575b5061158d925003601f1981018352826112f5565b5190201460018060a01b0360018301541692600760038401549301549193929190565b9150505f528160205f205f905b8382106115d5575050602061158d928201015f611579565b6020919250806001915483858801015201910183916115bd565b60ff191687525061158d9380151502830160200191505f9050611579565b5050600101545f916001600160a01b039091169082908190565b5050505f905f905f905f90565b908151811015610fe8570160200190565b80156116fb5780815f925b6116e757508061165f83611317565b9261166d60405194856112f5565b808452601f1961167c82611317565b01366020860137905b61168e57505090565b8015610fd4575f190190600a810490600a8202828104600a1483151715610fd4578103908111610fd45760ff1660300160ff8111610fd45760f81b6001600160f81b0319165f1a6116df8385611634565b539081611685565b916116f3600a91611333565b920480611650565b5060405161170a6040826112f5565b60018152600360fc1b60208201529056fea2646970667358221220d34ce731b92422ee37d664a6e9af2b920bc5cb2602a26135a5d35da4f8cff6f364736f6c634300081c0033",
  "linkReferences": {},
  "deployedLinkReferences": {},
  "immutableReferences": {},
  "inputSourceName": "project/contracts/SC7_CertifManager.sol",
  "buildInfoId": "solc-0_8_28-0d1ea19a18def96aac7638c05b32655bb9e07c27"
}