{
  "_format": "hh3-artifact-1",
  "contractName": "CertifManager",
  "sourceName": "contracts/SC6_CertifManager.sol",
  "abi": [
    {
      "inputs": [
        {
          "internalType": "address",
          "name": "_accountManager",
          "type": "address"
        },
        {
          "internalType": "address",
          "name": "_rapportManager",
          "type": "address"
        },
        {
          "internalType": "address",
          "name": "_conventionManager",
          "type": "address"
        }
      ],
      "stateMutability": "nonpayable",
      "type": "constructor"
    },
    {
      "anonymous": false,
      "inputs": [
        {
          "indexed": true,
          "internalType": "uint256",
          "name": "attestationId",
          "type": "uint256"
        },
        {
          "indexed": true,
          "internalType": "address",
          "name": "etudiant",
          "type": "address"
        },
        {
          "indexed": false,
          "internalType": "uint256",
          "name": "date",
          "type": "uint256"
        }
      ],
      "name": "AttestationCertifiee",
      "type": "event"
    },
    {
      "anonymous": false,
      "inputs": [
        {
          "indexed": true,
          "internalType": "uint256",
          "name": "attestationId",
          "type": "uint256"
        },
        {
          "indexed": true,
          "internalType": "address",
          "name": "etudiant",
          "type": "address"
        },
        {
          "indexed": false,
          "internalType": "uint256",
          "name": "date",
          "type": "uint256"
        }
      ],
      "name": "AttestationGeneree",
      "type": "event"
    },
    {
      "anonymous": false,
      "inputs": [
        {
          "indexed": true,
          "internalType": "uint256",
          "name": "attestationId",
          "type": "uint256"
        },
        {
          "indexed": false,
          "internalType": "uint256",
          "name": "date",
          "type": "uint256"
        }
      ],
      "name": "AttestationRevoquee",
      "type": "event"
    },
    {
      "anonymous": false,
      "inputs": [
        {
          "indexed": true,
          "internalType": "uint256",
          "name": "attestationId",
          "type": "uint256"
        },
        {
          "indexed": true,
          "internalType": "address",
          "name": "signataire",
          "type": "address"
        },
        {
          "indexed": false,
          "internalType": "uint256",
          "name": "date",
          "type": "uint256"
        }
      ],
      "name": "AttestationSignee",
      "type": "event"
    },
    {
      "inputs": [],
      "name": "accountManager",
      "outputs": [
        {
          "internalType": "contract AccountManager",
          "name": "",
          "type": "address"
        }
      ],
      "stateMutability": "view",
      "type": "function"
    },
    {
      "inputs": [
        {
          "internalType": "address",
          "name": "",
          "type": "address"
        }
      ],
      "name": "attestationParEtudiant",
      "outputs": [
        {
          "internalType": "uint256",
          "name": "",
          "type": "uint256"
        }
      ],
      "stateMutability": "view",
      "type": "function"
    },
    {
      "inputs": [
        {
          "internalType": "string",
          "name": "",
          "type": "string"
        }
      ],
      "name": "attestationParQR",
      "outputs": [
        {
          "internalType": "uint256",
          "name": "",
          "type": "uint256"
        }
      ],
      "stateMutability": "view",
      "type": "function"
    },
    {
      "inputs": [],
      "name": "conventionManager",
      "outputs": [
        {
          "internalType": "contract ConventionManager",
          "name": "",
          "type": "address"
        }
      ],
      "stateMutability": "view",
      "type": "function"
    },
    {
      "inputs": [
        {
          "internalType": "address",
          "name": "_etudiant",
          "type": "address"
        },
        {
          "internalType": "string",
          "name": "_cidAttestation",
          "type": "string"
        },
        {
          "internalType": "string",
          "name": "_qrCodeData",
          "type": "string"
        }
      ],
      "name": "genererAttestation",
      "outputs": [],
      "stateMutability": "nonpayable",
      "type": "function"
    },
    {
      "inputs": [
        {
          "internalType": "uint256",
          "name": "_attestationId",
          "type": "uint256"
        }
      ],
      "name": "getAttestation",
      "outputs": [
        {
          "components": [
            {
              "internalType": "uint256",
              "name": "id",
              "type": "uint256"
            },
            {
              "internalType": "address",
              "name": "etudiant",
              "type": "address"
            },
            {
              "internalType": "address",
              "name": "admin",
              "type": "address"
            },
            {
              "internalType": "address",
              "name": "rh",
              "type": "address"
            },
            {
              "internalType": "string",
              "name": "cidAttestation",
              "type": "string"
            },
            {
              "internalType": "string",
              "name": "qrCodeData",
              "type": "string"
            },
            {
              "internalType": "uint256",
              "name": "noteFinale",
              "type": "uint256"
            },
            {
              "internalType": "bool",
              "name": "signAdmin",
              "type": "bool"
            },
            {
              "internalType": "bool",
              "name": "signRH",
              "type": "bool"
            },
            {
              "internalType": "enum CertifManager.StatutAttestation",
              "name": "statut",
              "type": "uint8"
            },
            {
              "internalType": "uint256",
              "name": "createdAt",
              "type": "uint256"
            }
          ],
          "internalType": "struct CertifManager.Attestation",
          "name": "",
          "type": "tuple"
        }
      ],
      "stateMutability": "view",
      "type": "function"
    },
    {
      "inputs": [
        {
          "internalType": "address",
          "name": "_etudiant",
          "type": "address"
        }
      ],
      "name": "getAttestationByEtudiant",
      "outputs": [
        {
          "components": [
            {
              "internalType": "uint256",
              "name": "id",
              "type": "uint256"
            },
            {
              "internalType": "address",
              "name": "etudiant",
              "type": "address"
            },
            {
              "internalType": "address",
              "name": "admin",
              "type": "address"
            },
            {
              "internalType": "address",
              "name": "rh",
              "type": "address"
            },
            {
              "internalType": "string",
              "name": "cidAttestation",
              "type": "string"
            },
            {
              "internalType": "string",
              "name": "qrCodeData",
              "type": "string"
            },
            {
              "internalType": "uint256",
              "name": "noteFinale",
              "type": "uint256"
            },
            {
              "internalType": "bool",
              "name": "signAdmin",
              "type": "bool"
            },
            {
              "internalType": "bool",
              "name": "signRH",
              "type": "bool"
            },
            {
              "internalType": "enum CertifManager.StatutAttestation",
              "name": "statut",
              "type": "uint8"
            },
            {
              "internalType": "uint256",
              "name": "createdAt",
              "type": "uint256"
            }
          ],
          "internalType": "struct CertifManager.Attestation",
          "name": "",
          "type": "tuple"
        }
      ],
      "stateMutability": "view",
      "type": "function"
    },
    {
      "inputs": [],
      "name": "rapportManager",
      "outputs": [
        {
          "internalType": "contract RapportManager",
          "name": "",
          "type": "address"
        }
      ],
      "stateMutability": "view",
      "type": "function"
    },
    {
      "inputs": [
        {
          "internalType": "uint256",
          "name": "_attestationId",
          "type": "uint256"
        }
      ],
      "name": "revoquerAttestation",
      "outputs": [],
      "stateMutability": "nonpayable",
      "type": "function"
    },
    {
      "inputs": [
        {
          "internalType": "uint256",
          "name": "_attestationId",
          "type": "uint256"
        }
      ],
      "name": "signerParAdmin",
      "outputs": [],
      "stateMutability": "nonpayable",
      "type": "function"
    },
    {
      "inputs": [
        {
          "internalType": "uint256",
          "name": "_attestationId",
          "type": "uint256"
        }
      ],
      "name": "signerParRH",
      "outputs": [],
      "stateMutability": "nonpayable",
      "type": "function"
    },
    {
      "inputs": [
        {
          "internalType": "string",
          "name": "_qrCodeData",
          "type": "string"
        }
      ],
      "name": "verifierParQR",
      "outputs": [
        {
          "internalType": "bool",
          "name": "estValide",
          "type": "bool"
        },
        {
          "internalType": "address",
          "name": "etudiant",
          "type": "address"
        },
        {
          "internalType": "uint256",
          "name": "noteFinale",
          "type": "uint256"
        },
        {
          "internalType": "uint256",
          "name": "date",
          "type": "uint256"
        }
      ],
      "stateMutability": "view",
      "type": "function"
    }
  ],
  "bytecode": "0x60803460a257601f61180c38819003918201601f19168301916001600160401b0383118484101760a65780849260609460405283398101031260a25760428160ba565b906057604060516020840160ba565b920160ba565b5f80546001600160a01b039485166001600160a01b03199182161790915560018054938516938216939093179092556002805491909316911617905560405161173e90816100ce8239f35b5f80fd5b634e487b7160e01b5f52604160045260245ffd5b51906001600160a01b038216820360a25756fe60806040526004361015610011575f80fd5b5f3560e01c80630f0311651461102c5780631cfad5531461078157806322f812f91461072257806329be4db2146105ec578063777adee81461048e57806391c2c46914610467578063922684011461043f57806392dc8f641461031f578063b589f6d0146102f7578063bdf56a4414610291578063e35d3148146102595763ec7532b61461009d575f80fd5b34610242576020366003190112610242576004356044602060018060a01b035f54166040519283809263dc35a8ed60e01b8252336004830152600360248301525afa90811561024e575f91610210575b50156101cb57805f52600460205260405f2061010b81541515611599565b60038101546001600160a01b0316330361017a57610178916007820162020100815461013d60ff8260081c161561164c565b62ffff001916179055604051904282527f6d7e0d947a4ab9301fe3397cc8a2489727aa120ff05e04b6ff6865b4a87de2fa60203393a3611698565b005b60405162461bcd60e51b8152602060048201526024808201527f4365727469664d616e616765723a2070617320766f74726520617474657374616044820152633a34b7b760e11b6064820152608490fd5b60405162461bcd60e51b815260206004820152601c60248201527f4365727469664d616e616765723a20524820756e697175656d656e74000000006044820152606490fd5b90506020813d602011610246575b8161022b60209383611232565b810103126102425761023c906113cf565b5f6100ed565b5f80fd5b3d915061021e565b6040513d5f823e3d90fd5b34610242576020366003190112610242576001600160a01b0361027a6110d7565b165f526005602052602060405f2054604051908152f35b34610242576020366003190112610242576004356001600160401b0381116102425736602382011215610242576020806102d68193369060248160040135910161126e565b604051928184925191829101835e8101600681520301902054604051908152f35b34610242575f366003190112610242576002546040516001600160a01b039091168152602090f35b34610242576020366003190112610242576044600435602060018060a01b035f54166040519384809263dc35a8ed60e01b8252336004830152600460248301525afa91821561024e575f926103fe575b5061037c610178926113dc565b805f52600460205260405f209061039582541515611599565b6103ac60018060a01b0360028401541633146115f4565b600782016201000181546103c360ff82161561164c565b62ff00ff1916179055604051904282527f6d7e0d947a4ab9301fe3397cc8a2489727aa120ff05e04b6ff6865b4a87de2fa60203393a3611698565b91506020823d602011610437575b8161041960209383611232565b810103126102425761037c610430610178936113cf565b925061036f565b3d915061040c565b34610242575f366003190112610242576001546040516001600160a01b039091168152602090f35b34610242575f366003190112610242575f546040516001600160a01b039091168152602090f35b34610242576020366003190112610242576004356044602060018060a01b035f54166040519283809263dc35a8ed60e01b8252336004830152600460248301525afa801561024e575f906105b1575b6104e791506113dc565b805f526004602052600760405f2061050181541515611599565b61051860018060a01b0360028301541633146115f4565b018054600460ff8260101c1661052d81611111565b1461056c57620400009062ff000019161790557f1d1612715e15141c1fb288e88c55902fbde55f97fc9e4f0ea9f1ef61df94f5e96020604051428152a2005b60405162461bcd60e51b815260206004820152601c60248201527f4365727469664d616e616765723a2064656a61207265766f71756565000000006044820152606490fd5b506020813d6020116105e4575b816105cb60209383611232565b81010312610242576105df6104e7916113cf565b6104dd565b3d91506105be565b34610242576020366003190112610242576004356106086112a4565b50805f52600460205260405f2054156106dd575f5260046020526106d960405f2060086040519161063883611216565b8054835260018101546001600160a01b03908116602085015260028201548116604085015260038201541660608401526106746004820161132f565b60808401526106856005820161132f565b60a0840152600681015460c084015260ff6007820154818116151560e08601528181851c16151561010086015260101c166106bf81611111565b61012084015201546101408201526040519182918261112f565b0390f35b60405162461bcd60e51b815260206004820152601a60248201527f4365727469664d616e616765723a20696e6578697374616e74650000000000006044820152606490fd5b34610242576020366003190112610242576004356001600160401b0381116102425761075d61075760809236906004016111e9565b90611490565b6040805194151585526001600160a01b039093166020850152918301526060820152f35b346102425760603660031901126102425761079a6110d7565b6024356001600160401b038111610242576107b99036906004016111e9565b6044929192356001600160401b038111610242576107db9036906004016111e9565b90916044602060018060a01b035f54166040519283809263dc35a8ed60e01b8252336004830152600460248301525afa801561024e575f90610ff1575b61082291506113dc565b600154604051631dfef75b60e21b81526001600160a01b03958616600482018190529590911690602081602481855afa90811561024e575f91610fb7575b5015610f7357845f52600560205260405f2054610f1e575f602491604051928380926302d7ff6960e01b82528960048301525afa801561024e575f90610e18575b6002546040516313f7c45360e11b81526004810188905292505f90839060249082906001600160a01b03165afa91821561024e575f92610cdc575b506003545f198114610cc857600160a0910192836003556060600180841b0391015116910151966040519361091085611216565b8385526109346020860192898452604087019233845260608801958652369161126e565b9860808601998a5261094736888a61126e565b60a0870190815260c087019182525f60e0880181815261010089018281526101208a01838152426101408c019081529984526004602081905260409094209a518b55965160018b0180546001600160a01b039283166001600160a01b031991821617909155965160028c018054918316918916919091179055975160038b018054919099169616959095179096559a518051919b880191906001600160401b038211610bf65781906109f984546112f7565b601f8111610c78575b50602090601f8311600114610c15575f92610c0a575b50508160011b915f199060031b1c19161790555b600586019951998a516001600160401b038111610bf657610a4d82546112f7565b601f8111610bb1575b506020601f8211600114610b445781906008999a9b9c9d5f92610b39575b50508160011b915f199060031b1c19161790555b516006870155600786019251151560ff8019855416911617835551151561ff00835491861b169061ff00191617825551610ac181611111565b610aca81611111565b62ff000082549160101b169062ff0000191617905551910155602060035492845f52600582528360405f205582604051938492833781016006815203019020556003547f1ff1d59066436d08d05fd4edeff4bac3df1fdcae6a373ef35890ae8eda64338a6020604051428152a3005b015190508d80610a74565b601f1982169c835f52815f209d5f5b818110610b9457509160089a9b9c9d9e91846001959410610b7c575b505050811b019055610a88565b01515f1960f88460031b161c191690558d8080610b6f565b919e8f60016020928684930151815501940192019e91929e610b53565b825f5260205f20601f830160051c81019160208410610bec575b601f0160051c01905b818110610be15750610a56565b5f8155600101610bd4565b9091508190610bcb565b634e487b7160e01b5f52604160045260245ffd5b015190508d80610a18565b5f8581528281209350601f198516905b818110610c605750908460019594939210610c48575b505050811b019055610a2c565b01515f1960f88460031b161c191690558d8080610c3b565b92936020600181928786015181550195019301610c25565b909150835f5260205f20601f840160051c81019160208510610cbe575b90601f859493920160051c01905b818110610cb05750610a02565b5f8155849350600101610ca3565b9091508190610c95565b634e487b7160e01b5f52601160045260245ffd5b9091503d805f833e610cee8183611232565b810190602081830312610242578051906001600160401b03821161024257016101a08183031261024257604051916101a083018381106001600160401b03821117610bf6576040528151835260208201516020840152610d5060408301611428565b6040840152610d6160608301611428565b6060840152610d7260808301611428565b6080840152610d8360a08301611428565b60a084015260c0820151906001600160401b03821161024257610da791830161143c565b60c0830152610db860e082016113cf565b60e0830152610dca61010082016113cf565b610100830152610ddd61012082016113cf565b6101208301526101408101519060058210156102425761018091610140840152610160810151610160840152015161018082015290876108dc565b503d805f833e610e288183611232565b810190602081830312610242578051906001600160401b03821161024257019061014082820312610242576040519061014082018281106001600160401b03821117610bf65760405282518252610e8160208401611428565b60208301526040830151926001600160401b03841161024257610eab61012092602495830161143c565b6040840152610ebc60608201611482565b6060840152610ecd60808201611482565b608084015260a081015160a0840152610ee860c082016113cf565b60c0840152610ef960e082016113cf565b60e0840152610f0b61010082016113cf565b61010084015201516101208201526108a1565b60405162461bcd60e51b815260206004820152602760248201527f4365727469664d616e616765723a206174746573746174696f6e2064656a612060448201526667656e6572656560c81b6064820152608490fd5b606460405162461bcd60e51b815260206004820152602060248201527f4365727469664d616e616765723a206e6f7465206e6f6e2063616c63756c65656044820152fd5b90506020813d602011610fe9575b81610fd260209383611232565b8101031261024257610fe3906113cf565b87610860565b3d9150610fc5565b506020813d602011611024575b8161100b60209383611232565b810103126102425761101f610822916113cf565b610818565b3d9150610ffe565b34610242576020366003190112610242576110456110d7565b61104d6112a4565b506001600160a01b03165f908152600560205260409020548015611088575f5260046020526106d960405f2060086040519161063883611216565b60405162461bcd60e51b815260206004820152602160248201527f4365727469664d616e616765723a20617563756e65206174746573746174696f6044820152603760f91b6064820152608490fd5b600435906001600160a01b038216820361024257565b805180835260209291819084018484015e5f828201840152601f01601f1916010190565b6005111561111b57565b634e487b7160e01b5f52602160045260245ffd5b602081528151602082015260018060a01b03602083015116604082015260018060a01b03604083015116606082015260018060a01b0360608301511660808201526101606101406111a861119260808601518460a08701526101808601906110ed565b60a0860151858203601f190160c08701526110ed565b9360c081015160e085015260e0810151151561010085015261010081015115156101208501526101208101516111dd81611111565b82850152015191015290565b9181601f84011215610242578235916001600160401b038311610242576020838186019501011161024257565b61016081019081106001600160401b03821117610bf657604052565b90601f801991011681019081106001600160401b03821117610bf657604052565b6001600160401b038111610bf657601f01601f191660200190565b92919261127a82611253565b916112886040519384611232565b829481845281830111610242578281602093845f960137010152565b604051906112b182611216565b5f6101408382815282602082015282604082015282606082015260606080820152606060a08201528260c08201528260e082015282610100820152826101208201520152565b90600182811c92168015611325575b602083101461131157565b634e487b7160e01b5f52602260045260245ffd5b91607f1691611306565b9060405191825f825492611342846112f7565b80845293600181169081156113ad5750600114611369575b5061136792500383611232565b565b90505f9291925260205f20905f915b818310611391575050906020611367928201015f61135a565b6020919350806001915483858901015201910190918492611378565b90506020925061136794915060ff191682840152151560051b8201015f61135a565b5190811515820361024257565b156113e357565b60405162461bcd60e51b815260206004820152601f60248201527f4365727469664d616e616765723a2061646d696e20756e697175656d656e74006044820152606490fd5b51906001600160a01b038216820361024257565b81601f820112156102425780519061145382611253565b926114616040519485611232565b8284526020838301011161024257815f9260208093018386015e8301015290565b519060ff8216820361024257565b6020908260405193849283378101600681520301902054801561158e575f52600460205260405f206040516114c481611216565b8154815260018201546001600160a01b039081166020830190815260028401548216604084015260038401549091166060830152926115056004840161132f565b60808301526115166005840161132f565b60a0830152600360068401549360c08401948552610140600860ff6007840154818116151560e08901528181841c16151561010089015260101c169261155b84611111565b836101208801520154940193845261157281611111565b61157b81611111565b149360018060a01b039051169251915190565b505f905f905f905f90565b156115a057565b60405162461bcd60e51b815260206004820152602660248201527f4365727469664d616e616765723a206174746573746174696f6e20696e6578696044820152657374616e746560d01b6064820152608490fd5b156115fb57565b60405162461bcd60e51b815260206004820152602360248201527f4365727469664d616e616765723a2070617320766f74726520756e697665727360448201526269746560e81b6064820152608490fd5b1561165357565b60405162461bcd60e51b815260206004820152601960248201527f4365727469664d616e616765723a2064656a61207369676e65000000000000006044820152606490fd5b60078101805460ff8116806116fb575b6116b157505050565b620300009062ff000019161790558054906001808060a01b0391015416907f5d9dddcf491708b0891580082709f1d4e5c149824b524abb88111fd8958685bc6020604051428152a3565b5060ff8160081c166116a856fea2646970667358221220b9592d09dd38cf35b80ab291d58b6bd5cde767447d93b9df7a338ea69e59ed5564736f6c634300081c0033",
  "linkReferences": {},
  "deployedLinkReferences": {},
  "immutableReferences": {},
  "inputSourceName": "project/contracts/SC6_CertifManager.sol",
  "buildInfoId": "solc-0_8_28-b46f0e05dff82e20e848cee071e572db398628b1"
}