{
  "_format": "hh3-artifact-1",
  "contractName": "ConventionManager",
  "sourceName": "contracts/SC4_ConventionManager.sol",
  "abi": [
    {
      "inputs": [
        {
          "internalType": "address",
          "name": "_userManager",
          "type": "address"
        },
        {
          "internalType": "address",
          "name": "_candidatureManager",
          "type": "address"
        }
      ],
      "stateMutability": "nonpayable",
      "type": "constructor"
    },
    {
      "anonymous": false,
      "inputs": [
        {
          "indexed": true,
          "internalType": "uint256",
          "name": "conventionId",
          "type": "uint256"
        },
        {
          "indexed": false,
          "internalType": "string",
          "name": "hashIPFS",
          "type": "string"
        },
        {
          "indexed": false,
          "internalType": "uint256",
          "name": "date",
          "type": "uint256"
        }
      ],
      "name": "ConventionCreee",
      "type": "event"
    },
    {
      "anonymous": false,
      "inputs": [
        {
          "indexed": true,
          "internalType": "uint256",
          "name": "conventionId",
          "type": "uint256"
        },
        {
          "indexed": false,
          "internalType": "string",
          "name": "hashIPFS",
          "type": "string"
        },
        {
          "indexed": false,
          "internalType": "uint256",
          "name": "date",
          "type": "uint256"
        }
      ],
      "name": "ConventionSigned",
      "type": "event"
    },
    {
      "anonymous": false,
      "inputs": [
        {
          "indexed": true,
          "internalType": "uint256",
          "name": "conventionId",
          "type": "uint256"
        },
        {
          "indexed": true,
          "internalType": "address",
          "name": "signataire",
          "type": "address"
        },
        {
          "indexed": false,
          "internalType": "uint8",
          "name": "signatureIndex",
          "type": "uint8"
        }
      ],
      "name": "SignatureEnregistree",
      "type": "event"
    },
    {
      "anonymous": false,
      "inputs": [
        {
          "indexed": true,
          "internalType": "address",
          "name": "tuteurWallet",
          "type": "address"
        },
        {
          "indexed": true,
          "internalType": "uint256",
          "name": "conventionId",
          "type": "uint256"
        },
        {
          "indexed": false,
          "internalType": "uint256",
          "name": "date",
          "type": "uint256"
        }
      ],
      "name": "TuteurEnregistre",
      "type": "event"
    },
    {
      "inputs": [],
      "name": "admin",
      "outputs": [
        {
          "internalType": "address",
          "name": "",
          "type": "address"
        }
      ],
      "stateMutability": "view",
      "type": "function"
    },
    {
      "inputs": [],
      "name": "candidatureManager",
      "outputs": [
        {
          "internalType": "contract CandidatureManager",
          "name": "",
          "type": "address"
        }
      ],
      "stateMutability": "view",
      "type": "function"
    },
    {
      "inputs": [
        {
          "internalType": "uint256",
          "name": "_id",
          "type": "uint256"
        }
      ],
      "name": "getConvention",
      "outputs": [
        {
          "components": [
            {
              "internalType": "uint256",
              "name": "id",
              "type": "uint256"
            },
            {
              "internalType": "uint256",
              "name": "candidatureId",
              "type": "uint256"
            },
            {
              "internalType": "address",
              "name": "etudiantWallet",
              "type": "address"
            },
            {
              "internalType": "address",
              "name": "rhWallet",
              "type": "address"
            },
            {
              "internalType": "address",
              "name": "tuteurWallet",
              "type": "address"
            },
            {
              "internalType": "address",
              "name": "encadrantWallet",
              "type": "address"
            },
            {
              "internalType": "string",
              "name": "hashIPFS",
              "type": "string"
            },
            {
              "internalType": "bool",
              "name": "signatureEtudiant",
              "type": "bool"
            },
            {
              "internalType": "bool",
              "name": "signatureRH",
              "type": "bool"
            },
            {
              "internalType": "bool",
              "name": "signatureAdmin",
              "type": "bool"
            },
            {
              "internalType": "bool",
              "name": "isActive",
              "type": "bool"
            },
            {
              "internalType": "uint256",
              "name": "createdAt",
              "type": "uint256"
            },
            {
              "internalType": "uint256",
              "name": "activatedAt",
              "type": "uint256"
            }
          ],
          "internalType": "struct ConventionManager.Convention",
          "name": "",
          "type": "tuple"
        }
      ],
      "stateMutability": "view",
      "type": "function"
    },
    {
      "inputs": [
        {
          "internalType": "address",
          "name": "_etudiant",
          "type": "address"
        }
      ],
      "name": "getConventionByEtudiant",
      "outputs": [
        {
          "components": [
            {
              "internalType": "uint256",
              "name": "id",
              "type": "uint256"
            },
            {
              "internalType": "uint256",
              "name": "candidatureId",
              "type": "uint256"
            },
            {
              "internalType": "address",
              "name": "etudiantWallet",
              "type": "address"
            },
            {
              "internalType": "address",
              "name": "rhWallet",
              "type": "address"
            },
            {
              "internalType": "address",
              "name": "tuteurWallet",
              "type": "address"
            },
            {
              "internalType": "address",
              "name": "encadrantWallet",
              "type": "address"
            },
            {
              "internalType": "string",
              "name": "hashIPFS",
              "type": "string"
            },
            {
              "internalType": "bool",
              "name": "signatureEtudiant",
              "type": "bool"
            },
            {
              "internalType": "bool",
              "name": "signatureRH",
              "type": "bool"
            },
            {
              "internalType": "bool",
              "name": "signatureAdmin",
              "type": "bool"
            },
            {
              "internalType": "bool",
              "name": "isActive",
              "type": "bool"
            },
            {
              "internalType": "uint256",
              "name": "createdAt",
              "type": "uint256"
            },
            {
              "internalType": "uint256",
              "name": "activatedAt",
              "type": "uint256"
            }
          ],
          "internalType": "struct ConventionManager.Convention",
          "name": "",
          "type": "tuple"
        }
      ],
      "stateMutability": "view",
      "type": "function"
    },
    {
      "inputs": [
        {
          "internalType": "address",
          "name": "_etudiant",
          "type": "address"
        }
      ],
      "name": "getEncadrant",
      "outputs": [
        {
          "internalType": "address",
          "name": "",
          "type": "address"
        }
      ],
      "stateMutability": "view",
      "type": "function"
    },
    {
      "inputs": [
        {
          "internalType": "address",
          "name": "_etudiant",
          "type": "address"
        }
      ],
      "name": "getTuteur",
      "outputs": [
        {
          "internalType": "address",
          "name": "",
          "type": "address"
        }
      ],
      "stateMutability": "view",
      "type": "function"
    },
    {
      "inputs": [
        {
          "internalType": "address",
          "name": "_wallet",
          "type": "address"
        }
      ],
      "name": "getTuteurProfil",
      "outputs": [
        {
          "components": [
            {
              "internalType": "address",
              "name": "wallet",
              "type": "address"
            },
            {
              "internalType": "string",
              "name": "nom",
              "type": "string"
            },
            {
              "internalType": "string",
              "name": "prenom",
              "type": "string"
            },
            {
              "internalType": "string",
              "name": "poste",
              "type": "string"
            },
            {
              "internalType": "bool",
              "name": "enregistre",
              "type": "bool"
            }
          ],
          "internalType": "struct ConventionManager.Tuteur",
          "name": "",
          "type": "tuple"
        }
      ],
      "stateMutability": "view",
      "type": "function"
    },
    {
      "inputs": [
        {
          "internalType": "address",
          "name": "_etudiant",
          "type": "address"
        }
      ],
      "name": "isConventionActive",
      "outputs": [
        {
          "internalType": "bool",
          "name": "",
          "type": "bool"
        }
      ],
      "stateMutability": "view",
      "type": "function"
    },
    {
      "inputs": [
        {
          "internalType": "address",
          "name": "_etudiantWallet",
          "type": "address"
        },
        {
          "internalType": "uint256",
          "name": "_offreId",
          "type": "uint256"
        },
        {
          "internalType": "address",
          "name": "_tuteurWallet",
          "type": "address"
        },
        {
          "internalType": "string",
          "name": "_tuteurNom",
          "type": "string"
        },
        {
          "internalType": "string",
          "name": "_tuteurPrenom",
          "type": "string"
        },
        {
          "internalType": "string",
          "name": "_tuteurPoste",
          "type": "string"
        },
        {
          "internalType": "address",
          "name": "_encadrantWallet",
          "type": "address"
        },
        {
          "internalType": "address",
          "name": "_rhWallet",
          "type": "address"
        },
        {
          "internalType": "string",
          "name": "_hashIPFS",
          "type": "string"
        }
      ],
      "name": "registerTuteurEtCreerConvention",
      "outputs": [],
      "stateMutability": "nonpayable",
      "type": "function"
    },
    {
      "inputs": [
        {
          "internalType": "uint256",
          "name": "_conventionId",
          "type": "uint256"
        }
      ],
      "name": "signerConvention",
      "outputs": [],
      "stateMutability": "nonpayable",
      "type": "function"
    },
    {
      "inputs": [],
      "name": "userManager",
      "outputs": [
        {
          "internalType": "contract UserManager",
          "name": "",
          "type": "address"
        }
      ],
      "stateMutability": "view",
      "type": "function"
    }
  ],
  "bytecode": "0x608034609957601f61186838819003918201601f19168301916001600160401b03831184841017609d578084926040948552833981010312609957604b602060458360b1565b920160b1565b600160038190555f80546001600160a01b03199081166001600160a01b039586161790915581548116939092169290921790915560028054909116331790556040516117a390816100c58239f35b5f80fd5b634e487b7160e01b5f52604160045260245ffd5b51906001600160a01b038216820360995756fe6080806040526004361015610012575f80fd5b5f3560e01c90816321d6b6a81461130457508063228d0ce514610f9157806327ef88a614610ed15780635c8a768714610eaa5780635e8fa41f14610e82578063726067571461044957806373ea94d31461034557806382af8c70146102c75780638dbe93da14610249578063c5b56484146100c15763f851a44014610095575f80fd5b346100bd575f3660031901126100bd576002546040516001600160a01b039091168152602090f35b5f80fd5b346100bd5760203660031901126100bd576100da611361565b5f60806040516100e98161158c565b8281526060602082015260606040820152606080820152015260018060a01b0316805f52600660205260ff600460405f20015416156101fa575f52600660205260405f206040516101398161158c565b81546001600160a01b0316815261015260018301611628565b91602082019283526101ed61016960028301611628565b91604084019283526101da60ff600461018460038501611628565b9360608801948552015416936080860194151585526101c76040519788976020895260018060a01b0390511660208901525160a0604089015260c0880190611377565b9051868203601f19016060880152611377565b9051848203601f19016080860152611377565b9051151560a08301520390f35b60405162461bcd60e51b815260206004820152602160248201527f436f6e76656e74696f6e4d616e616765723a2074757465757220696e636f6e6e6044820152607560f81b6064820152608490fd5b346100bd5760203660031901126100bd576001600160a01b0361026a611361565b165f52600760205260405f2054801515806102aa575b6102899061170d565b5f526004602052602060018060a01b03600460405f20015416604051908152f35b505f8181526004602052604090206007015460181c60ff16610280565b346100bd5760203660031901126100bd576001600160a01b036102e8611361565b165f52600760205260405f205480151580610328575b6103079061170d565b5f526004602052602060018060a01b03600560405f20015416604051908152f35b505f8181526004602052604090206007015460181c60ff166102fe565b346100bd5760203660031901126100bd576004356103616115c8565b50805f52600460205261037960405f2054151561148e565b5f52600460205261044560405f2060096040519161039683611570565b805483526001810154602084015260028101546001600160a01b03908116604085015260038201548116606085015260048201548116608085015260058201541660a08401526103e860068201611628565b60c084015260ff6007820154818116151560e0860152818160081c161515610100860152818160101c16151561012086015260181c161515610140840152600881015461016084015201546101808201526040519182918261139b565b0390f35b346100bd576101203660031901126100bd57610463611361565b6044356001600160a01b03811681036100bd576064356001600160401b0381116100bd57610495903690600401611461565b6084939193356001600160401b0381116100bd576104b7903690600401611461565b93909260a4356001600160401b0381116100bd576104d9903690600401611461565b95909360c4356001600160a01b03811692908390036100bd5760e4356001600160a01b03811698908990036100bd57610104356001600160401b0381116100bd57610528903690600401611461565b60025490999198906001600160a01b03163303610e315760015460405163d3a8b7df60e01b81526001600160a01b0389811660048301526024803590830152909d916020918f916044918391165afa9c8d15610df2575f9d610dfd575b505f5460405163dc35a8ed60e01b8152600481018990526002602482015290602090829060449082906001600160a01b03165afa908115610df2575f91610db7575b5015610d6457610616926105f861060792604051986105e58a61158c565b6001600160a01b038d168a5236916116c8565b956020880196875236916116c8565b926040860193845236916116c8565b606084019081526001608085018181526001600160a01b038981165f908152600660205260409020965187546001600160a01b03191691161786559351805192939291860191906001600160401b038211610b055781906106778454611538565b601f8111610d14575b50602090601f8311600114610cb1575f92610ca6575b50508160011b915f199060031b1c19161790555b51805160028501916001600160401b038211610b055781906106cc8454611538565b601f8111610c56575b50602090601f8311600114610bf3575f92610be8575b50508160011b915f199060031b1c19161790555b51805160038401916001600160401b038211610b055761071f8354611538565b601f8111610ba3575b50602090601f8311600114610b38579180600494926107749796945f92610b2d575b50508160011b915f199060031b1c19161790555b51151591019060ff801983541691151516179055565b600354955f198714610b1957600187016003556040519761079489611570565b87895260208901526001600160a01b0383811660408a0190815260608a0192835290851660808a0190815260a08a019384529092906107d43689896116c8565b60c08b019081525f60e08c018190526101008c018190526101208c018190526101408c01819052426101608d01526101808c018190528a81526004602081815260409092208d518155918d0151600183015595516002820180546001600160a01b03199081166001600160a01b0393841617909155955160038301805488169183169190911790559251958101805486169684169690961790955591516005850180549094169116179091555180519097906001600160401b038111610b05576108a16006840154611538565b98601f8a11610abd575b8899505f9896979850602090601f8311600114610a20576060979593837f04bf2832ae377e32c5e0a2a5c546e4d114aa5eda198cb6c901fc4469bd224d9c9b9a989694600994610180945f92610a15575b50508160011b915f199060031b1c19161760068501555b6007840161093360e08301511515829060ff801983541691151516179055565b610100820151815461012084015161014085015163ffffff0019909216921515600890811b61ff00169390931790151560101b62ff0000161790151560181b63ff00000016179091556101608201519085015501519101556001600160a01b039081165f90815260076020908152604080832086905593909216808252600583529083902084905591514281527fc1c8968fd8aefac10e5477009f01b19e5d06292aaad5b5fe2255e820ab0df5699190a38260405193849260408452816040850152848401375f828201840152426020830152601f01601f19168101030190a2005b015190508e806108fc565b90600685015f52805f20915f5b601f1985168110610aa25750936001846009946101809460609c9a987f04bf2832ae377e32c5e0a2a5c546e4d114aa5eda198cb6c901fc4469bd224d9c9f9e9c9a98601f19811610610a8a575b505050811b016006850155610913565b01515f1960f88460031b161c191690558e8080610a7a565b8183015184558c995060019093019260209283019201610a2d565b600684015f5260205f20601f830160051c81019a60208410610afb575b601f0160051c01995b8a8110610af057506108ab565b5f8155600101610ae3565b909a508a90610ada565b634e487b7160e01b5f52604160045260245ffd5b634e487b7160e01b5f52601160045260245ffd5b015190508e8061074a565b90601f19831691845f52815f20925f5b818110610b8b57509260019285926107749998966004989610610b73575b505050811b01905561075e565b01515f1960f88460031b161c191690558e8080610b66565b92936020600181928786015181550195019301610b48565b835f5260205f20601f840160051c81019160208510610bde575b601f0160051c01905b818110610bd35750610728565b5f8155600101610bc6565b9091508190610bbd565b015190508d806106eb565b5f8581528281209350601f198516905b818110610c3e5750908460019594939210610c26575b505050811b0190556106ff565b01515f1960f88460031b161c191690558d8080610c19565b92936020600181928786015181550195019301610c03565b909150835f5260205f20601f840160051c81019160208510610c9c575b90601f859493920160051c01905b818110610c8e57506106d5565b5f8155849350600101610c81565b9091508190610c73565b015190508e80610696565b5f8581528281209350601f198516905b818110610cfc5750908460019594939210610ce4575b505050811b0190556106aa565b01515f1960f88460031b161c191690558e8080610cd7565b92936020600181928786015181550195019301610cc1565b909150835f5260205f20601f840160051c81019160208510610d5a575b90601f859493920160051c01905b818110610d4c5750610680565b5f8155849350600101610d3f565b9091508190610d31565b60405162461bcd60e51b815260206004820152602560248201527f436f6e76656e74696f6e4d616e616765723a20656e63616472616e7420696e76604482015264616c69646560d81b6064820152608490fd5b90506020813d602011610dea575b81610dd2602093836115a7565b810103126100bd575180151581036100bd578e6105c7565b3d9150610dc5565b6040513d5f823e3d90fd5b909c506020813d602011610e29575b81610e19602093836115a7565b810103126100bd57519b8d610585565b3d9150610e0c565b60405162461bcd60e51b815260206004820152602360248201527f436f6e76656e74696f6e4d616e616765723a2061646d696e20756e697175656d604482015262195b9d60ea1b6064820152608490fd5b346100bd575f3660031901126100bd576001546040516001600160a01b039091168152602090f35b346100bd575f3660031901126100bd575f546040516001600160a01b039091168152602090f35b346100bd5760203660031901126100bd57610eea611361565b610ef26115c8565b506001600160a01b03165f908152600760205260409020548015610f2d575f52600460205261044560405f2060096040519161039683611570565b60405162461bcd60e51b815260206004820152603660248201527f436f6e76656e74696f6e4d616e616765723a20617563756e6520636f6e76656e6044820152751d1a5bdb881c1bdd5c8818d95d08195d1d591a585b9d60521b6064820152608490fd5b346100bd5760203660031901126100bd57600435805f526004602052610fbc60405f2054151561148e565b805f52600460205260405f206007810190815460ff8160181c166112ad576002820154336001600160a01b039091160361118957506001825461100260ff8216156114ec565b60ff191617825560405160018152837f9d59483f5f593f8ca0d617630f6ab02c733757e276f7dfe8bdb3239d4baee44f60203393a35b81549160ff83168061117c575b8061116f575b61105157005b630100000060069363ff00000019161790554260098201550160405190604082525f9080549061108082611538565b918260408601526001811690815f1461112c57506001146110cd575b505090807f1eeb3959d413b1db308c9de0caff591307f6b20ddc17772ddf9226bc907694e6924260208301520390a2005b5f90815260208120939250905b80821061111157509091508101606001817f1eeb3959d413b1db308c9de0caff591307f6b20ddc17772ddf9226bc907694e661109c565b919260018160209254606085880101520191019092916110da565b859450606092507f1eeb3959d413b1db308c9de0caff591307f6b20ddc17772ddf9226bc907694e69593915060ff191682840152151560051b820101919261109c565b5060ff8360101c1661104b565b5060ff8360081c16611045565b6003820154336001600160a01b03909116036111f0575061010082546111b560ff8260081c16156114ec565b61ff00191617825560405160028152837f9d59483f5f593f8ca0d617630f6ab02c733757e276f7dfe8bdb3239d4baee44f60203393a3611038565b600254336001600160a01b0390911603611255578061121960ff620100009360101c16156114ec565b62ff0000191617825560405160038152837f9d59483f5f593f8ca0d617630f6ab02c733757e276f7dfe8bdb3239d4baee44f60203393a3611038565b60405162461bcd60e51b815260206004820152602a60248201527f436f6e76656e74696f6e4d616e616765723a207369676e617461697265206e6f6044820152696e206175746f7269736560b01b6064820152608490fd5b60405162461bcd60e51b815260206004820152602960248201527f436f6e76656e74696f6e4d616e616765723a20636f6e76656e74696f6e2064656044820152686a612061637469766560b81b6064820152608490fd5b346100bd5760203660031901126100bd576020906001600160a01b03611328611361565b165f526007825260405f20548015159081611345575b5015158152f35b90505f526004825260ff600760405f20015460181c168361133e565b600435906001600160a01b03821682036100bd57565b805180835260209291819084018484015e5f828201840152601f01601f1916010190565b60208152815160208201526020820151604082015260018060a01b03604083015116606082015260018060a01b03606083015116608082015260018060a01b0360808301511660a082015260018060a01b0360a08301511660c08201526101a061018061141760c08501518360e08601526101c0850190611377565b9360e0810151151561010085015261010081015115156101208501526101208101511515610140850152610140810151151561016085015261016081015182850152015191015290565b9181601f840112156100bd578235916001600160401b0383116100bd57602083818601950101116100bd57565b1561149557565b60405162461bcd60e51b815260206004820152602960248201527f436f6e76656e74696f6e4d616e616765723a20636f6e76656e74696f6e20696e6044820152686578697374616e746560b81b6064820152608490fd5b156114f357565b60405162461bcd60e51b815260206004820152601d60248201527f436f6e76656e74696f6e4d616e616765723a2064656a61207369676e650000006044820152606490fd5b90600182811c92168015611566575b602083101461155257565b634e487b7160e01b5f52602260045260245ffd5b91607f1691611547565b6101a081019081106001600160401b03821117610b0557604052565b60a081019081106001600160401b03821117610b0557604052565b90601f801991011681019081106001600160401b03821117610b0557604052565b604051906115d582611570565b5f610180838281528260208201528260408201528260608201528260808201528260a0820152606060c08201528260e0820152826101008201528261012082015282610140820152826101608201520152565b9060405191825f82549261163b84611538565b80845293600181169081156116a65750600114611662575b50611660925003836115a7565b565b90505f9291925260205f20905f915b81831061168a575050906020611660928201015f611653565b6020919350806001915483858901015201910190918492611671565b90506020925061166094915060ff191682840152151560051b8201015f611653565b9291926001600160401b038211610b0557604051916116f1601f8201601f1916602001846115a7565b8294818452818301116100bd578281602093845f960137010152565b1561171457565b60405162461bcd60e51b815260206004820152602b60248201527f436f6e76656e74696f6e4d616e616765723a20617563756e6520636f6e76656e60448201526a74696f6e2061637469766560a81b6064820152608490fdfea2646970667358221220c5cfcbf22171e622744bcbb4f2e3f04bff3af1258e3d1103f037bb667d1d1c6e64736f6c634300081c0033",
  "linkReferences": {},
  "deployedLinkReferences": {},
  "immutableReferences": {},
  "inputSourceName": "project/contracts/SC4_ConventionManager.sol",
  "buildInfoId": "solc-0_8_28-0d1ea19a18def96aac7638c05b32655bb9e07c27"
}