{
  "_format": "hh3-artifact-1",
  "contractName": "ConventionManager",
  "sourceName": "contracts/SC3_ConventionManager.sol",
  "abi": [
    {
      "inputs": [
        {
          "internalType": "address",
          "name": "_accountManager",
          "type": "address"
        },
        {
          "internalType": "address",
          "name": "_offreManager",
          "type": "address"
        }
      ],
      "stateMutability": "nonpayable",
      "type": "constructor"
    },
    {
      "anonymous": false,
      "inputs": [
        {
          "indexed": true,
          "internalType": "uint256",
          "name": "conventionId",
          "type": "uint256"
        },
        {
          "indexed": false,
          "internalType": "uint256",
          "name": "date",
          "type": "uint256"
        }
      ],
      "name": "ConventionComplete",
      "type": "event"
    },
    {
      "anonymous": false,
      "inputs": [
        {
          "indexed": true,
          "internalType": "uint256",
          "name": "conventionId",
          "type": "uint256"
        },
        {
          "indexed": true,
          "internalType": "uint256",
          "name": "candidatureId",
          "type": "uint256"
        },
        {
          "indexed": false,
          "internalType": "uint256",
          "name": "date",
          "type": "uint256"
        }
      ],
      "name": "ConventionGeneree",
      "type": "event"
    },
    {
      "anonymous": false,
      "inputs": [
        {
          "indexed": true,
          "internalType": "uint256",
          "name": "conventionId",
          "type": "uint256"
        },
        {
          "indexed": true,
          "internalType": "address",
          "name": "signataire",
          "type": "address"
        },
        {
          "indexed": false,
          "internalType": "uint256",
          "name": "date",
          "type": "uint256"
        }
      ],
      "name": "ConventionSignee",
      "type": "event"
    },
    {
      "anonymous": false,
      "inputs": [
        {
          "indexed": true,
          "internalType": "uint256",
          "name": "conventionId",
          "type": "uint256"
        },
        {
          "indexed": true,
          "internalType": "address",
          "name": "encadrant",
          "type": "address"
        },
        {
          "indexed": true,
          "internalType": "address",
          "name": "etudiant",
          "type": "address"
        },
        {
          "indexed": false,
          "internalType": "uint256",
          "name": "date",
          "type": "uint256"
        }
      ],
      "name": "EncadrantAffecte",
      "type": "event"
    },
    {
      "inputs": [],
      "name": "accountManager",
      "outputs": [
        {
          "internalType": "contract AccountManager",
          "name": "",
          "type": "address"
        }
      ],
      "stateMutability": "view",
      "type": "function"
    },
    {
      "inputs": [
        {
          "internalType": "uint256",
          "name": "_conventionId",
          "type": "uint256"
        },
        {
          "internalType": "address",
          "name": "_encadrant",
          "type": "address"
        }
      ],
      "name": "affecterEncadrant",
      "outputs": [],
      "stateMutability": "nonpayable",
      "type": "function"
    },
    {
      "inputs": [
        {
          "internalType": "uint256",
          "name": "",
          "type": "uint256"
        }
      ],
      "name": "conventionParCandidature",
      "outputs": [
        {
          "internalType": "uint256",
          "name": "",
          "type": "uint256"
        }
      ],
      "stateMutability": "view",
      "type": "function"
    },
    {
      "inputs": [
        {
          "internalType": "address",
          "name": "",
          "type": "address"
        }
      ],
      "name": "conventionParEtudiant",
      "outputs": [
        {
          "internalType": "uint256",
          "name": "",
          "type": "uint256"
        }
      ],
      "stateMutability": "view",
      "type": "function"
    },
    {
      "inputs": [
        {
          "internalType": "uint256",
          "name": "_candidatureId",
          "type": "uint256"
        },
        {
          "internalType": "string",
          "name": "_cidConvention",
          "type": "string"
        }
      ],
      "name": "genererConvention",
      "outputs": [],
      "stateMutability": "nonpayable",
      "type": "function"
    },
    {
      "inputs": [
        {
          "internalType": "uint256",
          "name": "_conventionId",
          "type": "uint256"
        }
      ],
      "name": "getConvention",
      "outputs": [
        {
          "components": [
            {
              "internalType": "uint256",
              "name": "id",
              "type": "uint256"
            },
            {
              "internalType": "uint256",
              "name": "candidatureId",
              "type": "uint256"
            },
            {
              "internalType": "address",
              "name": "etudiant",
              "type": "address"
            },
            {
              "internalType": "address",
              "name": "rh",
              "type": "address"
            },
            {
              "internalType": "address",
              "name": "admin",
              "type": "address"
            },
            {
              "internalType": "address",
              "name": "encadrant",
              "type": "address"
            },
            {
              "internalType": "string",
              "name": "cidConvention",
              "type": "string"
            },
            {
              "internalType": "bool",
              "name": "signEtudiant",
              "type": "bool"
            },
            {
              "internalType": "bool",
              "name": "signRH",
              "type": "bool"
            },
            {
              "internalType": "bool",
              "name": "signAdmin",
              "type": "bool"
            },
            {
              "internalType": "enum ConventionManager.StatutConvention",
              "name": "statut",
              "type": "uint8"
            },
            {
              "internalType": "uint256",
              "name": "createdAt",
              "type": "uint256"
            },
            {
              "internalType": "uint256",
              "name": "affectationAt",
              "type": "uint256"
            }
          ],
          "internalType": "struct ConventionManager.Convention",
          "name": "",
          "type": "tuple"
        }
      ],
      "stateMutability": "view",
      "type": "function"
    },
    {
      "inputs": [
        {
          "internalType": "address",
          "name": "_etudiant",
          "type": "address"
        }
      ],
      "name": "getConventionByEtudiant",
      "outputs": [
        {
          "components": [
            {
              "internalType": "uint256",
              "name": "id",
              "type": "uint256"
            },
            {
              "internalType": "uint256",
              "name": "candidatureId",
              "type": "uint256"
            },
            {
              "internalType": "address",
              "name": "etudiant",
              "type": "address"
            },
            {
              "internalType": "address",
              "name": "rh",
              "type": "address"
            },
            {
              "internalType": "address",
              "name": "admin",
              "type": "address"
            },
            {
              "internalType": "address",
              "name": "encadrant",
              "type": "address"
            },
            {
              "internalType": "string",
              "name": "cidConvention",
              "type": "string"
            },
            {
              "internalType": "bool",
              "name": "signEtudiant",
              "type": "bool"
            },
            {
              "internalType": "bool",
              "name": "signRH",
              "type": "bool"
            },
            {
              "internalType": "bool",
              "name": "signAdmin",
              "type": "bool"
            },
            {
              "internalType": "enum ConventionManager.StatutConvention",
              "name": "statut",
              "type": "uint8"
            },
            {
              "internalType": "uint256",
              "name": "createdAt",
              "type": "uint256"
            },
            {
              "internalType": "uint256",
              "name": "affectationAt",
              "type": "uint256"
            }
          ],
          "internalType": "struct ConventionManager.Convention",
          "name": "",
          "type": "tuple"
        }
      ],
      "stateMutability": "view",
      "type": "function"
    },
    {
      "inputs": [
        {
          "internalType": "address",
          "name": "_encadrant",
          "type": "address"
        }
      ],
      "name": "getConventionsByEncadrant",
      "outputs": [
        {
          "internalType": "uint256[]",
          "name": "",
          "type": "uint256[]"
        }
      ],
      "stateMutability": "view",
      "type": "function"
    },
    {
      "inputs": [
        {
          "internalType": "address",
          "name": "_etudiant",
          "type": "address"
        }
      ],
      "name": "getEncadrantByEtudiant",
      "outputs": [
        {
          "internalType": "address",
          "name": "",
          "type": "address"
        }
      ],
      "stateMutability": "view",
      "type": "function"
    },
    {
      "inputs": [
        {
          "internalType": "address",
          "name": "_encadrant",
          "type": "address"
        }
      ],
      "name": "getEtudiantsByEncadrant",
      "outputs": [
        {
          "internalType": "address[]",
          "name": "",
          "type": "address[]"
        }
      ],
      "stateMutability": "view",
      "type": "function"
    },
    {
      "inputs": [
        {
          "internalType": "uint256",
          "name": "_conventionId",
          "type": "uint256"
        }
      ],
      "name": "isConventionComplete",
      "outputs": [
        {
          "internalType": "bool",
          "name": "",
          "type": "bool"
        }
      ],
      "stateMutability": "view",
      "type": "function"
    },
    {
      "inputs": [],
      "name": "offreManager",
      "outputs": [
        {
          "internalType": "contract OffreManager",
          "name": "",
          "type": "address"
        }
      ],
      "stateMutability": "view",
      "type": "function"
    },
    {
      "inputs": [
        {
          "internalType": "uint256",
          "name": "_conventionId",
          "type": "uint256"
        }
      ],
      "name": "signerParAdmin",
      "outputs": [],
      "stateMutability": "nonpayable",
      "type": "function"
    },
    {
      "inputs": [
        {
          "internalType": "uint256",
          "name": "_conventionId",
          "type": "uint256"
        }
      ],
      "name": "signerParEtudiant",
      "outputs": [],
      "stateMutability": "nonpayable",
      "type": "function"
    },
    {
      "inputs": [
        {
          "internalType": "uint256",
          "name": "_conventionId",
          "type": "uint256"
        }
      ],
      "name": "signerParRH",
      "outputs": [],
      "stateMutability": "nonpayable",
      "type": "function"
    }
  ],
  "bytecode": "0x608034608557601f611bdf38819003918201601f19168301916001600160401b038311848410176089578084926040948552833981010312608557604b6020604583609d565b9201609d565b5f80546001600160a01b039384166001600160a01b03199182161790915560018054929093169116179055604051611b2e90816100b18239f35b5f80fd5b634e487b7160e01b5f52604160045260245ffd5b51906001600160a01b038216820360855756fe6080806040526004361015610012575f80fd5b5f3560e01c908163023a90e3146113fb575080630dc918ab146113d157806327ef88a6146112b0578063397feed71461117c57806350beb76314610ac957806373ea94d3146108e85780637c3f9c94146108a9578063833903351461087157806391c2c4691461084a57806392dc8f6414610743578063aacd9d61146106c4578063b4b0d28514610610578063beb6302314610593578063d2c66cfb146102045763ec7532b6146100c1575f80fd5b346101ed5760203660031901126101ed576004356044602060018060a01b035f54166040519283809263dc35a8ed60e01b8252336004830152600360248301525afa80156101f9575f906101ba575b61011a9150611687565b805f52600360205261018b60405f20610135815415156118c3565b61014c60018060a01b036003830154163314611a26565b60078101610100815461016560ff8260081c161561197d565b600584015461017e906001600160a01b031615156119c9565b61ff001916179055611a82565b604051904282527fe76fc49c4a917b62fdf4699968fd5498bd2f42a9b8ee0c205e1573906193615a60203393a3005b506020813d6020116101f1575b816101d46020938361153e565b810103126101ed576101e861011a9161167a565b610110565b5f80fd5b3d91506101c7565b6040513d5f823e3d90fd5b346101ed5760403660031901126101ed576004356024356001600160a01b038116908190036101ed5760018060a01b035f541660405163dc35a8ed60e01b815233600482015260046024820152602081604481855afa80156101f9575f90610558575b610271915061186b565b825f52600360205260405f209061028a825415156118c3565b60048201546102a3906001600160a01b03163314611921565b600460ff600784015460181c166102b981611434565b146104ff5760405163dc35a8ed60e01b81526004810184905260026024820152602081604481855afa9081156101f9575f916104c5575b5015610470575f60249160405192838092636f77926b60e01b82528760048301525afa9081156101f9575f9161044e575b5060c00151336001600160a01b03909116036103eb576005810180546001600160a01b031916831790554260098201555f8281526006602052604090208054680100000000000000008110156103d757600181018083558110156103c35784915f5260205f200155600260018060a01b0391015416917fbdf5c41ecce4b5921b4f61e20d3b45a8e22e230144a4b2d7bac14fb2dc2e1eff6020604051428152a4005b634e487b7160e01b5f52603260045260245ffd5b634e487b7160e01b5f52604160045260245ffd5b60405162461bcd60e51b815260206004820152603560248201527f436f6e76656e74696f6e4d616e616765723a20656e63616472616e7420686f726044820152747320646520766f74726520756e697665727369746560581b6064820152608490fd5b61046a91503d805f833e610462818361153e565b810190611747565b84610321565b60405162461bcd60e51b815260206004820152602760248201527f436f6e76656e74696f6e4d616e616765723a2077616c6c6574206e6f6e20656e60448201526618d8591c985b9d60ca1b6064820152608490fd5b90506020813d6020116104f7575b816104e06020938361153e565b810103126101ed576104f19061167a565b856102f0565b3d91506104d3565b60405162461bcd60e51b815260206004820152602b60248201527f436f6e76656e74696f6e4d616e616765723a20636f6e76656e74696f6e20646560448201526a6a6120636f6d706c65746560a81b6064820152608490fd5b506020813d60201161058b575b816105726020938361153e565b810103126101ed576105866102719161167a565b610267565b3d9150610565565b346101ed5760203660031901126101ed57600435805f52600360205261018b60405f206105c2815415156118c3565b6105d960018060a01b036002830154163314611a26565b60078101600181546105ee60ff82161561197d565b610604828060a01b0360058601541615156119c9565b60ff1916179055611a82565b346101ed5760203660031901126101ed576001600160a01b0361063161141e565b165f52600660205260405f20604051806020835491828152019081935f5260205f20905f5b8181106106ae575050508161066c91038261153e565b604051918291602083019060208452518091526040830191905f5b818110610695575050500390f35b8251845285945060209384019390920191600101610687565b8254845260209093019260019283019201610656565b346101ed5760203660031901126101ed576001600160a01b036106e561141e565b165f52600560205260405f20546106fd8115156115bf565b5f81815260036020526040902060050154610722906001600160a01b031615156119c9565b5f526003602052602060018060a01b03600560405f20015416604051908152f35b346101ed5760203660031901126101ed576004356044602060018060a01b035f54166040519283809263dc35a8ed60e01b8252336004830152600460248301525afa80156101f9575f9061080f575b61079c915061186b565b805f52600360205261018b60405f206107b7815415156118c3565b6107ce60018060a01b036004830154163314611921565b600781016201000081546107e860ff8260101c161561197d565b6005840154610801906001600160a01b031615156119c9565b62ff00001916179055611a82565b506020813d602011610842575b816108296020938361153e565b810103126101ed5761083d61079c9161167a565b610792565b3d915061081c565b346101ed575f3660031901126101ed575f546040516001600160a01b039091168152602090f35b346101ed5760203660031901126101ed576001600160a01b0361089261141e565b165f526005602052602060405f2054604051908152f35b346101ed5760203660031901126101ed576004355f526003602052602060ff600760405f20015460181c166108dd81611434565b600460405191148152f35b346101ed5760203660031901126101ed5760043561090461155f565b50805f52600360205260405f205415610a84575f52600360205260405f2060405161092e81611522565b815481526001820154602082015260028201546001600160a01b03908116604080840191909152600384015482166060840152600484015482166080840152600584015490911660a0830152516006830180545f9161098c82611617565b8085529160018116908115610a5d5750600114610a20575b610a1c85600988876109b88189038261153e565b60c084015260ff6007820154818116151560e0860152818160081c161515610100860152818160101c16151561012086015260181c166109f781611434565b610140840152600881015461016084015201546101808201526040519182918261143e565b0390f35b5f908152602081209092505b818310610a435750508101602001816109b86109a4565b600181602092949394548385880101520191019190610a2c565b60ff191660208087019190915292151560051b850190920192508391506109b890506109a4565b60405162461bcd60e51b815260206004820152601e60248201527f436f6e76656e74696f6e4d616e616765723a20696e6578697374616e746500006044820152606490fd5b346101ed5760403660031901126101ed576024356004356001600160401b0382116101ed57366023830112156101ed5781600401356001600160401b0381116101ed5736602482850101116101ed575f5460405163dc35a8ed60e01b8152336004820152600360248201526001600160a01b039091169190602081604481865afa80156101f9575f90611141575b610b619150611687565b60015460405163dfa990bb60e01b815260048101859052905f90829060249082906001600160a01b03165afa9081156101f9575f9161105f575b5060a0810151600381101561104b575f1901610ff257835f52600460205260405f2054610f9a578115610f5557604001915f60018060a01b03845116602460405180948193636f77926b60e01b835260048301525afa9081156101f9575f91610f3b575b5060c001516002546001600160a01b03909116905f198114610f27576001016002819055835160405193919291906001600160a01b0316610c3f85611522565b83855260208501928784526040860191825260608601903382526080870190815260a08701935f855280610c72816116e6565b9b6040519c610c81908e61153e565b818d5260240160208d01375f6020918c01820181905260c089019b8c5260e089018181526101008a018281526101208b018381526101408c01848152426101608e019081526101808e018681529c865260039687905260409095209c518d55995160018d0155965160028c0180546001600160a01b03199081166001600160a01b03938416179091559651948c018054881695821695909517909455935160048b0180548716918516919091179055955160058a018054909516921691909117909255985180519099919492919060068801906001600160401b0381116103d757610d6c8254611617565b601f8111610ee2575b506020601f8211600114610e7657819060099a9b9c9d5f92610e6b575b50508160011b915f199060031b1c19161790555b92516007880180549451925162ff000090151560101b1661ff0093151560081b9390931691151560ff1662ffffff19909516949094171717825551610dea81611434565b610df381611434565b63ff00000082549160181b169063ff00000019161790555160088401555191015560025490825f5260046020528160405f205560018060a01b039051165f52600560205260405f20556002547f61a99347af8f0d8052ba4364dbfb41615e4646c78df744f09a0555e3895386bd6020604051428152a3005b015190508d80610d92565b601f1982169c835f52815f209d5f5b818110610ec557509160099b9c9d9e91846001959410610ead575b505050811b019055610da6565b01515f1960f88460031b161c191690558d8080610ea0565b919e8f60016020928684930151815501940192019e91929e610e85565b825f5260205f20601f830160051c81019160208410610f1d575b601f0160051c01905b818110610f125750610d75565b5f8155600101610f05565b9091508190610efc565b634e487b7160e01b5f52601160045260245ffd5b610f4f91503d805f833e610462818361153e565b85610bff565b60405162461bcd60e51b815260206004820152601d60248201527f436f6e76656e74696f6e4d616e616765723a20434944207265717569730000006044820152606490fd5b60405162461bcd60e51b815260206004820152602a60248201527f436f6e76656e74696f6e4d616e616765723a20636f6e76656e74696f6e2064656044820152696a612067656e6572656560b01b6064820152608490fd5b60405162461bcd60e51b815260206004820152602b60248201527f436f6e76656e74696f6e4d616e616765723a2063616e6469646174757265206e60448201526a6f6e20616363657074656560a81b6064820152608490fd5b634e487b7160e01b5f52602160045260245ffd5b90503d805f833e611070818361153e565b8101906020818303126101ed578051906001600160401b0382116101ed570160e0818303126101ed576040519160e083018381106001600160401b038211176103d75760405281518352602082015160208401526110d0604083016116d2565b604084015260608201516001600160401b0381116101ed57816110f4918401611701565b60608401526080820151906001600160401b0382116101ed57611118918301611701565b608083015260a08101519060038210156101ed5760c09160a0840152015160c082015285610b9b565b506020813d602011611174575b8161115b6020938361153e565b810103126101ed5761116f610b619161167a565b610b57565b3d915061114e565b346101ed5760203660031901126101ed576001600160a01b0361119d61141e565b165f52600660205260405f20604051808260208294549384815201905f5260205f20925f5b8181106112975750506111d79250038261153e565b8051906111fc6111e68361164f565b926111f4604051948561153e565b80845261164f565b602083019190601f19013683375f5b8151811015611249578061122160019284611666565b515f526003602052818060a01b03600260405f200154166112428287611666565b520161120b565b505090604051918291602083019060208452518091526040830191905f5b818110611275575050500390f35b82516001600160a01b0316845285945060209384019390920191600101611267565b84548352600194850194869450602090930192016111c2565b346101ed5760203660031901126101ed576112c961141e565b6112d161155f565b506001600160a01b03165f908152600560205260409020546112f48115156115bf565b5f52600360205260405f2060405161130b81611522565b815481526001820154602082015260028201546001600160a01b03908116604080840191909152600384015482166060840152600484015482166080840152600584015490911660a0830152516006830180545f9161136982611617565b8085529160018116908115610a5d575060011461139457610a1c85600988876109b88189038261153e565b5f908152602081209092505b8183106113b75750508101602001816109b86109a4565b6001816020929493945483858801015201910191906113a0565b346101ed5760203660031901126101ed576004355f526004602052602060405f2054604051908152f35b346101ed575f3660031901126101ed576001546001600160a01b03168152602090f35b600435906001600160a01b03821682036101ed57565b6005111561104b57565b60206101806101e09382845280518385015282810151604085015260018060a01b03604082015116606085015260018060a01b03606082015116608085015260018060a01b0360808201511660a085015260018060a01b0360a08201511660c085015260c08101516101a060e08601528051938491826101c0880152018686015e5f85848601015260e08101511515610100850152610100810151151561012085015261012081015115156101408501526101408101516114fe81611434565b6101608501526101608101518285015201516101a0830152601f8019910116010190565b6101a081019081106001600160401b038211176103d757604052565b90601f801991011681019081106001600160401b038211176103d757604052565b6040519061156c82611522565b5f610180838281528260208201528260408201528260608201528260808201528260a0820152606060c08201528260e0820152826101008201528261012082015282610140820152826101608201520152565b156115c657565b60405162461bcd60e51b8152602060048201526024808201527f436f6e76656e74696f6e4d616e616765723a20617563756e6520636f6e76656e6044820152633a34b7b760e11b6064820152608490fd5b90600182811c92168015611645575b602083101461163157565b634e487b7160e01b5f52602260045260245ffd5b91607f1691611626565b6001600160401b0381116103d75760051b60200190565b80518210156103c35760209160051b010190565b519081151582036101ed57565b1561168e57565b606460405162461bcd60e51b815260206004820152602060248201527f436f6e76656e74696f6e4d616e616765723a20524820756e697175656d656e746044820152fd5b51906001600160a01b03821682036101ed57565b6001600160401b0381116103d757601f01601f191660200190565b81601f820112156101ed57805190611718826116e6565b92611726604051948561153e565b828452602083830101116101ed57815f9260208093018386015e8301015290565b6020818303126101ed578051906001600160401b0382116101ed570190610120828203126101ed576040519161012083018381106001600160401b038211176103d757604052611796816116d2565b8352602081015160058110156101ed57602084015260408101516001600160401b0381116101ed57826117ca918301611701565b604084015260608101516001600160401b0381116101ed57826117ee918301611701565b606084015260808101516001600160401b0381116101ed5782611812918301611701565b608084015260a08101516001600160401b0381116101ed5761010092611839918301611701565b60a084015261184a60c082016116d2565b60c084015261185b60e0820161167a565b60e0840152015161010082015290565b1561187257565b60405162461bcd60e51b815260206004820152602360248201527f436f6e76656e74696f6e4d616e616765723a2061646d696e20756e697175656d604482015262195b9d60ea1b6064820152608490fd5b156118ca57565b60405162461bcd60e51b815260206004820152602960248201527f436f6e76656e74696f6e4d616e616765723a20636f6e76656e74696f6e20696e6044820152686578697374616e746560b81b6064820152608490fd5b1561192857565b60405162461bcd60e51b815260206004820152602760248201527f436f6e76656e74696f6e4d616e616765723a2070617320766f74726520756e696044820152667665727369746560c81b6064820152608490fd5b1561198457565b60405162461bcd60e51b815260206004820152601d60248201527f436f6e76656e74696f6e4d616e616765723a2064656a61207369676e650000006044820152606490fd5b156119d057565b60405162461bcd60e51b815260206004820152602860248201527f436f6e76656e74696f6e4d616e616765723a20656e63616472616e74206e6f6e604482015267206166666563746560c01b6064820152608490fd5b15611a2d57565b60405162461bcd60e51b815260206004820152602760248201527f436f6e76656e74696f6e4d616e616765723a2070617320766f74726520636f6e6044820152663b32b73a34b7b760c91b6064820152608490fd5b60078101805460ff811680611aeb575b80611ade575b611aa157505050565b63040000009063ff0000001916179055547feee9031f1c533f1f571a447dacd6ec962fdaf526d46daa9442ef458220b88cff6020604051428152a2565b5060ff8160101c16611a98565b5060ff8160081c16611a9256fea26469706673582212205bf0e87f426fc7e8384586e5be366600563685cfd5590ef1da1438fa50f2e0f764736f6c634300081c0033",
  "linkReferences": {},
  "deployedLinkReferences": {},
  "immutableReferences": {},
  "inputSourceName": "project/contracts/SC3_ConventionManager.sol",
  "buildInfoId": "solc-0_8_28-b46f0e05dff82e20e848cee071e572db398628b1"
}