{
  "_format": "hh3-artifact-1",
  "contractName": "OffreManager",
  "sourceName": "contracts/SC2_OffreManager.sol",
  "abi": [
    {
      "inputs": [
        {
          "internalType": "address",
          "name": "_userManager",
          "type": "address"
        }
      ],
      "stateMutability": "nonpayable",
      "type": "constructor"
    },
    {
      "anonymous": false,
      "inputs": [
        {
          "indexed": true,
          "internalType": "uint256",
          "name": "offreId",
          "type": "uint256"
        },
        {
          "indexed": true,
          "internalType": "address",
          "name": "entreprise",
          "type": "address"
        },
        {
          "indexed": false,
          "internalType": "uint256",
          "name": "date",
          "type": "uint256"
        }
      ],
      "name": "OffrePublished",
      "type": "event"
    },
    {
      "anonymous": false,
      "inputs": [
        {
          "indexed": true,
          "internalType": "uint256",
          "name": "offreId",
          "type": "uint256"
        },
        {
          "indexed": false,
          "internalType": "uint256",
          "name": "date",
          "type": "uint256"
        }
      ],
      "name": "OfreClosed",
      "type": "event"
    },
    {
      "inputs": [
        {
          "internalType": "uint256",
          "name": "_id",
          "type": "uint256"
        }
      ],
      "name": "closeOffre",
      "outputs": [],
      "stateMutability": "nonpayable",
      "type": "function"
    },
    {
      "inputs": [],
      "name": "getAllOffres",
      "outputs": [
        {
          "components": [
            {
              "internalType": "uint256",
              "name": "id",
              "type": "uint256"
            },
            {
              "internalType": "address",
              "name": "rhWallet",
              "type": "address"
            },
            {
              "internalType": "string",
              "name": "entreprise",
              "type": "string"
            },
            {
              "internalType": "string",
              "name": "titre",
              "type": "string"
            },
            {
              "internalType": "string",
              "name": "domaine",
              "type": "string"
            },
            {
              "internalType": "string",
              "name": "ville",
              "type": "string"
            },
            {
              "internalType": "string",
              "name": "description",
              "type": "string"
            },
            {
              "internalType": "string",
              "name": "competencesRequises",
              "type": "string"
            },
            {
              "internalType": "string",
              "name": "filiere",
              "type": "string"
            },
            {
              "internalType": "uint8",
              "name": "niveauRequis",
              "type": "uint8"
            },
            {
              "internalType": "uint16",
              "name": "dureeMois",
              "type": "uint16"
            },
            {
              "internalType": "bool",
              "name": "isOuverte",
              "type": "bool"
            },
            {
              "internalType": "uint256",
              "name": "publishedAt",
              "type": "uint256"
            }
          ],
          "internalType": "struct OffreManager.Offre[]",
          "name": "",
          "type": "tuple[]"
        }
      ],
      "stateMutability": "view",
      "type": "function"
    },
    {
      "inputs": [
        {
          "internalType": "uint256",
          "name": "_id",
          "type": "uint256"
        }
      ],
      "name": "getOffre",
      "outputs": [
        {
          "components": [
            {
              "internalType": "uint256",
              "name": "id",
              "type": "uint256"
            },
            {
              "internalType": "address",
              "name": "rhWallet",
              "type": "address"
            },
            {
              "internalType": "string",
              "name": "entreprise",
              "type": "string"
            },
            {
              "internalType": "string",
              "name": "titre",
              "type": "string"
            },
            {
              "internalType": "string",
              "name": "domaine",
              "type": "string"
            },
            {
              "internalType": "string",
              "name": "ville",
              "type": "string"
            },
            {
              "internalType": "string",
              "name": "description",
              "type": "string"
            },
            {
              "internalType": "string",
              "name": "competencesRequises",
              "type": "string"
            },
            {
              "internalType": "string",
              "name": "filiere",
              "type": "string"
            },
            {
              "internalType": "uint8",
              "name": "niveauRequis",
              "type": "uint8"
            },
            {
              "internalType": "uint16",
              "name": "dureeMois",
              "type": "uint16"
            },
            {
              "internalType": "bool",
              "name": "isOuverte",
              "type": "bool"
            },
            {
              "internalType": "uint256",
              "name": "publishedAt",
              "type": "uint256"
            }
          ],
          "internalType": "struct OffreManager.Offre",
          "name": "",
          "type": "tuple"
        }
      ],
      "stateMutability": "view",
      "type": "function"
    },
    {
      "inputs": [
        {
          "internalType": "uint256",
          "name": "_id",
          "type": "uint256"
        },
        {
          "internalType": "address",
          "name": "_rh",
          "type": "address"
        }
      ],
      "name": "isOffreValide",
      "outputs": [
        {
          "internalType": "bool",
          "name": "",
          "type": "bool"
        }
      ],
      "stateMutability": "view",
      "type": "function"
    },
    {
      "inputs": [
        {
          "internalType": "string",
          "name": "_entreprise",
          "type": "string"
        },
        {
          "internalType": "string",
          "name": "_titre",
          "type": "string"
        },
        {
          "internalType": "string",
          "name": "_domaine",
          "type": "string"
        },
        {
          "internalType": "string",
          "name": "_ville",
          "type": "string"
        },
        {
          "internalType": "string",
          "name": "_description",
          "type": "string"
        },
        {
          "internalType": "string",
          "name": "_competencesRequises",
          "type": "string"
        },
        {
          "internalType": "string",
          "name": "_filiere",
          "type": "string"
        },
        {
          "internalType": "uint8",
          "name": "_niveauRequis",
          "type": "uint8"
        },
        {
          "internalType": "uint16",
          "name": "_dureeMois",
          "type": "uint16"
        }
      ],
      "name": "publishOffre",
      "outputs": [
        {
          "internalType": "uint256",
          "name": "",
          "type": "uint256"
        }
      ],
      "stateMutability": "nonpayable",
      "type": "function"
    },
    {
      "inputs": [],
      "name": "userManager",
      "outputs": [
        {
          "internalType": "contract UserManager",
          "name": "",
          "type": "address"
        }
      ],
      "stateMutability": "view",
      "type": "function"
    }
  ],
  "bytecode": "0x608034607357601f61157e38819003918201601f19168301916001600160401b03831184841017607757808492602094604052833981010312607357516001600160a01b03811690819003607357600180555f80546001600160a01b0319169190911790556040516114f2908161008c8239f35b5f80fd5b634e487b7160e01b5f52604160045260245ffdfe60a06040526004361015610011575f80fd5b5f3560e01c8063129db46814610e1a5780632ad765d414610c7d578063312eafbe14610c005780635c8a768714610bd95780635dfcf9fc146100c1576380840dfc1461005b575f80fd5b346100bd5760203660031901126100bd57600435610077611193565b50805f52600260205261008f60405f2054151561142b565b5f5260026020526100b96100a560405f206112e4565b604051918291602083526020830190610fd8565b0390f35b5f80fd5b346100bd576101203660031901126100bd576004356001600160401b0381116100bd576100f29036906004016110c4565b6024356001600160401b0381116100bd576101119036906004016110c4565b92906044356001600160401b0381116100bd576101329036906004016110c4565b9490916064356001600160401b0381116100bd576101549036906004016110c4565b9490916084356001600160401b0381116100bd576101769036906004016110c4565b959060a4356001600160401b0381116100bd576101979036906004016110c4565b95909260c4356001600160401b0381116100bd576101b99036906004016110c4565b9c909560e4359960ff8b168b036100bd57610104359861ffff8a168a036100bd575f5460405163dc35a8ed60e01b81523360048201526003602482015290602090829060449082906001600160a01b03165afa8015610bce57610223915f91610b9f575b506113d3565b6001549e8f6102318161111d565b6001556040516080526080516102469061113f565b608051523360805160200152369061025d92611477565b60805160400152369061026f92611477565b60805160600152369061028192611477565b98608051608001998a52369061029692611477565b9660805160a00197885236906102ab92611477565b9360805160c00194855236906102c092611477565b9760805160e00198895236906102d592611477565b9660805161010001978852608051610120019360ff168452608051610140019161ffff1682526080516101600192600184526080516101800195428752885f52600260205260405f209760805151895560018901600160a01b6001900360805160200151166bffffffffffffffffffffffff60a01b82541617905560028901608051604001518051906001600160401b038211610661578190610378845461120c565b601f8111610b4f575b50602090601f8311600114610aec575f92610ae1575b50508160011b915f199060031b1c19161790555b60038901606060805101518051906001600160401b0382116106615781906103d3845461120c565b601f8111610a91575b50602090601f8311600114610a2e575f92610a23575b50508160011b915f199060031b1c19161790555b51805160048a01916001600160401b038211610661578190610428845461120c565b601f81116109d3575b50602090601f8311600114610970575f92610965575b50508160011b915f199060031b1c19161790555b51805160058901916001600160401b03821161066157819061047d845461120c565b601f8111610915575b50602090601f83116001146108b2575f926108a7575b50508160011b915f199060031b1c19161790555b51805160068801916001600160401b0382116106615781906104d2845461120c565b601f8111610857575b50602090601f83116001146107f4575f926107e9575b50508160011b915f199060031b1c19161790555b51805160078701916001600160401b038211610661578190610527845461120c565b601f8111610799575b50602090601f8311600114610736575f9261072b575b50508160011b915f199060031b1c19161790555b6008850196519687516001600160401b0381116106615761057b825461120c565b601f81116106e6575b506020601f8211600114610680578190600a98999a5f92610675575b50508160011b915f199060031b1c19161790555b60ff6009870193511662ffff008454925160081b169162ffffff19161717825551151563ff00000082549160181b169063ff000000191617905551910155600354906801000000000000000082101561066157610619826001602094016003556110f1565b81549060031b9083821b915f19901b1916179055604051428152817fedf1525c94dfa11740e4b8a4250e81cd39a2e59a19fee0eabc410050718926b9843393a3604051908152f35b634e487b7160e01b5f52604160045260245ffd5b015190508a806105a0565b601f19821699835f52815f209a5f5b8181106106ce575091600a999a9b918460019594106106b6575b505050811b0190556105b4565b01515f1960f88460031b161c191690558a80806106a9565b838301518d556001909c019b6020938401930161068f565b825f5260205f20601f830160051c81019160208410610721575b601f0160051c01905b8181106107165750610584565b5f8155600101610709565b9091508190610700565b015190508a80610546565b5f8581528281209350601f198516905b8181106107815750908460019594939210610769575b505050811b01905561055a565b01515f1960f88460031b161c191690558a808061075c565b92936020600181928786015181550195019301610746565b909150835f5260205f20601f840160051c810191602085106107df575b90601f859493920160051c01905b8181106107d15750610530565b5f81558493506001016107c4565b90915081906107b6565b015190508b806104f1565b5f8581528281209350601f198516905b81811061083f5750908460019594939210610827575b505050811b019055610505565b01515f1960f88460031b161c191690558b808061081a565b92936020600181928786015181550195019301610804565b909150835f5260205f20601f840160051c8101916020851061089d575b90601f859493920160051c01905b81811061088f57506104db565b5f8155849350600101610882565b9091508190610874565b015190508c8061049c565b5f8581528281209350601f198516905b8181106108fd57509084600195949392106108e5575b505050811b0190556104b0565b01515f1960f88460031b161c191690558c80806108d8565b929360206001819287860151815501950193016108c2565b909150835f5260205f20601f840160051c8101916020851061095b575b90601f859493920160051c01905b81811061094d5750610486565b5f8155849350600101610940565b9091508190610932565b015190508d80610447565b5f8581528281209350601f198516905b8181106109bb57509084600195949392106109a3575b505050811b01905561045b565b01515f1960f88460031b161c191690558d8080610996565b92936020600181928786015181550195019301610980565b909150835f5260205f20601f840160051c81019160208510610a19575b90601f859493920160051c01905b818110610a0b5750610431565b5f81558493506001016109fe565b90915081906109f0565b015190508e806103f2565b5f8581528281209350601f198516905b818110610a795750908460019594939210610a61575b505050811b019055610406565b01515f1960f88460031b161c191690558e8080610a54565b92936020600181928786015181550195019301610a3e565b909150835f5260205f20601f840160051c81019160208510610ad7575b90601f859493920160051c01905b818110610ac957506103dc565b5f8155849350600101610abc565b9091508190610aae565b015190508e80610397565b5f8581528281209350601f198516905b818110610b375750908460019594939210610b1f575b505050811b0190556103ab565b01515f1960f88460031b161c191690558e8080610b12565b92936020600181928786015181550195019301610afc565b909150835f5260205f20601f840160051c81019160208510610b95575b90601f859493920160051c01905b818110610b875750610381565b5f8155849350600101610b7a565b9091508190610b6c565b610bc1915060203d602011610bc7575b610bb9818361115b565b8101906113bb565b5f61021d565b503d610baf565b6040513d5f823e3d90fd5b346100bd575f3660031901126100bd575f546040516001600160a01b039091168152602090f35b346100bd5760403660031901126100bd576024356001600160a01b038116908190036100bd576020906004355f526002825260405f2090815415159182610c6b575b82610c54575b50506040519015158152f35b600101546001600160a01b03161490508280610c48565b600981015460181c60ff169250610c42565b346100bd5760203660031901126100bd575f5460405163dc35a8ed60e01b815233600480830191909152600360248301523591602090829060449082906001600160a01b03165afa8015610bce57610cdb915f91610dfb57506113d3565b805f526002602052610cf260405f2054151561142b565b805f52600260205260ff600960405f20015460181c1615610db657805f5260026020523360018060a01b03600160405f2001541603610d7157805f526002602052600960405f200163ff0000001981541690557ffa845c01ba815a1b2747e16cbbfef3338881ccf4a7673c297e79e77876d0ccf16020604051428152a2005b60405162461bcd60e51b815260206004820152601e60248201527f4f666672654d616e616765723a206e6f6e2070726f70726965746169726500006044820152606490fd5b60405162461bcd60e51b815260206004820152601f60248201527f4f666672654d616e616765723a206f666672652064656a61206665726d6565006044820152606490fd5b610e14915060203d602011610bc757610bb9818361115b565b8361021d565b346100bd575f3660031901126100bd575f5f600354905b818110610f6e5750610e428261117c565b91610e50604051938461115b565b808352610e5f601f199161117c565b015f5b818110610f575750505f5f5b828110610edc57836040518091602082016020835281518091526040830190602060408260051b8601019301915f905b828210610ead57505050500390f35b91936001919395506020610ecc8192603f198a82030186528851610fd8565b9601920192018594939192610e9e565b80610ee86001926110f1565b90549060031b1c5f52600260205260ff600960405f20015460181c16610f0f575b01610e6e565b610f18816110f1565b90549060031b1c5f526002602052610f5160405f2093610f40610f3a8261111d565b956112e4565b610f4a82896111f8565b52866111f8565b50610f09565b602090610f62611193565b82828701015201610e62565b610f77816110f1565b90549060031b1c5f52600260205260ff600960405f20015460181c16610fa0575b600101610e31565b91610fac60019161111d565b929050610f98565b805180835260209291819084018484015e5f828201840152601f01601f1916010190565b908151815260018060a01b0360208301511660208201526101808061108e61107a61106861105661104461103261102060408b01516101a060408c01526101a08b0190610fb4565b60608b01518a820360608c0152610fb4565b60808a015189820360808b0152610fb4565b60a089015188820360a08a0152610fb4565b60c088015187820360c0890152610fb4565b60e087015186820360e0880152610fb4565b610100860151858203610100870152610fb4565b9360ff6101208201511661012085015261ffff610140820151166101408501526101608101511515610160850152015191015290565b9181601f840112156100bd578235916001600160401b0383116100bd57602083818601950101116100bd57565b6003548110156111095760035f5260205f2001905f90565b634e487b7160e01b5f52603260045260245ffd5b5f19811461112b5760010190565b634e487b7160e01b5f52601160045260245ffd5b6101a081019081106001600160401b0382111761066157604052565b90601f801991011681019081106001600160401b0382111761066157604052565b6001600160401b0381116106615760051b60200190565b604051906111a08261113f565b5f610180838281528260208201526060604082015260608082015260606080820152606060a0820152606060c0820152606060e082015260606101008201528261012082015282610140820152826101608201520152565b80518210156111095760209160051b010190565b90600182811c9216801561123a575b602083101461122657565b634e487b7160e01b5f52602260045260245ffd5b91607f169161121b565b9060405191825f8254926112578461120c565b80845293600181169081156112c2575060011461127e575b5061127c9250038361115b565b565b90505f9291925260205f20905f915b8183106112a657505090602061127c928201015f61126f565b602091935080600191548385890101520191019091849261128d565b90506020925061127c94915060ff191682840152151560051b8201015f61126f565b906040516112f18161113f565b8254815260018301546001600160a01b0316602082015291829061018090600a9061131e60028201611244565b604085015261132f60038201611244565b606085015261134060048201611244565b608085015261135160058201611244565b60a085015261136260068201611244565b60c085015261137360078201611244565b60e085015261138460088201611244565b61010085015260ff600982015481811661012087015261ffff8160081c1661014087015260181c1615156101608501520154910152565b908160209103126100bd575180151581036100bd5790565b156113da57565b60405162461bcd60e51b8152602060048201526024808201527f4f666672654d616e616765723a205248206175746f7269736520756e697175656044820152631b595b9d60e21b6064820152608490fd5b1561143257565b60405162461bcd60e51b815260206004820152601f60248201527f4f666672654d616e616765723a206f6666726520696e6578697374616e7465006044820152606490fd5b9291926001600160401b03821161066157604051916114a0601f8201601f19166020018461115b565b8294818452818301116100bd578281602093845f96013701015256fea2646970667358221220652fd6b7dfd2928fdff38d86e9ffdcfd6df8916f44f71fa2a1c157fa6d401ca264736f6c634300081c0033",
  "linkReferences": {},
  "deployedLinkReferences": {},
  "immutableReferences": {},
  "inputSourceName": "project/contracts/SC2_OffreManager.sol",
  "buildInfoId": "solc-0_8_28-0d1ea19a18def96aac7638c05b32655bb9e07c27"
}