{
  "_format": "hh3-artifact-1",
  "contractName": "OffreManager",
  "sourceName": "contracts/SC2_OffreManager.sol",
  "abi": [
    {
      "inputs": [
        {
          "internalType": "address",
          "name": "_accountManager",
          "type": "address"
        }
      ],
      "stateMutability": "nonpayable",
      "type": "constructor"
    },
    {
      "anonymous": false,
      "inputs": [
        {
          "indexed": true,
          "internalType": "uint256",
          "name": "candidatureId",
          "type": "uint256"
        },
        {
          "indexed": true,
          "internalType": "uint256",
          "name": "offreId",
          "type": "uint256"
        },
        {
          "indexed": true,
          "internalType": "address",
          "name": "etudiant",
          "type": "address"
        },
        {
          "indexed": false,
          "internalType": "uint256",
          "name": "date",
          "type": "uint256"
        }
      ],
      "name": "CandidatureDeposee",
      "type": "event"
    },
    {
      "anonymous": false,
      "inputs": [
        {
          "indexed": true,
          "internalType": "uint256",
          "name": "candidatureId",
          "type": "uint256"
        },
        {
          "indexed": true,
          "internalType": "address",
          "name": "etudiant",
          "type": "address"
        },
        {
          "indexed": false,
          "internalType": "uint256",
          "name": "date",
          "type": "uint256"
        }
      ],
      "name": "CandidatureRefusee",
      "type": "event"
    },
    {
      "anonymous": false,
      "inputs": [
        {
          "indexed": true,
          "internalType": "uint256",
          "name": "candidatureId",
          "type": "uint256"
        },
        {
          "indexed": true,
          "internalType": "uint256",
          "name": "offreId",
          "type": "uint256"
        },
        {
          "indexed": true,
          "internalType": "address",
          "name": "etudiant",
          "type": "address"
        },
        {
          "indexed": false,
          "internalType": "uint256",
          "name": "date",
          "type": "uint256"
        }
      ],
      "name": "EtudiantSelectionne",
      "type": "event"
    },
    {
      "anonymous": false,
      "inputs": [
        {
          "indexed": true,
          "internalType": "uint256",
          "name": "offreId",
          "type": "uint256"
        },
        {
          "indexed": true,
          "internalType": "address",
          "name": "rh",
          "type": "address"
        },
        {
          "indexed": false,
          "internalType": "uint256",
          "name": "date",
          "type": "uint256"
        }
      ],
      "name": "OffrePubliee",
      "type": "event"
    },
    {
      "inputs": [],
      "name": "accountManager",
      "outputs": [
        {
          "internalType": "contract AccountManager",
          "name": "",
          "type": "address"
        }
      ],
      "stateMutability": "view",
      "type": "function"
    },
    {
      "inputs": [],
      "name": "getAllOffres",
      "outputs": [
        {
          "internalType": "uint256[]",
          "name": "",
          "type": "uint256[]"
        }
      ],
      "stateMutability": "view",
      "type": "function"
    },
    {
      "inputs": [
        {
          "internalType": "uint256",
          "name": "_candidatureId",
          "type": "uint256"
        }
      ],
      "name": "getCandidature",
      "outputs": [
        {
          "components": [
            {
              "internalType": "uint256",
              "name": "id",
              "type": "uint256"
            },
            {
              "internalType": "uint256",
              "name": "offreId",
              "type": "uint256"
            },
            {
              "internalType": "address",
              "name": "etudiant",
              "type": "address"
            },
            {
              "internalType": "string",
              "name": "cidCV",
              "type": "string"
            },
            {
              "internalType": "string",
              "name": "cidLM",
              "type": "string"
            },
            {
              "internalType": "enum OffreManager.StatutCandidature",
              "name": "statut",
              "type": "uint8"
            },
            {
              "internalType": "uint256",
              "name": "createdAt",
              "type": "uint256"
            }
          ],
          "internalType": "struct OffreManager.Candidature",
          "name": "",
          "type": "tuple"
        }
      ],
      "stateMutability": "view",
      "type": "function"
    },
    {
      "inputs": [
        {
          "internalType": "address",
          "name": "_etudiant",
          "type": "address"
        }
      ],
      "name": "getCandidaturesByEtudiant",
      "outputs": [
        {
          "internalType": "uint256[]",
          "name": "",
          "type": "uint256[]"
        }
      ],
      "stateMutability": "view",
      "type": "function"
    },
    {
      "inputs": [
        {
          "internalType": "uint256",
          "name": "_offreId",
          "type": "uint256"
        }
      ],
      "name": "getCandidaturesByOffre",
      "outputs": [
        {
          "internalType": "uint256[]",
          "name": "",
          "type": "uint256[]"
        }
      ],
      "stateMutability": "view",
      "type": "function"
    },
    {
      "inputs": [
        {
          "internalType": "address",
          "name": "_rh",
          "type": "address"
        }
      ],
      "name": "getMetriquesRH",
      "outputs": [
        {
          "internalType": "uint256",
          "name": "nbOffres",
          "type": "uint256"
        },
        {
          "internalType": "uint256",
          "name": "nbStagiaires",
          "type": "uint256"
        }
      ],
      "stateMutability": "view",
      "type": "function"
    },
    {
      "inputs": [
        {
          "internalType": "uint256",
          "name": "_offreId",
          "type": "uint256"
        }
      ],
      "name": "getOffre",
      "outputs": [
        {
          "components": [
            {
              "internalType": "uint256",
              "name": "id",
              "type": "uint256"
            },
            {
              "internalType": "address",
              "name": "rh",
              "type": "address"
            },
            {
              "internalType": "string",
              "name": "titre",
              "type": "string"
            },
            {
              "internalType": "string",
              "name": "domaine",
              "type": "string"
            },
            {
              "internalType": "string",
              "name": "competences",
              "type": "string"
            },
            {
              "internalType": "uint256",
              "name": "dureeJours",
              "type": "uint256"
            },
            {
              "internalType": "uint256",
              "name": "nbPlaces",
              "type": "uint256"
            },
            {
              "internalType": "uint256",
              "name": "nbCandidatures",
              "type": "uint256"
            },
            {
              "internalType": "enum OffreManager.StatutOffre",
              "name": "statut",
              "type": "uint8"
            },
            {
              "internalType": "uint256",
              "name": "createdAt",
              "type": "uint256"
            }
          ],
          "internalType": "struct OffreManager.Offre",
          "name": "",
          "type": "tuple"
        }
      ],
      "stateMutability": "view",
      "type": "function"
    },
    {
      "inputs": [
        {
          "internalType": "address",
          "name": "",
          "type": "address"
        }
      ],
      "name": "nbOffresParRH",
      "outputs": [
        {
          "internalType": "uint256",
          "name": "",
          "type": "uint256"
        }
      ],
      "stateMutability": "view",
      "type": "function"
    },
    {
      "inputs": [
        {
          "internalType": "address",
          "name": "",
          "type": "address"
        }
      ],
      "name": "nbStagiairesParRH",
      "outputs": [
        {
          "internalType": "uint256",
          "name": "",
          "type": "uint256"
        }
      ],
      "stateMutability": "view",
      "type": "function"
    },
    {
      "inputs": [
        {
          "internalType": "uint256",
          "name": "_offreId",
          "type": "uint256"
        },
        {
          "internalType": "string",
          "name": "_cidCV",
          "type": "string"
        },
        {
          "internalType": "string",
          "name": "_cidLM",
          "type": "string"
        }
      ],
      "name": "postuler",
      "outputs": [],
      "stateMutability": "nonpayable",
      "type": "function"
    },
    {
      "inputs": [
        {
          "internalType": "string",
          "name": "_titre",
          "type": "string"
        },
        {
          "internalType": "string",
          "name": "_domaine",
          "type": "string"
        },
        {
          "internalType": "string",
          "name": "_competences",
          "type": "string"
        },
        {
          "internalType": "uint256",
          "name": "_dureeJours",
          "type": "uint256"
        },
        {
          "internalType": "uint256",
          "name": "_nbPlaces",
          "type": "uint256"
        }
      ],
      "name": "publierOffre",
      "outputs": [],
      "stateMutability": "nonpayable",
      "type": "function"
    },
    {
      "inputs": [
        {
          "internalType": "uint256",
          "name": "_candidatureId",
          "type": "uint256"
        }
      ],
      "name": "refuserCandidature",
      "outputs": [],
      "stateMutability": "nonpayable",
      "type": "function"
    },
    {
      "inputs": [
        {
          "internalType": "uint256",
          "name": "_candidatureId",
          "type": "uint256"
        }
      ],
      "name": "selectionnerEtudiant",
      "outputs": [],
      "stateMutability": "nonpayable",
      "type": "function"
    }
  ],
  "bytecode": "0x608034606f57601f611a3c38819003918201601f19168301916001600160401b03831184841017607357808492602094604052833981010312606f57516001600160a01b03811690819003606f575f80546001600160a01b0319169190911790556040516119b490816100888239f35b5f80fd5b634e487b7160e01b5f52604160045260245ffdfe6080806040526004361015610012575f80fd5b5f3560e01c908163129db4681461154e575080631fa44a6914610f4f5780637e2a8b0414610f1357806380840dfc14610d155780638804526014610cc857806391c2c46914610ca157806391cd68ca14610c3d5780639ba8873d14610b45578063a4a49ab21461093f578063b171b5ce146102c5578063d4e1866f1461023f578063dfa990bb146100eb5763e01c6a05146100ab575f80fd5b346100e75760203660031901126100e7576004356001600160a01b038116908190036100e7575f526008602052602060405f2054604051908152f35b5f80fd5b346100e75760203660031901126100e7576004355f60c060405161010e81611666565b828152826020820152826040820152606080820152606060808201528260a08201520152805f52600460205261014960405f2054151561188c565b5f52600460205260405f2060405161016081611666565b8154815260018201546020820190815260028301546001600160a01b031660408301908152909290610225610197600384016117a0565b606085019081526102126101ad600486016117a0565b9160808701928352600660ff6005880154169660a08901976101ce81611648565b885201549460c0880195865260405198899860208a525160208a015251604089015260018060a01b0390511660608801525160e06080880152610100870190611624565b9051858203601f190160a0870152611624565b915161023081611648565b60c08401525160e08301520390f35b346100e75760203660031901126100e7576004356001600160a01b038116908190036100e7575f52600660205260405f206040519081602082549182815201915f5260205f20905f5b8181106102af576102ab8561029f8187038261169d565b604051918291826115be565b0390f35b8254845260209093019260019283019201610288565b346100e75760a03660031901126100e7576004356001600160401b0381116100e7576102f59036906004016115f7565b906024356001600160401b0381116100e7576103159036906004016115f7565b926044356001600160401b0381116100e7576103359036906004016115f7565b5f5460405163dc35a8ed60e01b8152336004820152600360248201529196926084359260643592602090829060449082906001600160a01b03165afa801561093457610388915f91610905575b50611840565b82156108c157811561087c576103eb906103dc6103a66001546116d6565b97886001556103cd6040519a6103bb8c611681565b8a8c5260208c0199338b5236916116e4565b9660408b0197885236916116e4565b9860608901998a5236916116e4565b6080870190815260a0870191825260c087019283525f60e088018181526101008901828152426101208b01908152988352600360205260409092209851895595516001890180546001600160a01b0319166001600160a01b03929092169190911790559351805191989495949160028901916001600160401b03821161062f5781906104778454611729565b601f811161082c575b50602090601f83116001146107c9575f926107be575b50508160011b915f199060031b1c19161790555b51805160038801916001600160401b03821161062f5781906104cc8454611729565b601f811161076e575b50602090601f831160011461070b575f92610700575b50508160011b915f199060031b1c19161790555b6004860196519687516001600160401b03811161062f576105208254611729565b601f81116106bb575b506020601f821160011461064e57908061058697969594939260099a9b5f92610643575b50508160011b915f199060031b1c19161790555b5160058801555160068701555160078601555161057d81611648565b60088501611761565b51910155600154600a54600160401b81101561062f576001810180600a5581101561061b577fc65a7bb8d6351c1cf70c95a316cc6a92839c986682d98bc35f958f4883f9d2a80155335f90815260086020526040902080546105e7906116d6565b9055600154604051904282527fb0fe52b7818cb1bfea8a7cc74ac4aa6856f97ae912e407276ebd3e3d483ab2fd60203393a3005b634e487b7160e01b5f52603260045260245ffd5b634e487b7160e01b5f52604160045260245ffd5b015190508b8061054d565b601f19821699835f52815f209a5f5b8181106106a357509a60019284926105869a999897969560099d9e1061068b575b505050811b019055610561565b01515f1960f88460031b161c191690558b808061067e565b838301518d556001909c019b6020938401930161065d565b825f5260205f20601f830160051c810191602084106106f6575b601f0160051c01905b8181106106eb5750610529565b5f81556001016106de565b90915081906106d5565b015190508a806104eb565b5f8581528281209350601f198516905b818110610756575090846001959493921061073e575b505050811b0190556104ff565b01515f1960f88460031b161c191690558a8080610731565b9293602060018192878601518155019501930161071b565b909150835f5260205f20601f840160051c810191602085106107b4575b90601f859493920160051c01905b8181106107a657506104d5565b5f8155849350600101610799565b909150819061078b565b015190508b80610496565b5f8581528281209350601f198516905b81811061081457509084600195949392106107fc575b505050811b0190556104aa565b01515f1960f88460031b161c191690558b80806107ef565b929360206001819287860151815501950193016107d9565b909150835f5260205f20601f840160051c81019160208510610872575b90601f859493920160051c01905b8181106108645750610480565b5f8155849350600101610857565b9091508190610849565b60405162461bcd60e51b815260206004820152601c60248201527f4f666672654d616e616765723a20647572656520696e76616c696465000000006044820152606490fd5b606460405162461bcd60e51b815260206004820152602060248201527f4f666672654d616e616765723a206175206d6f696e7320756e6520706c6163656044820152fd5b610927915060203d60201161092d575b61091f818361169d565b8101906116be565b8a610382565b503d610915565b6040513d5f823e3d90fd5b346100e75760203660031901126100e7575f5460405163dc35a8ed60e01b815233600480830191909152600360248301523591602090829060449082906001600160a01b03165afa80156109345761099d915f91610b265750611840565b805f52600460205260405f206109b58154151561188c565b600181018054805f5260036020526109dd3360018060a01b03600160405f20015416146118e6565b60058301908154906109fb60ff83166109f581611648565b15611932565b5f52600360205260ff600860405f20015416610a1681611648565b610ae15760019060ff1916179055335f52600960205260405f20610a3a81546116d6565b905580545f526003602052600660405f200180548015610acd575f190190558054805f526003602052600660405f20015415610aae575b505490600260018060a01b0391015416917f286776e7e6c6204e726b2eaf076027984ea5e3552b92176aadd01b58f2b1629d6020604051428152a4005b5f526003602052600860405f2001600160ff1982541617905583610a71565b634e487b7160e01b5f52601160045260245ffd5b60405162461bcd60e51b815260206004820152601a60248201527f4f666672654d616e616765723a206f66667265206665726d65650000000000006044820152606490fd5b610b3f915060203d60201161092d5761091f818361169d565b83610382565b346100e75760203660031901126100e7575f5460405163dc35a8ed60e01b815233600480830191909152600360248301523591602090829060449082906001600160a01b03165afa801561093457610ba3915f91610b265750611840565b805f52600460205260405f20610bbb8154151561188c565b6001818101545f9081526003602052604090200154610be4906001600160a01b031633146118e6565b6005810160028154610bfc60ff82166109f581611648565b60ff1916179055600260018060a01b0391015416907fb90b13da07d4c2d10a7466185465f16769e61165041562f3c10754a0ad7ce5ba6020604051428152a3005b346100e75760203660031901126100e7576004355f52600560205260405f206040519081602082549182815201915f5260205f20905f5b818110610c8b576102ab8561029f8187038261169d565b8254845260209093019260019283019201610c74565b346100e7575f3660031901126100e7575f546040516001600160a01b039091168152602090f35b346100e75760203660031901126100e7576004356001600160a01b038116908190036100e757806040915f526008602052815f2054905f526009602052815f205482519182526020820152f35b346100e75760203660031901126100e7576004355f610120604051610d3981611681565b82815282602082015260606040820152606080820152606060808201528260a08201528260c08201528260e0820152826101008201520152805f52600360205260405f205415610ece575f526003602052602060405f2060405190610d9d82611681565b8054825260018101546001600160a01b031683830190815282610dc2600284016117a0565b9260408201938452610dd6600382016117a0565b9360608301948552610e9f610ded600484016117a0565b60808501908152610e8c60058501549760a08701988952610e7960068701549560c08901968752600960078901549860e08b01998a5261010060ff6008830154169b019a610e3a81611648565b8b520154996101208d019a8b526040518e819f9e829f83525191015260018060a01b0390511660408d01525161014060608d01526101608c0190611624565b90518a8203601f190160808c0152611624565b9051888203601f190160a08a0152611624565b945160c08701525160e08601525161010085015251610ebd81611648565b610120840152516101408301520390f35b60405162461bcd60e51b815260206004820152601f60248201527f4f666672654d616e616765723a206f6666726520696e6578697374616e7465006044820152606490fd5b346100e75760203660031901126100e7576004356001600160a01b038116908190036100e7575f526009602052602060405f2054604051908152f35b346100e75760603660031901126100e7576004356024356001600160401b0381116100e757610f829036906004016115f7565b906044356001600160401b0381116100e757610fa29036906004016115f7565b5f5460405163dc35a8ed60e01b815233600482015260016024820152929491939290602090829060449082906001600160a01b03165afa908115610934575f9161152f575b50156114e057845f52600360205260ff600860405f2001541661100981611648565b61149b57335f52600760205260405f20855f5260205260ff60405f2054166114565780156114115782156113b9576110426002546116d6565b92836002556110836040519561105787611666565b8587526110746020880195898752604089019533875236916116e4565b926060880193845236916116e4565b608086019081525f60a087018181524260c0890190815296825260046020526040909120965187559351600187015591516002860180546001600160a01b0319166001600160a01b039290921691909117905551805160038601916001600160401b03821161062f5781906110f88454611729565b601f8111611369575b50602090601f8311600114611306575f926112fb575b50508160011b915f199060031b1c19161790555b51805160048501916001600160401b03821161062f5761114b8354611729565b601f81116112b6575b50602090601f831160011461124b57918061119d949260069796945f92611240575b50508160011b915f199060031b1c19161790555b5161119481611648565b60058501611761565b51910155805f5260056020526111b960405f2060025490611779565b335f5260066020526111d160405f2060025490611779565b335f52600760205260405f20815f5260205260405f20600160ff19825416179055805f526003602052600760405f200161120b81546116d6565b905560025490604051914283527f0e8b56c005a50d3d9b2b55f002aa4fe387d86c6f563c2c74a14cd6fe22fedf7660203394a4005b015190508980611176565b90601f19831691845f52815f20925f5b81811061129e5750926001928592600699989661119d989610611286575b505050811b01905561118a565b01515f1960f88460031b161c19169055898080611279565b9293602060018192878601518155019501930161125b565b835f5260205f20601f840160051c810191602085106112f1575b601f0160051c01905b8181106112e65750611154565b5f81556001016112d9565b90915081906112d0565b015190508880611117565b5f8581528281209350601f198516905b8181106113515750908460019594939210611339575b505050811b01905561112b565b01515f1960f88460031b161c1916905588808061132c565b92936020600181928786015181550195019301611316565b909150835f5260205f20601f840160051c810191602085106113af575b90601f859493920160051c01905b8181106113a15750611101565b5f8155849350600101611394565b9091508190611386565b60405162461bcd60e51b815260206004820152602a60248201527f4f666672654d616e616765723a206c6574747265206465206d6f7469766174696044820152696f6e207265717569736560b01b6064820152608490fd5b60405162461bcd60e51b815260206004820152601760248201527f4f666672654d616e616765723a204356207265717569730000000000000000006044820152606490fd5b60405162461bcd60e51b815260206004820152601a60248201527f4f666672654d616e616765723a2064656a6120706f7374756c650000000000006044820152606490fd5b60405162461bcd60e51b815260206004820152601e60248201527f4f666672654d616e616765723a206f66667265206e6f6e2061637469766500006044820152606490fd5b60405162461bcd60e51b815260206004820152602160248201527f4f666672654d616e616765723a206574756469616e7420756e697175656d656e6044820152601d60fa1b6064820152608490fd5b611548915060203d60201161092d5761091f818361169d565b86610fe7565b346100e7575f3660031901126100e757600a548082526020820190600a5f527fc65a7bb8d6351c1cf70c95a316cc6a92839c986682d98bc35f958f4883f9d2a8905f5b8181106115a8576102ab8561029f8187038261169d565b8254845260209093019260019283019201611591565b60206040818301928281528451809452019201905f5b8181106115e15750505090565b82518452602093840193909201916001016115d4565b9181601f840112156100e7578235916001600160401b0383116100e757602083818601950101116100e757565b805180835260209291819084018484015e5f828201840152601f01601f1916010190565b6003111561165257565b634e487b7160e01b5f52602160045260245ffd5b60e081019081106001600160401b0382111761062f57604052565b61014081019081106001600160401b0382111761062f57604052565b90601f801991011681019081106001600160401b0382111761062f57604052565b908160209103126100e7575180151581036100e75790565b5f198114610acd5760010190565b9291926001600160401b03821161062f576040519161170d601f8201601f19166020018461169d565b8294818452818301116100e7578281602093845f960137010152565b90600182811c92168015611757575b602083101461174357565b634e487b7160e01b5f52602260045260245ffd5b91607f1691611738565b9061176b81611648565b60ff80198354169116179055565b805490600160401b82101561062f576001820180825582101561061b575f5260205f200155565b9060405191825f8254926117b384611729565b808452936001811690811561181e57506001146117da575b506117d89250038361169d565b565b90505f9291925260205f20905f915b8183106118025750509060206117d8928201015f6117cb565b60209193508060019154838589010152019101909184926117e9565b9050602092506117d894915060ff191682840152151560051b8201015f6117cb565b1561184757565b60405162461bcd60e51b815260206004820152601b60248201527f4f666672654d616e616765723a20524820756e697175656d656e7400000000006044820152606490fd5b1561189357565b60405162461bcd60e51b815260206004820152602560248201527f4f666672654d616e616765723a2063616e646964617475726520696e6578697360448201526474616e746560d81b6064820152608490fd5b156118ed57565b60405162461bcd60e51b815260206004820152601d60248201527f4f666672654d616e616765723a2070617320766f747265206f666672650000006044820152606490fd5b1561193957565b60405162461bcd60e51b815260206004820152601a60248201527f4f666672654d616e616765723a2064656a6120747261697465650000000000006044820152606490fdfea26469706673582212202da00b7d795bf2562d1d345901a001757c65dbd13123b6aa7cec1eab947998c864736f6c634300081c0033",
  "linkReferences": {},
  "deployedLinkReferences": {},
  "immutableReferences": {},
  "inputSourceName": "project/contracts/SC2_OffreManager.sol",
  "buildInfoId": "solc-0_8_28-b46f0e05dff82e20e848cee071e572db398628b1"
}