{
  "_format": "hh3-artifact-1",
  "contractName": "RapportManager",
  "sourceName": "contracts/SC5_RapportManager.sol",
  "abi": [
    {
      "inputs": [
        {
          "internalType": "address",
          "name": "_accountManager",
          "type": "address"
        },
        {
          "internalType": "address",
          "name": "_conventionManager",
          "type": "address"
        }
      ],
      "stateMutability": "nonpayable",
      "type": "constructor"
    },
    {
      "anonymous": false,
      "inputs": [
        {
          "indexed": true,
          "internalType": "uint256",
          "name": "rapportId",
          "type": "uint256"
        },
        {
          "indexed": false,
          "internalType": "uint8",
          "name": "note",
          "type": "uint8"
        },
        {
          "indexed": false,
          "internalType": "uint256",
          "name": "date",
          "type": "uint256"
        }
      ],
      "name": "NoteEncadrantDeposee",
      "type": "event"
    },
    {
      "anonymous": false,
      "inputs": [
        {
          "indexed": true,
          "internalType": "uint256",
          "name": "rapportId",
          "type": "uint256"
        },
        {
          "indexed": true,
          "internalType": "address",
          "name": "etudiant",
          "type": "address"
        },
        {
          "indexed": false,
          "internalType": "uint256",
          "name": "noteFinale",
          "type": "uint256"
        },
        {
          "indexed": false,
          "internalType": "uint256",
          "name": "date",
          "type": "uint256"
        }
      ],
      "name": "NoteFinaleCalculee",
      "type": "event"
    },
    {
      "anonymous": false,
      "inputs": [
        {
          "indexed": true,
          "internalType": "uint256",
          "name": "rapportId",
          "type": "uint256"
        },
        {
          "indexed": false,
          "internalType": "uint8",
          "name": "note",
          "type": "uint8"
        },
        {
          "indexed": false,
          "internalType": "uint256",
          "name": "date",
          "type": "uint256"
        }
      ],
      "name": "NoteRHDeposee",
      "type": "event"
    },
    {
      "anonymous": false,
      "inputs": [
        {
          "indexed": true,
          "internalType": "uint256",
          "name": "rapportId",
          "type": "uint256"
        },
        {
          "indexed": true,
          "internalType": "address",
          "name": "etudiant",
          "type": "address"
        },
        {
          "indexed": false,
          "internalType": "uint256",
          "name": "date",
          "type": "uint256"
        }
      ],
      "name": "RapportFinalDepose",
      "type": "event"
    },
    {
      "inputs": [],
      "name": "accountManager",
      "outputs": [
        {
          "internalType": "contract AccountManager",
          "name": "",
          "type": "address"
        }
      ],
      "stateMutability": "view",
      "type": "function"
    },
    {
      "inputs": [],
      "name": "conventionManager",
      "outputs": [
        {
          "internalType": "contract ConventionManager",
          "name": "",
          "type": "address"
        }
      ],
      "stateMutability": "view",
      "type": "function"
    },
    {
      "inputs": [
        {
          "internalType": "string",
          "name": "_cidRapport",
          "type": "string"
        }
      ],
      "name": "deposerRapportFinal",
      "outputs": [],
      "stateMutability": "nonpayable",
      "type": "function"
    },
    {
      "inputs": [
        {
          "internalType": "address",
          "name": "_etudiant",
          "type": "address"
        }
      ],
      "name": "getRapportByEtudiant",
      "outputs": [
        {
          "components": [
            {
              "internalType": "uint256",
              "name": "id",
              "type": "uint256"
            },
            {
              "internalType": "address",
              "name": "etudiant",
              "type": "address"
            },
            {
              "internalType": "string",
              "name": "cidRapportFinal",
              "type": "string"
            },
            {
              "internalType": "uint8",
              "name": "noteRH",
              "type": "uint8"
            },
            {
              "internalType": "uint8",
              "name": "noteEncadrant",
              "type": "uint8"
            },
            {
              "internalType": "uint256",
              "name": "noteFinale",
              "type": "uint256"
            },
            {
              "internalType": "bool",
              "name": "noteRHDeposee",
              "type": "bool"
            },
            {
              "internalType": "bool",
              "name": "noteEncadrantDeposee",
              "type": "bool"
            },
            {
              "internalType": "bool",
              "name": "noteCalculee",
              "type": "bool"
            },
            {
              "internalType": "uint256",
              "name": "createdAt",
              "type": "uint256"
            }
          ],
          "internalType": "struct RapportManager.RapportFinal",
          "name": "",
          "type": "tuple"
        }
      ],
      "stateMutability": "view",
      "type": "function"
    },
    {
      "inputs": [
        {
          "internalType": "uint256",
          "name": "_rapportId",
          "type": "uint256"
        }
      ],
      "name": "getRapportFinal",
      "outputs": [
        {
          "components": [
            {
              "internalType": "uint256",
              "name": "id",
              "type": "uint256"
            },
            {
              "internalType": "address",
              "name": "etudiant",
              "type": "address"
            },
            {
              "internalType": "string",
              "name": "cidRapportFinal",
              "type": "string"
            },
            {
              "internalType": "uint8",
              "name": "noteRH",
              "type": "uint8"
            },
            {
              "internalType": "uint8",
              "name": "noteEncadrant",
              "type": "uint8"
            },
            {
              "internalType": "uint256",
              "name": "noteFinale",
              "type": "uint256"
            },
            {
              "internalType": "bool",
              "name": "noteRHDeposee",
              "type": "bool"
            },
            {
              "internalType": "bool",
              "name": "noteEncadrantDeposee",
              "type": "bool"
            },
            {
              "internalType": "bool",
              "name": "noteCalculee",
              "type": "bool"
            },
            {
              "internalType": "uint256",
              "name": "createdAt",
              "type": "uint256"
            }
          ],
          "internalType": "struct RapportManager.RapportFinal",
          "name": "",
          "type": "tuple"
        }
      ],
      "stateMutability": "view",
      "type": "function"
    },
    {
      "inputs": [
        {
          "internalType": "address",
          "name": "_etudiant",
          "type": "address"
        }
      ],
      "name": "isNoteCalculee",
      "outputs": [
        {
          "internalType": "bool",
          "name": "",
          "type": "bool"
        }
      ],
      "stateMutability": "view",
      "type": "function"
    },
    {
      "inputs": [
        {
          "internalType": "uint256",
          "name": "_rapportId",
          "type": "uint256"
        },
        {
          "internalType": "uint8",
          "name": "_note",
          "type": "uint8"
        }
      ],
      "name": "noterParEncadrant",
      "outputs": [],
      "stateMutability": "nonpayable",
      "type": "function"
    },
    {
      "inputs": [
        {
          "internalType": "uint256",
          "name": "_rapportId",
          "type": "uint256"
        },
        {
          "internalType": "uint8",
          "name": "_note",
          "type": "uint8"
        }
      ],
      "name": "noterParRH",
      "outputs": [],
      "stateMutability": "nonpayable",
      "type": "function"
    },
    {
      "inputs": [
        {
          "internalType": "address",
          "name": "",
          "type": "address"
        }
      ],
      "name": "rapportParEtudiant",
      "outputs": [
        {
          "internalType": "uint256",
          "name": "",
          "type": "uint256"
        }
      ],
      "stateMutability": "view",
      "type": "function"
    }
  ],
  "bytecode": "0x608034608557601f61127738819003918201601f19168301916001600160401b038311848410176089578084926040948552833981010312608557604b6020604583609d565b9201609d565b5f80546001600160a01b039384166001600160a01b031991821617909155600180549290931691161790556040516111c690816100b18239f35b5f80fd5b634e487b7160e01b5f52604160045260245ffd5b51906001600160a01b038216820360855756fe60806040526004361015610011575f80fd5b5f3560e01c806302d7ff6914610d345780630575b07714610b4f5780634c383a4e1461049857806369d32d741461032957806377fbdd6c146102d657806391c2c469146102af5780639484752f14610273578063a17493e5146100a85763b589f6d01461007c575f80fd5b346100a4575f3660031901126100a4576001546040516001600160a01b039091168152602090f35b5f80fd5b346100a4576100b636610f09565b5f5460405163dc35a8ed60e01b81523360048201526003602482015290602090829060449082906001600160a01b03165afa908115610268575f9161022e575b50156101e95761010c601460ff83161115611016565b815f52600360205260405f20916101258354151561106e565b600583019060ff8254166101985760038401805460ff94851660ff19918216811790925583541660011792839055604080519182524260208301527f1f9c3d109063fff7f5a6093e7f5f6a4f901a31ca1b36454525546007a5b5ea5091a260081c1661018d57005b610196906110f5565b005b60405162461bcd60e51b8152602060048201526024808201527f526170706f72744d616e616765723a206e6f74652052482064656a61206465706044820152636f73656560e01b6064820152608490fd5b60405162461bcd60e51b815260206004820152601d60248201527f526170706f72744d616e616765723a20524820756e697175656d656e740000006044820152606490fd5b90506020813d602011610260575b8161024960209383610f46565b810103126100a45761025a90610feb565b836100f6565b3d915061023c565b6040513d5f823e3d90fd5b346100a45760203660031901126100a4576004356001600160a01b038116908190036100a4575f526004602052602060405f2054604051908152f35b346100a4575f3660031901126100a4575f546040516001600160a01b039091168152602090f35b346100a45760203660031901126100a4576004356001600160a01b038116908190036100a4575f52600460205260405f20545f526003602052602060ff600560405f20015460101c166040519015158152f35b346100a45760203660031901126100a457600435610345610f68565b50805f52600360205261035d60405f2054151561106e565b5f52600360205260405f2060405161037481610f29565b8154815260018201546001600160a01b031660208201526040516002830180545f9161039f82610fb3565b80855291600181169081156104715750600114610434575b61043085600688876103cb81890382610f46565b604084015260ff6003820154818116606086015260081c166080840152600481015460a084015260ff6005820154818116151560c0860152818160081c16151560e086015260101c161515610100840152015461012082015260405191829182610e64565b0390f35b5f908152602081209092505b8183106104575750508101602001816103cb6103b7565b600181602092949394548385880101520191019190610440565b60ff191660208087019190915292151560051b850190920192508391506103cb90506103b7565b346100a45760203660031901126100a45760043567ffffffffffffffff81116100a457366023820112156100a457806004013567ffffffffffffffff81116100a45736602482840101116100a4575f5460405163dc35a8ed60e01b81523360048201526001602482015290602090829060449082906001600160a01b03165afa908115610268575f91610b15575b5015610ac4576001546040516313f7c45360e11b8152336004820152905f90829060249082906001600160a01b03165afa908115610268575f91610949575b50610140600491015161057781610ff8565b61058081610ff8565b036108f457335f52600460205260405f20546108a357801561085e576002545f19811461084a5760010180600255604051916105bb83610f29565b8183525f6020808501923384528060246105d4826110d9565b986105e26040519a8b610f46565b828a520183890137860101526040830193845260608301905f8252608084015f815260a085015f815260c08601935f855260e08701925f84526101008801945f86526101208901974289525f52600360205260405f2098518955600189019060018060a01b039051166bffffffffffffffffffffffff60a01b82541617905560028801985198895167ffffffffffffffff8111610836576106838254610fb3565b601f81116107f1575b506020601f82116001146107845791816106ed95949260ff9460069d9e5f92610779575b50508160011b915f199060031b1c19161790555b818060038d01945116168219845416178355511661ff0082549160081b169061ff001916179055565b516004870155600586019251151560ff8019855416911617835551151561ff0083549160081b169061ff00191617825551151562ff000082549160101b169062ff0000191617905551910155600254335f5260046020528060405f2055604051904282527f406c030eba70c08e01c62ef2d453cb29e9248f2fd250b57b1ab5d7c3e754122960203393a3005b015190508e806106b0565b601f1982169b835f52815f209c5f5b8181106107d957509260069c9d60ff9593600193836106ed9a9997106107c1575b505050811b0190556106c4565b01515f1960f88460031b161c191690558e80806107b4565b838301518f556001909e019d60209384019301610793565b825f5260205f20601f830160051c8101916020841061082c575b601f0160051c01905b818110610821575061068c565b5f8155600101610814565b909150819061080b565b634e487b7160e01b5f52604160045260245ffd5b634e487b7160e01b5f52601160045260245ffd5b60405162461bcd60e51b815260206004820152601a60248201527f526170706f72744d616e616765723a20434944207265717569730000000000006044820152606490fd5b60405162461bcd60e51b815260206004820152602360248201527f526170706f72744d616e616765723a20726170706f72742064656a61206465706044820152626f736560e81b6064820152608490fd5b60405162461bcd60e51b815260206004820152602760248201527f526170706f72744d616e616765723a20636f6e76656e74696f6e206e6f6e20636044820152666f6d706c65746560c81b6064820152608490fd5b90503d805f833e61095a8183610f46565b8101906020818303126100a45780519067ffffffffffffffff82116100a457016101a0818303126100a457604051916101a0830183811067ffffffffffffffff8211176108365760405281518352602082015160208401526109be604083016110c5565b60408401526109cf606083016110c5565b60608401526109e0608083016110c5565b60808401526109f160a083016110c5565b60a084015260c082015167ffffffffffffffff81116100a457820181601f820112156100a457805190610a23826110d9565b92610a316040519485610f46565b828452602083830101116100a457815f9260208093018386015e8301015260c0830152610a6060e08201610feb565b60e0830152610a726101008201610feb565b610100830152610a856101208201610feb565b6101208301526101408101519160058310156100a457610180610140926004948484015261016081015161016084015201516101808201529150610565565b60405162461bcd60e51b815260206004820152602360248201527f526170706f72744d616e616765723a206574756469616e7420756e697175656d604482015262195b9d60ea1b6064820152608490fd5b90506020813d602011610b47575b81610b3060209383610f46565b810103126100a457610b4190610feb565b83610526565b3d9150610b23565b346100a457610b5d36610f09565b5f5460405163dc35a8ed60e01b81523360048201526002602482015290602090829060449082906001600160a01b03165afa908115610268575f91610cfa575b5015610ca957610bb3601460ff83161115611016565b815f52600360205260405f2091610bcc8354151561106e565b600583019060ff825460081c16610c505760038401805461ff001916600885901b61ff001617905560ff927f0302b83a2247df9de29c5166d9d842791f6a2419d2f1959bf156d0ac2152e45390610c4690845461ff00198116610100179095556040805160ff909216825242602083015290918291820190565b0390a21661018d57005b60405162461bcd60e51b815260206004820152602b60248201527f526170706f72744d616e616765723a206e6f746520656e63616472616e74206460448201526a656a61206465706f73656560a81b6064820152608490fd5b60405162461bcd60e51b8152602060048201526024808201527f526170706f72744d616e616765723a20656e63616472616e7420756e697175656044820152631b595b9d60e21b6064820152608490fd5b90506020813d602011610d2c575b81610d1560209383610f46565b810103126100a457610d2690610feb565b83610b9d565b3d9150610d08565b346100a45760203660031901126100a4576004356001600160a01b038116908190036100a457610d62610f68565b505f52600460205260405f20548015610e1f575f52600360205260405f20604051610d8c81610f29565b8154815260018201546001600160a01b031660208201526040516002830180545f91610db782610fb3565b80855291600181169081156104715750600114610de25761043085600688876103cb81890382610f46565b5f908152602081209092505b818310610e055750508101602001816103cb6103b7565b600181602092949394548385880101520191019190610dee565b60405162461bcd60e51b815260206004820152601d60248201527f526170706f72744d616e616765723a20617563756e20726170706f72740000006044820152606490fd5b60206101206101809382845280518385015260018060a01b038382015116604085015260408101516101406060860152805193849182610160880152018686015e5f85848601015260ff606082015116608085015260ff60808201511660a085015260a081015160c085015260c0810151151560e085015260e081015115156101008501526101008101511515828501520151610140830152601f8019910116010190565b60409060031901126100a4576004359060243560ff811681036100a45790565b610140810190811067ffffffffffffffff82111761083657604052565b90601f8019910116810190811067ffffffffffffffff82111761083657604052565b60405190610f7582610f29565b5f61012083828152826020820152606060408201528260608201528260808201528260a08201528260c08201528260e0820152826101008201520152565b90600182811c92168015610fe1575b6020831014610fcd57565b634e487b7160e01b5f52602260045260245ffd5b91607f1691610fc2565b519081151582036100a457565b6005111561100257565b634e487b7160e01b5f52602160045260245ffd5b1561101d57565b60405162461bcd60e51b8152602060048201526024808201527f526170706f72744d616e616765723a206e6f746520696e76616c6964652028306044820152632d32302960e01b6064820152608490fd5b1561107557565b60405162461bcd60e51b815260206004820152602260248201527f526170706f72744d616e616765723a20726170706f727420696e6578697374616044820152611b9d60f21b6064820152608490fd5b51906001600160a01b03821682036100a457565b67ffffffffffffffff811161083657601f01601f191660200190565b60038101549060ff821691603c830292808404603c149015171561084a5760ff9060081c1660288102908082046028149015171561084a57820180921161084a57816004820155600581016201000062ff0000198254161790557f9d8e16a2eaff94797ca5672463bb35229e7beeb48f152736ebd9c6a9b7f9eaf260408254926001808060a01b0391015416938151908152426020820152a356fea2646970667358221220ce6eb6dc97b3954947e7324fded671fa9d095d1bfbdda93dc2011a2ad82314a764736f6c634300081c0033",
  "linkReferences": {},
  "deployedLinkReferences": {},
  "immutableReferences": {},
  "inputSourceName": "project/contracts/SC5_RapportManager.sol",
  "buildInfoId": "solc-0_8_28-b46f0e05dff82e20e848cee071e572db398628b1"
}