{
  "_format": "hh3-artifact-1",
  "contractName": "RapportManager",
  "sourceName": "contracts/SC6_RapportManager.sol",
  "abi": [
    {
      "inputs": [
        {
          "internalType": "address",
          "name": "_userManager",
          "type": "address"
        },
        {
          "internalType": "address",
          "name": "_conventionManager",
          "type": "address"
        }
      ],
      "stateMutability": "nonpayable",
      "type": "constructor"
    },
    {
      "anonymous": false,
      "inputs": [
        {
          "indexed": true,
          "internalType": "address",
          "name": "etudiant",
          "type": "address"
        },
        {
          "indexed": false,
          "internalType": "string",
          "name": "cidIPFS",
          "type": "string"
        },
        {
          "indexed": false,
          "internalType": "uint256",
          "name": "version",
          "type": "uint256"
        },
        {
          "indexed": false,
          "internalType": "uint256",
          "name": "date",
          "type": "uint256"
        }
      ],
      "name": "RapportDepose",
      "type": "event"
    },
    {
      "anonymous": false,
      "inputs": [
        {
          "indexed": true,
          "internalType": "uint256",
          "name": "rapportId",
          "type": "uint256"
        },
        {
          "indexed": true,
          "internalType": "address",
          "name": "valideur",
          "type": "address"
        },
        {
          "indexed": false,
          "internalType": "uint256",
          "name": "date",
          "type": "uint256"
        }
      ],
      "name": "RapportRejete",
      "type": "event"
    },
    {
      "anonymous": false,
      "inputs": [
        {
          "indexed": true,
          "internalType": "address",
          "name": "etudiant",
          "type": "address"
        },
        {
          "indexed": false,
          "internalType": "string",
          "name": "cidIPFS",
          "type": "string"
        },
        {
          "indexed": false,
          "internalType": "uint256",
          "name": "noteFinale_x10",
          "type": "uint256"
        },
        {
          "indexed": false,
          "internalType": "uint256",
          "name": "date",
          "type": "uint256"
        }
      ],
      "name": "RapportValide",
      "type": "event"
    },
    {
      "anonymous": false,
      "inputs": [
        {
          "indexed": true,
          "internalType": "uint256",
          "name": "rapportId",
          "type": "uint256"
        },
        {
          "indexed": true,
          "internalType": "address",
          "name": "auteur",
          "type": "address"
        },
        {
          "indexed": false,
          "internalType": "uint256",
          "name": "date",
          "type": "uint256"
        }
      ],
      "name": "RemarqueAjoutee",
      "type": "event"
    },
    {
      "anonymous": false,
      "inputs": [
        {
          "indexed": true,
          "internalType": "uint256",
          "name": "rapportId",
          "type": "uint256"
        },
        {
          "indexed": true,
          "internalType": "address",
          "name": "valideur",
          "type": "address"
        },
        {
          "indexed": false,
          "internalType": "uint8",
          "name": "note",
          "type": "uint8"
        },
        {
          "indexed": false,
          "internalType": "uint256",
          "name": "date",
          "type": "uint256"
        }
      ],
      "name": "ValidationEnregistree",
      "type": "event"
    },
    {
      "inputs": [
        {
          "internalType": "uint256",
          "name": "_rapportId",
          "type": "uint256"
        },
        {
          "internalType": "string",
          "name": "_contenu",
          "type": "string"
        }
      ],
      "name": "ajouterRemarque",
      "outputs": [],
      "stateMutability": "nonpayable",
      "type": "function"
    },
    {
      "inputs": [],
      "name": "certifManagerAddr",
      "outputs": [
        {
          "internalType": "address",
          "name": "",
          "type": "address"
        }
      ],
      "stateMutability": "view",
      "type": "function"
    },
    {
      "inputs": [],
      "name": "conventionManager",
      "outputs": [
        {
          "internalType": "contract ConventionManager",
          "name": "",
          "type": "address"
        }
      ],
      "stateMutability": "view",
      "type": "function"
    },
    {
      "inputs": [
        {
          "internalType": "string",
          "name": "_cidIPFS",
          "type": "string"
        }
      ],
      "name": "deposerRapport",
      "outputs": [],
      "stateMutability": "nonpayable",
      "type": "function"
    },
    {
      "inputs": [
        {
          "internalType": "address",
          "name": "_etudiant",
          "type": "address"
        }
      ],
      "name": "getDernierCID",
      "outputs": [
        {
          "internalType": "string",
          "name": "",
          "type": "string"
        }
      ],
      "stateMutability": "view",
      "type": "function"
    },
    {
      "inputs": [
        {
          "internalType": "address",
          "name": "_etudiant",
          "type": "address"
        }
      ],
      "name": "getNoteFinale",
      "outputs": [
        {
          "internalType": "uint256",
          "name": "",
          "type": "uint256"
        }
      ],
      "stateMutability": "view",
      "type": "function"
    },
    {
      "inputs": [
        {
          "internalType": "uint256",
          "name": "_id",
          "type": "uint256"
        }
      ],
      "name": "getRapport",
      "outputs": [
        {
          "components": [
            {
              "internalType": "uint256",
              "name": "id",
              "type": "uint256"
            },
            {
              "internalType": "address",
              "name": "etudiantWallet",
              "type": "address"
            },
            {
              "internalType": "string[]",
              "name": "cidsIPFS",
              "type": "string[]"
            },
            {
              "internalType": "enum RapportManager.Statut",
              "name": "statut",
              "type": "uint8"
            },
            {
              "internalType": "bool",
              "name": "valideParTuteur",
              "type": "bool"
            },
            {
              "internalType": "uint8",
              "name": "noteTuteur",
              "type": "uint8"
            },
            {
              "internalType": "uint256",
              "name": "dateTuteur",
              "type": "uint256"
            },
            {
              "internalType": "bool",
              "name": "valideParEncadrant",
              "type": "bool"
            },
            {
              "internalType": "uint8",
              "name": "noteEncadrant",
              "type": "uint8"
            },
            {
              "internalType": "uint256",
              "name": "dateEncadrant",
              "type": "uint256"
            },
            {
              "internalType": "bool",
              "name": "noteCalculee",
              "type": "bool"
            },
            {
              "internalType": "uint256",
              "name": "noteFinale_x10",
              "type": "uint256"
            },
            {
              "internalType": "uint256",
              "name": "premierDepotAt",
              "type": "uint256"
            },
            {
              "internalType": "uint256",
              "name": "dernierDepotAt",
              "type": "uint256"
            }
          ],
          "internalType": "struct RapportManager.RapportFinal",
          "name": "",
          "type": "tuple"
        }
      ],
      "stateMutability": "view",
      "type": "function"
    },
    {
      "inputs": [
        {
          "internalType": "address",
          "name": "_etudiant",
          "type": "address"
        }
      ],
      "name": "getRapportByEtudiant",
      "outputs": [
        {
          "components": [
            {
              "internalType": "uint256",
              "name": "id",
              "type": "uint256"
            },
            {
              "internalType": "address",
              "name": "etudiantWallet",
              "type": "address"
            },
            {
              "internalType": "string[]",
              "name": "cidsIPFS",
              "type": "string[]"
            },
            {
              "internalType": "enum RapportManager.Statut",
              "name": "statut",
              "type": "uint8"
            },
            {
              "internalType": "bool",
              "name": "valideParTuteur",
              "type": "bool"
            },
            {
              "internalType": "uint8",
              "name": "noteTuteur",
              "type": "uint8"
            },
            {
              "internalType": "uint256",
              "name": "dateTuteur",
              "type": "uint256"
            },
            {
              "internalType": "bool",
              "name": "valideParEncadrant",
              "type": "bool"
            },
            {
              "internalType": "uint8",
              "name": "noteEncadrant",
              "type": "uint8"
            },
            {
              "internalType": "uint256",
              "name": "dateEncadrant",
              "type": "uint256"
            },
            {
              "internalType": "bool",
              "name": "noteCalculee",
              "type": "bool"
            },
            {
              "internalType": "uint256",
              "name": "noteFinale_x10",
              "type": "uint256"
            },
            {
              "internalType": "uint256",
              "name": "premierDepotAt",
              "type": "uint256"
            },
            {
              "internalType": "uint256",
              "name": "dernierDepotAt",
              "type": "uint256"
            }
          ],
          "internalType": "struct RapportManager.RapportFinal",
          "name": "",
          "type": "tuple"
        }
      ],
      "stateMutability": "view",
      "type": "function"
    },
    {
      "inputs": [
        {
          "internalType": "uint256",
          "name": "_rapportId",
          "type": "uint256"
        }
      ],
      "name": "getRemarques",
      "outputs": [
        {
          "components": [
            {
              "internalType": "address",
              "name": "auteur",
              "type": "address"
            },
            {
              "internalType": "string",
              "name": "contenu",
              "type": "string"
            },
            {
              "internalType": "uint256",
              "name": "dateAt",
              "type": "uint256"
            }
          ],
          "internalType": "struct RapportManager.Remarque[]",
          "name": "",
          "type": "tuple[]"
        }
      ],
      "stateMutability": "view",
      "type": "function"
    },
    {
      "inputs": [
        {
          "internalType": "address",
          "name": "_etudiant",
          "type": "address"
        }
      ],
      "name": "isRapportValide",
      "outputs": [
        {
          "internalType": "bool",
          "name": "",
          "type": "bool"
        }
      ],
      "stateMutability": "view",
      "type": "function"
    },
    {
      "inputs": [
        {
          "internalType": "uint256",
          "name": "_rapportId",
          "type": "uint256"
        }
      ],
      "name": "rejeter",
      "outputs": [],
      "stateMutability": "nonpayable",
      "type": "function"
    },
    {
      "inputs": [
        {
          "internalType": "address",
          "name": "_addr",
          "type": "address"
        }
      ],
      "name": "setCertifManager",
      "outputs": [],
      "stateMutability": "nonpayable",
      "type": "function"
    },
    {
      "inputs": [],
      "name": "userManager",
      "outputs": [
        {
          "internalType": "contract UserManager",
          "name": "",
          "type": "address"
        }
      ],
      "stateMutability": "view",
      "type": "function"
    },
    {
      "inputs": [
        {
          "internalType": "uint256",
          "name": "_rapportId",
          "type": "uint256"
        },
        {
          "internalType": "uint8",
          "name": "_note",
          "type": "uint8"
        }
      ],
      "name": "valider",
      "outputs": [],
      "stateMutability": "nonpayable",
      "type": "function"
    }
  ],
  "bytecode": "0x608034608c57601f611c3a38819003918201601f19168301916001600160401b038311848410176090578084926040948552833981010312608c57604b602060458360a4565b920160a4565b600160038190555f80546001600160a01b03199081166001600160a01b039586161790915581541692909116919091179055604051611b8290816100b88239f35b5f80fd5b634e487b7160e01b5f52604160045260245ffd5b51906001600160a01b0382168203608c5756fe60806040526004361015610011575f80fd5b5f3560e01c806302d7ff69146113ae578063139f2e081461108a57806330333bdb14610ffe57806338c3549014610e845780635811983c146109675780635c8a7687146109405780637f0ea329146109185780638d0f05be14610583578063b589f6d01461055b578063b5f7123f14610493578063c4a33d81146103bd578063c4d2fc991461034e578063d53b638c1461022d5763eec256f6146100b3575f80fd5b34610229576020366003190112610229576004356100cf61173a565b50805f5260046020526100e760405f20541515611891565b5f52600460205260405f206040516100fe816116df565b8154815260018201546001600160a01b03166020820152600282018054610124816117a1565b916101326040519384611718565b81835260208301905f5260205f205f915b83831061020c57505050506040820152600382015460ff81169260038410156101f85760ff600a926101f4956060860152818160081c161515608086015260101c1660a0840152600481015460c084015260ff6005820154818116151560e086015260081c16610100840152600681015461012084015260ff60078201541615156101408401526008810154610160840152600981015461018084015201546101a08201526040519182918261159a565b0390f35b634e487b7160e01b5f52602160045260245ffd5b60016020819261021b856117f1565b815201920192019190610143565b5f80fd5b34610229576020366003190112610229576004355f52600660205260405f20805490610258826117a1565b916102666040519384611718565b8083526020830180925f5260205f205f915b83831061030957848660405191829160208301906020845251809152604083019060408160051b85010192915f905b8282106102b657505050500390f35b919360019193955060208091603f19898203018552875190848060a01b0382511681526040806102f3858501516060878601526060850190611576565b93015191015296019201920185949391926102a7565b6003602060019260405161031c816116fc565b848060a01b0386541681526103328587016117f1565b8382015260028601546040820152815201920192019190610278565b34610229576020366003190112610229576004356001600160a01b03811690819003610229575f52600560205260405f205480151580610396575b6020906040519015158152f35b505f52600460205260ff600360405f2001541660038110156101f857600260209114610389565b34610229576020366003190112610229576004356001600160a01b03811690819003610229575f52600560205260405f2054801561044e575f526004602052600260405f200180545f19810190811161043a57610420610426916101f493611a05565b506117f1565b604051918291602083526020830190611576565b634e487b7160e01b5f52601160045260245ffd5b60405162461bcd60e51b815260206004820152601d60248201527f526170706f72744d616e616765723a20617563756e20726170706f72740000006044820152606490fd5b34610229576020366003190112610229576004356001600160a01b03811690819003610229575f52600560205260405f205480151580610542575b156104ec575f5260046020526020600860405f200154604051908152f35b60405162461bcd60e51b815260206004820152602860248201527f526170706f72744d616e616765723a206e6f7465206e6f6e20656e636f72652060448201526763616c63756c656560c01b6064820152608490fd5b50805f52600460205260ff600760405f200154166104ce565b34610229575f366003190112610229576001546040516001600160a01b039091168152602090f35b346102295760203660031901126102295760043567ffffffffffffffff8111610229576105b49036906004016116b1565b5f5460405163dc35a8ed60e01b81523360048201526001602482015290602090829060449082906001600160a01b03165afa908115610894575f916108f9575b501561089f5760015460405163043ad6d560e31b815233600482015290602090829060249082906001600160a01b03165afa908115610894575f91610865575b501561080f57335f52600560205260405f205480155f1461070d5750906003545f19811461043a57600180820160039081555f83815260046020526040902083815591820180546001600160a01b031916331790558101805460ff191690554260098201819055600a8201557f7b7c5782f68e477d3021aff76f51a9f37150346aa74cce996b585a1ab24f4142926106f79290916106d89086908490600201611a32565b335f52600560205260405f205560405193606085526060850191611b2c565b91600160208201524260408201528033930390a2005b5f52600460205260405f2090600382019160ff83541660038110156101f8576002146107be5760026107aa917f7b7c5782f68e477d3021aff76f51a9f37150346aa74cce996b585a1ab24f41429460ff19815416815542600a83015561ff001981541690556005810160ff1981541690556007810160ff19815416905501610796838683611a32565b549360405192606084526060840191611b2c565b9260208201524260408201528033930390a2005b60405162461bcd60e51b815260206004820152602360248201527f526170706f72744d616e616765723a20726170706f72742064656a612076616c60448201526269646560e81b6064820152608490fd5b60405162461bcd60e51b815260206004820152602860248201527f526170706f72744d616e616765723a20617563756e6520636f6e76656e74696f6044820152676e2061637469766560c01b6064820152608490fd5b610887915060203d60201161088d575b61087f8183611718565b810190611a1a565b83610634565b503d610875565b6040513d5f823e3d90fd5b60405162461bcd60e51b815260206004820152602c60248201527f526170706f72744d616e616765723a206574756469616e74206175746f72697360448201526b19481d5b9a5c5d595b595b9d60a21b6064820152608490fd5b610912915060203d60201161088d5761087f8183611718565b836105f4565b34610229575f366003190112610229576002546040516001600160a01b039091168152602090f35b34610229575f366003190112610229575f546040516001600160a01b039091168152602090f35b346102295760403660031901126102295760043560243560ff81169182820361022957805f5260046020526109a160405f20541515611891565b805f52600460205260018060a01b03600160405f2001541660018060a01b036001541693604051916346df49ed60e11b8352806004840152602083602481895afa928315610894575f93610e63575b506040519063082af8c760e41b82526004820152602081602481895afa801561089457601493610a3b925f92610e42575b506001600160a01b03163314908115610e2f575b50611907565b11610ddb57805f52600460205260405f2091600383019160ff83541660038110156101f857610a6a90156119b9565b60018401546040516346df49ed60e11b81526001600160a01b039091166004820181905295602082602481845afa908115610894576024925f92610db9575b506020906040519384809263082af8c760e41b82528b60048301525afa918215610894575f92610d88575b50336001600160a01b039190911603610cad5750825460ff8160081c16610c5c5762ffff001916601083901b62ff0000161761010017835542600485018190556040805160ff9094168452602084019190915233927ffb43cdc2400c90628d31bd75cb7c23d042fbd6378f5a3c6e4e8a930d7ab870ed91819081010390a35b805460ff8160081c1680610c4e575b80610c3f575b610b6e57005b60ff9060101c169160068302928084046006149015171561043a5760058101546103fc60ff8260081c169160061c16908082046004149015171561043a57830180931161043a576002916008820193845560078201600160ff198254161790558260ff19825416179055018054915f19830192831161043a57610c186104207f366ee1134e5057eb80c4aa8706fa24379f6e82a39330378a6ea6677dae799be994610c2e94611a05565b9054604051928392606084526060840190611576565b9060208301524260408301520390a2005b5060ff60078401541615610b68565b5060ff600584015416610b62565b60405162461bcd60e51b8152602060048201526024808201527f526170706f72744d616e616765723a2074757465757220612064656a612076616044820152636c69646560e01b6064820152608490fd5b6001600160a01b03163314610cc4575b5050610b53565b60058401805460ff8116610d335761ffff1916600884901b61ff001617600117905542600685018190556040805160ff9094168452602084019190915233927ffb43cdc2400c90628d31bd75cb7c23d042fbd6378f5a3c6e4e8a930d7ab870ed91819081010390a38380610cbd565b60405162461bcd60e51b815260206004820152602760248201527f526170706f72744d616e616765723a20656e63616472616e7420612064656a616044820152662076616c69646560c81b6064820152608490fd5b610dab91925060203d602011610db2575b610da38183611718565b8101906118e8565b9087610ad4565b503d610d99565b6020919250610dd490823d8411610db257610da38183611718565b9190610aa9565b60405162461bcd60e51b815260206004820152602660248201527f526170706f72744d616e616765723a206e6f746520696e76616c69646520286d60448201526561782032302960d01b6064820152608490fd5b6001600160a01b03163314905087610a35565b610e5c91925060203d602011610db257610da38183611718565b9088610a21565b610e7d91935060203d602011610db257610da38183611718565b91866109f0565b3461022957602036600319011261022957600435805f526004602052610eaf60405f20541515611891565b805f52600460205260018060a01b03600160405f2001541660018060a01b036001541690604051906346df49ed60e11b8252806004830152602082602481865afa918215610894575f92610fdc575b5060209060246040518095819363082af8c760e41b835260048301525afa90811561089457610f47925f92610fbb575b506001600160a01b03163314908115610fa85750611907565b805f526004602052600360405f200160ff81541660038110156101f857610f6e90156119b9565b600160ff19825416179055604051904282527ffed33c4dbb30951c3eaed1eea27d459bfdd46a85452a03bd73d3a3775886b42560203393a3005b6001600160a01b03163314905083610a35565b610fd591925060203d602011610db257610da38183611718565b9084610f2e565b6020919250610ff790823d8411610db257610da38183611718565b9190610efe565b34610229576020366003190112610229576004356001600160a01b03811690819003610229576002546001600160a01b038116611045576001600160a01b03191617600255005b60405162461bcd60e51b815260206004820152601b60248201527f526170706f72744d616e616765723a2064656a6120646566696e6900000000006044820152606490fd5b346102295760403660031901126102295760043560243567ffffffffffffffff8111610229576110be9036906004016116b1565b90825f5260046020526110d660405f20541515611891565b825f52600460205260018060a01b03600160405f2001541660018060a01b036001541690604051906346df49ed60e11b8252806004830152602082602481865afa918215610894575f9261138c575b5060209060246040518095819363082af8c760e41b835260048301525afa9081156108945761116e925f9261136b575b506001600160a01b031633149081156113585750611907565b825f52600660205260405f209060405192611188846116fc565b33845267ffffffffffffffff811161133057604051916111b2601f8301601f191660200184611718565b818352368282011161022957815f926020928386013783010152602083019081526040830191428352805490600160401b8210156113305760018201808255821015611344575f90815260209020935160039190910290930180546001600160a01b0319166001600160a01b0394909416939093178355518051600184019167ffffffffffffffff8211611330576112548261124e85546117b9565b8561196a565b602090601f83116001146112c95791806112889260029695945f926112be575b50508160011b915f199060031b1c19161790565b90555b51910155604051904282527f8603b0c38879af2e5d0122a3ed3b604c5fad872eb9b29df92ff630d2986b191e60203393a3005b015190508880611274565b90601f19831691845f52815f20925f5b818110611318575091600193918560029897969410611300575b505050811b01905561128b565b01515f1960f88460031b161c191690558780806112f3565b929360206001819287860151815501950193016112d9565b634e487b7160e01b5f52604160045260245ffd5b634e487b7160e01b5f52603260045260245ffd5b6001600160a01b03163314905085610a35565b61138591925060203d602011610db257610da38183611718565b9086611155565b60209192506113a790823d8411610db257610da38183611718565b9190611125565b34610229576020366003190112610229576004356001600160a01b03811690819003610229576113dc61173a565b505f52600560205260405f20548015611519575f52600460205260405f20604051611406816116df565b8154815260018201546001600160a01b0316602082015260028201805461142c816117a1565b9161143a6040519384611718565b81835260208301905f5260205f205f915b8383106114fc57505050506040820152600382015460ff81169260038410156101f85760ff600a926101f4956060860152818160081c161515608086015260101c1660a0840152600481015460c084015260ff6005820154818116151560e086015260081c16610100840152600681015461012084015260ff60078201541615156101408401526008810154610160840152600981015461018084015201546101a08201526040519182918261159a565b60016020819261150b856117f1565b81520192019201919061144b565b60405162461bcd60e51b815260206004820152602f60248201527f526170706f72744d616e616765723a20617563756e20726170706f727420706f60448201526e1d5c8818d95d08195d1d591a585b9d608a1b6064820152608490fd5b805180835260209291819084018484015e5f828201840152601f01601f1916010190565b602081526101e08101918051602083015260018060a01b0360208201511660408301526040810151926101c06060840152835180915261020083019060206102008260051b8601019501915f905b8282106116855750505050606081015160038110156101f8576101c0916101a09160808501526080810151151560a085015260ff60a08201511660c085015260c081015160e085015260e0810151151561010085015260ff61010082015116610120850152610120810151610140850152610140810151151561016085015261016081015161018085015261018081015182850152015191015290565b909192956020806116a36001936101ff198a82030186528a51611576565b9801920192019092916115e8565b9181601f840112156102295782359167ffffffffffffffff8311610229576020838186019501011161022957565b6101c0810190811067ffffffffffffffff82111761133057604052565b6060810190811067ffffffffffffffff82111761133057604052565b90601f8019910116810190811067ffffffffffffffff82111761133057604052565b60405190611747826116df565b5f6101a083828152826020820152606060408201528260608201528260808201528260a08201528260c08201528260e082015282610100820152826101208201528261014082015282610160820152826101808201520152565b67ffffffffffffffff81116113305760051b60200190565b90600182811c921680156117e7575b60208310146117d357565b634e487b7160e01b5f52602260045260245ffd5b91607f16916117c8565b9060405191825f825492611804846117b9565b808452936001811690811561186f575060011461182b575b5061182992500383611718565b565b90505f9291925260205f20905f915b818310611853575050906020611829928201015f61181c565b602091935080600191548385890101520191019091849261183a565b90506020925061182994915060ff191682840152151560051b8201015f61181c565b1561189857565b60405162461bcd60e51b815260206004820152602260248201527f526170706f72744d616e616765723a20726170706f727420696e6578697374616044820152611b9d60f21b6064820152608490fd5b9081602091031261022957516001600160a01b03811681036102295790565b1561190e57565b60405162461bcd60e51b815260206004820152602e60248201527f526170706f72744d616e616765723a20747574657572206f7520656e6361647260448201526d185b9d081d5b9a5c5d595b595b9d60921b6064820152608490fd5b601f821161197757505050565b5f5260205f20906020601f840160051c830193106119af575b601f0160051c01905b8181106119a4575050565b5f8155600101611999565b9091508190611990565b156119c057565b60405162461bcd60e51b815260206004820152601f60248201527f526170706f72744d616e616765723a2073746174757420696e76616c696465006044820152606490fd5b8054821015611344575f5260205f2001905f90565b90816020910312610229575180151581036102295790565b929190928054600160401b81101561133057611a5391600182018155611a05565b919091611b195767ffffffffffffffff811161133057611a7d81611a7784546117b9565b8461196a565b5f601f8211600114611aba578190611aab9394955f92611aaf5750508160011b915f199060031b1c19161790565b9055565b013590505f80611274565b601f19821694835f5260205f20915f5b878110611b01575083600195969710611ae8575b505050811b019055565b01355f19600384901b60f8161c191690555f8080611ade565b90926020600181928686013581550194019101611aca565b634e487b7160e01b5f525f60045260245ffd5b908060209392818452848401375f828201840152601f01601f191601019056fea264697066735822122086e53dab68d5139a03ce64b02ba7d174dab194454c405a146ec93933c3caffa364736f6c634300081c0033",
  "linkReferences": {},
  "deployedLinkReferences": {},
  "immutableReferences": {},
  "inputSourceName": "project/contracts/SC6_RapportManager.sol",
  "buildInfoId": "solc-0_8_28-0d1ea19a18def96aac7638c05b32655bb9e07c27"
}