{
  "_format": "hh3-artifact-1",
  "contractName": "SuiviManager",
  "sourceName": "contracts/SC4_SuiviManager.sol",
  "abi": [
    {
      "inputs": [
        {
          "internalType": "address",
          "name": "_accountManager",
          "type": "address"
        },
        {
          "internalType": "address",
          "name": "_conventionManager",
          "type": "address"
        }
      ],
      "stateMutability": "nonpayable",
      "type": "constructor"
    },
    {
      "anonymous": false,
      "inputs": [
        {
          "indexed": true,
          "internalType": "uint256",
          "name": "rapportId",
          "type": "uint256"
        },
        {
          "indexed": true,
          "internalType": "address",
          "name": "encadrant",
          "type": "address"
        },
        {
          "indexed": false,
          "internalType": "string",
          "name": "commentaire",
          "type": "string"
        },
        {
          "indexed": false,
          "internalType": "uint256",
          "name": "date",
          "type": "uint256"
        }
      ],
      "name": "RapportCommente",
      "type": "event"
    },
    {
      "anonymous": false,
      "inputs": [
        {
          "indexed": true,
          "internalType": "uint256",
          "name": "rapportId",
          "type": "uint256"
        },
        {
          "indexed": true,
          "internalType": "address",
          "name": "etudiant",
          "type": "address"
        },
        {
          "indexed": false,
          "internalType": "uint256",
          "name": "date",
          "type": "uint256"
        }
      ],
      "name": "RapportDepose",
      "type": "event"
    },
    {
      "anonymous": false,
      "inputs": [
        {
          "indexed": true,
          "internalType": "uint256",
          "name": "rapportId",
          "type": "uint256"
        },
        {
          "indexed": true,
          "internalType": "address",
          "name": "encadrant",
          "type": "address"
        },
        {
          "indexed": false,
          "internalType": "uint256",
          "name": "date",
          "type": "uint256"
        }
      ],
      "name": "RapportValide",
      "type": "event"
    },
    {
      "inputs": [],
      "name": "accountManager",
      "outputs": [
        {
          "internalType": "contract AccountManager",
          "name": "",
          "type": "address"
        }
      ],
      "stateMutability": "view",
      "type": "function"
    },
    {
      "inputs": [
        {
          "internalType": "uint256",
          "name": "_rapportId",
          "type": "uint256"
        },
        {
          "internalType": "string",
          "name": "_commentaire",
          "type": "string"
        }
      ],
      "name": "commenterRapport",
      "outputs": [],
      "stateMutability": "nonpayable",
      "type": "function"
    },
    {
      "inputs": [],
      "name": "conventionManager",
      "outputs": [
        {
          "internalType": "contract ConventionManager",
          "name": "",
          "type": "address"
        }
      ],
      "stateMutability": "view",
      "type": "function"
    },
    {
      "inputs": [
        {
          "internalType": "string",
          "name": "_cidRapport",
          "type": "string"
        }
      ],
      "name": "deposerRapport",
      "outputs": [],
      "stateMutability": "nonpayable",
      "type": "function"
    },
    {
      "inputs": [
        {
          "internalType": "uint256",
          "name": "_rapportId",
          "type": "uint256"
        }
      ],
      "name": "getRapport",
      "outputs": [
        {
          "components": [
            {
              "internalType": "uint256",
              "name": "id",
              "type": "uint256"
            },
            {
              "internalType": "address",
              "name": "etudiant",
              "type": "address"
            },
            {
              "internalType": "string",
              "name": "cidRapport",
              "type": "string"
            },
            {
              "internalType": "string",
              "name": "commentaire",
              "type": "string"
            },
            {
              "internalType": "enum SuiviManager.StatutRapport",
              "name": "statut",
              "type": "uint8"
            },
            {
              "internalType": "uint256",
              "name": "createdAt",
              "type": "uint256"
            }
          ],
          "internalType": "struct SuiviManager.RapportAvancement",
          "name": "",
          "type": "tuple"
        }
      ],
      "stateMutability": "view",
      "type": "function"
    },
    {
      "inputs": [
        {
          "internalType": "address",
          "name": "_encadrant",
          "type": "address"
        }
      ],
      "name": "getRapportsByEncadrant",
      "outputs": [
        {
          "internalType": "uint256[]",
          "name": "",
          "type": "uint256[]"
        }
      ],
      "stateMutability": "view",
      "type": "function"
    },
    {
      "inputs": [
        {
          "internalType": "address",
          "name": "_etudiant",
          "type": "address"
        }
      ],
      "name": "getRapportsByEtudiant",
      "outputs": [
        {
          "internalType": "uint256[]",
          "name": "",
          "type": "uint256[]"
        }
      ],
      "stateMutability": "view",
      "type": "function"
    },
    {
      "inputs": [
        {
          "internalType": "uint256",
          "name": "_rapportId",
          "type": "uint256"
        }
      ],
      "name": "validerRapport",
      "outputs": [],
      "stateMutability": "nonpayable",
      "type": "function"
    }
  ],
  "bytecode": "0x608034608557601f61115338819003918201601f19168301916001600160401b038311848410176089578084926040948552833981010312608557604b6020604583609d565b9201609d565b5f80546001600160a01b039384166001600160a01b031991821617909155600180549290931691161790556040516110a290816100b18239f35b5f80fd5b634e487b7160e01b5f52604160045260245ffd5b51906001600160a01b038216820360855756fe6080806040526004361015610012575f80fd5b5f3560e01c90816322ee843014610ce2575080638d0f05be146106a757806391c2c46914610680578063b0aadc0714610521578063b589f6d0146104f9578063d31bd19d14610473578063dd446cbb146101c95763eec256f614610074575f80fd5b346101c55760203660031901126101c5576004355f60a060405161009781610dde565b828152826020820152606060408201526060808201528260808201520152805f5260036020526100cc60405f20541515610f81565b5f52600360205260405f20604051906100e482610dde565b8054825260018101546001600160a01b0316602083019081529061010a60028201610fcc565b906040840191825261011e60038201610fcc565b6060850190815260ff60048301541691608086019360038410156101b15760056101819261019495875201549560a08801968752604051976020895251602089015260018060a01b0390511660408801525160c0606088015260e0870190610dba565b9051858203601f19016080870152610dba565b90519160038310156101b157839260a08401525160c08301520390f35b634e487b7160e01b5f52602160045260245ffd5b5f80fd5b346101c55760403660031901126101c55760043560243567ffffffffffffffff81116101c5576101fd903690600401610d8c565b5f5460405163dc35a8ed60e01b8152336004820152600260248201529193929190602090829060449082906001600160a01b03165afa8015610468575f9061042d575b61024a9150610f2a565b815f52600360205260405f2061026281541515610f81565b83156103e9576003810167ffffffffffffffff85116103d55761028f856102898354610e63565b83610e9b565b845f601f821160011461034757916102e2827f79796154a86853a568188c2e66c2b6129e4333232ae7ab1d7d593192edba622c9695936004955f9161033c575b508160011b915f199060031b1c19161790565b90555b01600260ff19825416179055335f5260056020526103068360405f20610eea565b83604051916040835281604084015260608301375f606085830101524260208201526060813395601f80199101168101030190a3005b90508601358a6102cf565b5f8381526020812092508790601f198216905b8181106103ba5750917f79796154a86853a568188c2e66c2b6129e4333232ae7ab1d7d593192edba622c9695939160049593106103a1575b5050600187811b0190556102e5565b8501355f1960038a901b60f8161c191690558780610392565b8784013585556001909401936020938401938a93500161035a565b634e487b7160e01b5f52604160045260245ffd5b606460405162461bcd60e51b815260206004820152602060248201527f53756976694d616e616765723a20636f6d6d656e7461697265207265717569736044820152fd5b506020813d602011610460575b8161044760209383610dfa565b810103126101c55761045b61024a91610e1c565b610240565b3d915061043a565b6040513d5f823e3d90fd5b346101c55760203660031901126101c5576004356001600160a01b038116908190036101c5575f52600560205260405f206040519081602082549182815201915f5260205f20905f5b8181106104e3576104df856104d381870382610dfa565b60405191829182610d53565b0390f35b82548452602090930192600192830192016104bc565b346101c5575f3660031901126101c5576001546040516001600160a01b039091168152602090f35b346101c55760203660031901126101c5576004356044602060018060a01b035f54166040519283809263dc35a8ed60e01b8252336004830152600260248301525afa8015610468575f90610645575b61057a9150610f2a565b805f526003602052600460405f2061059481541515610f81565b0160ff81541660038110156101b1576105f657600160ff19825416179055335f5260056020526105c78160405f20610eea565b604051904282527f1d957997623e686679fd1c87f241ad88294369d5506ad8fd587b12ec3e813d7660203393a3005b60405162461bcd60e51b815260206004820152602160248201527f53756976694d616e616765723a20726170706f72742064656a612074726169746044820152606560f81b6064820152608490fd5b506020813d602011610678575b8161065f60209383610dfa565b810103126101c55761067361057a91610e1c565b610570565b3d9150610652565b346101c5575f3660031901126101c5575f546040516001600160a01b039091168152602090f35b346101c55760203660031901126101c55760043567ffffffffffffffff81116101c5576106d8903690600401610d8c565b5f5460405163dc35a8ed60e01b81523360048201526001602482015290602090829060449082906001600160a01b03165afa908115610468575f91610ca8575b5015610c59576001546040516313f7c45360e11b8152336004820152905f90829060249082906001600160a01b03165afa908115610468575f91610ade575b50610140600491015161076981610e29565b61077281610e29565b03610a8d578015610a48576002545f198114610a345760010190816002556040519161079d83610dde565b80835260208301913383526107b181610e47565b946107bf6040519687610dfa565b81865236828201116101c557815f9260209283890137860101526040838101948552516020946107ef8683610dfa565b5f82526060850191825260808501935f855260a08601934285525f526003875260405f2095518655600186019060018060a01b039051166bffffffffffffffffffffffff60a01b82541617905560028501905180519067ffffffffffffffff82116103d557610868826108628554610e63565b85610e9b565b8790601f83116001146109d15761089692915f91836109c6575b50508160011b915f199060031b1c19161790565b90555b518051600385019167ffffffffffffffff82116103d5576108be826108628554610e63565b8690601f8311600114610963576108eb92915f91836109585750508160011b915f199060031b1c19161790565b90555b6004830191519160038310156101b15760059260ff8019835416911617905551910155335f526004815261092860405f2060025490610eea565b6002547ffa9cb00d481f73abcbcab029faeeacd7484088750cf36d2f4aa36733b6884d41604051924284523393a3005b015190508880610882565b90601f19831691845f52885f20925f5b8a8282106109b0575050908460019594939210610998575b505050811b0190556108ee565b01515f1960f88460031b161c1916905587808061098b565b6001859682939686015181550195019301610973565b015190508980610882565b90601f19831691845f52895f20925f5b8b828210610a1e575050908460019594939210610a06575b505050811b019055610899565b01515f1960f88460031b161c191690558880806109f9565b60018596829396860151815501950193016109e1565b634e487b7160e01b5f52601160045260245ffd5b60405162461bcd60e51b815260206004820152601860248201527f53756976694d616e616765723a204349442072657175697300000000000000006044820152606490fd5b60405162461bcd60e51b815260206004820152602360248201527f53756976694d616e616765723a20636f6e76656e74696f6e206e6f6e207369676044820152626e656560e81b6064820152608490fd5b90503d805f833e610aef8183610dfa565b8101906020818303126101c55780519067ffffffffffffffff82116101c557016101a0818303126101c557604051916101a0830183811067ffffffffffffffff8211176103d5576040528151835260208201516020840152610b5360408301610e33565b6040840152610b6460608301610e33565b6060840152610b7560808301610e33565b6080840152610b8660a08301610e33565b60a084015260c082015167ffffffffffffffff81116101c557820181601f820112156101c557805190610bb882610e47565b92610bc66040519485610dfa565b828452602083830101116101c557815f9260208093018386015e8301015260c0830152610bf560e08201610e1c565b60e0830152610c076101008201610e1c565b610100830152610c1a6101208201610e1c565b6101208301526101408101519160058310156101c557610180610140926004948484015261016081015161016084015201516101808201529150610757565b60405162461bcd60e51b815260206004820152602160248201527f53756976694d616e616765723a206574756469616e7420756e697175656d656e6044820152601d60fa1b6064820152608490fd5b90506020813d602011610cda575b81610cc360209383610dfa565b810103126101c557610cd490610e1c565b83610718565b3d9150610cb6565b346101c55760203660031901126101c5576004356001600160a01b038116908190036101c5575f52600460205260405f20805480835260208301915f5260205f20905f5b818110610d3d576104df856104d381870382610dfa565b8254845260209093019260019283019201610d26565b60206040818301928281528451809452019201905f5b818110610d765750505090565b8251845260209384019390920191600101610d69565b9181601f840112156101c55782359167ffffffffffffffff83116101c557602083818601950101116101c557565b805180835260209291819084018484015e5f828201840152601f01601f1916010190565b60c0810190811067ffffffffffffffff8211176103d557604052565b90601f8019910116810190811067ffffffffffffffff8211176103d557604052565b519081151582036101c557565b600511156101b157565b51906001600160a01b03821682036101c557565b67ffffffffffffffff81116103d557601f01601f191660200190565b90600182811c92168015610e91575b6020831014610e7d57565b634e487b7160e01b5f52602260045260245ffd5b91607f1691610e72565b601f8211610ea857505050565b5f5260205f20906020601f840160051c83019310610ee0575b601f0160051c01905b818110610ed5575050565b5f8155600101610eca565b9091508190610ec1565b805490680100000000000000008210156103d55760018201808255821015610f16575f5260205f200155565b634e487b7160e01b5f52603260045260245ffd5b15610f3157565b60405162461bcd60e51b815260206004820152602260248201527f53756976694d616e616765723a20656e63616472616e7420756e697175656d656044820152611b9d60f21b6064820152608490fd5b15610f8857565b606460405162461bcd60e51b815260206004820152602060248201527f53756976694d616e616765723a20726170706f727420696e6578697374616e746044820152fd5b9060405191825f825492610fdf84610e63565b808452936001811690811561104a5750600114611006575b5061100492500383610dfa565b565b90505f9291925260205f20905f915b81831061102e575050906020611004928201015f610ff7565b6020919350806001915483858901015201910190918492611015565b90506020925061100494915060ff191682840152151560051b8201015f610ff756fea2646970667358221220364263829cd03ea78b1b8dcdde7d10565a0c65f6e2fe334d3dfba2a72e145c6664736f6c634300081c0033",
  "linkReferences": {},
  "deployedLinkReferences": {},
  "immutableReferences": {},
  "inputSourceName": "project/contracts/SC4_SuiviManager.sol",
  "buildInfoId": "solc-0_8_28-b46f0e05dff82e20e848cee071e572db398628b1"
}