{
  "_format": "hh3-artifact-1",
  "contractName": "SuiviManager",
  "sourceName": "contracts/SC5_SuiviManager.sol",
  "abi": [
    {
      "inputs": [
        {
          "internalType": "address",
          "name": "_userManager",
          "type": "address"
        },
        {
          "internalType": "address",
          "name": "_conventionManager",
          "type": "address"
        }
      ],
      "stateMutability": "nonpayable",
      "type": "constructor"
    },
    {
      "anonymous": false,
      "inputs": [
        {
          "indexed": true,
          "internalType": "uint256",
          "name": "rapportId",
          "type": "uint256"
        },
        {
          "indexed": true,
          "internalType": "address",
          "name": "encadrant",
          "type": "address"
        },
        {
          "indexed": false,
          "internalType": "uint256",
          "name": "date",
          "type": "uint256"
        }
      ],
      "name": "CommentaireAjoute",
      "type": "event"
    },
    {
      "anonymous": false,
      "inputs": [
        {
          "indexed": true,
          "internalType": "address",
          "name": "etudiant",
          "type": "address"
        },
        {
          "indexed": false,
          "internalType": "string",
          "name": "cidIPFS",
          "type": "string"
        },
        {
          "indexed": false,
          "internalType": "uint256",
          "name": "semaine",
          "type": "uint256"
        },
        {
          "indexed": false,
          "internalType": "uint256",
          "name": "date",
          "type": "uint256"
        }
      ],
      "name": "RapportSubmitted",
      "type": "event"
    },
    {
      "anonymous": false,
      "inputs": [
        {
          "indexed": true,
          "internalType": "uint256",
          "name": "rapportId",
          "type": "uint256"
        },
        {
          "indexed": true,
          "internalType": "address",
          "name": "encadrant",
          "type": "address"
        },
        {
          "indexed": false,
          "internalType": "uint256",
          "name": "date",
          "type": "uint256"
        }
      ],
      "name": "RapportValide",
      "type": "event"
    },
    {
      "inputs": [
        {
          "internalType": "uint256",
          "name": "_rapportId",
          "type": "uint256"
        },
        {
          "internalType": "string",
          "name": "_contenu",
          "type": "string"
        }
      ],
      "name": "ajouterCommentaire",
      "outputs": [],
      "stateMutability": "nonpayable",
      "type": "function"
    },
    {
      "inputs": [],
      "name": "conventionManager",
      "outputs": [
        {
          "internalType": "contract ConventionManager",
          "name": "",
          "type": "address"
        }
      ],
      "stateMutability": "view",
      "type": "function"
    },
    {
      "inputs": [
        {
          "internalType": "uint256",
          "name": "_rapportId",
          "type": "uint256"
        }
      ],
      "name": "getCommentaires",
      "outputs": [
        {
          "components": [
            {
              "internalType": "uint256",
              "name": "rapportId",
              "type": "uint256"
            },
            {
              "internalType": "address",
              "name": "encadrantWallet",
              "type": "address"
            },
            {
              "internalType": "string",
              "name": "contenu",
              "type": "string"
            },
            {
              "internalType": "uint256",
              "name": "dateAt",
              "type": "uint256"
            }
          ],
          "internalType": "struct SuiviManager.Commentaire[]",
          "name": "",
          "type": "tuple[]"
        }
      ],
      "stateMutability": "view",
      "type": "function"
    },
    {
      "inputs": [
        {
          "internalType": "uint256",
          "name": "_id",
          "type": "uint256"
        }
      ],
      "name": "getRapport",
      "outputs": [
        {
          "components": [
            {
              "internalType": "uint256",
              "name": "id",
              "type": "uint256"
            },
            {
              "internalType": "address",
              "name": "etudiantWallet",
              "type": "address"
            },
            {
              "internalType": "string",
              "name": "cidIPFS",
              "type": "string"
            },
            {
              "internalType": "string",
              "name": "titre",
              "type": "string"
            },
            {
              "internalType": "uint256",
              "name": "semaine",
              "type": "uint256"
            },
            {
              "internalType": "bool",
              "name": "valide",
              "type": "bool"
            },
            {
              "internalType": "uint256",
              "name": "soumisAt",
              "type": "uint256"
            },
            {
              "internalType": "uint256",
              "name": "valideAt",
              "type": "uint256"
            }
          ],
          "internalType": "struct SuiviManager.RapportAvancement",
          "name": "",
          "type": "tuple"
        }
      ],
      "stateMutability": "view",
      "type": "function"
    },
    {
      "inputs": [
        {
          "internalType": "address",
          "name": "_etudiant",
          "type": "address"
        }
      ],
      "name": "getRapportsEtudiant",
      "outputs": [
        {
          "components": [
            {
              "internalType": "uint256",
              "name": "id",
              "type": "uint256"
            },
            {
              "internalType": "address",
              "name": "etudiantWallet",
              "type": "address"
            },
            {
              "internalType": "string",
              "name": "cidIPFS",
              "type": "string"
            },
            {
              "internalType": "string",
              "name": "titre",
              "type": "string"
            },
            {
              "internalType": "uint256",
              "name": "semaine",
              "type": "uint256"
            },
            {
              "internalType": "bool",
              "name": "valide",
              "type": "bool"
            },
            {
              "internalType": "uint256",
              "name": "soumisAt",
              "type": "uint256"
            },
            {
              "internalType": "uint256",
              "name": "valideAt",
              "type": "uint256"
            }
          ],
          "internalType": "struct SuiviManager.RapportAvancement[]",
          "name": "",
          "type": "tuple[]"
        }
      ],
      "stateMutability": "view",
      "type": "function"
    },
    {
      "inputs": [
        {
          "internalType": "string",
          "name": "_cidIPFS",
          "type": "string"
        },
        {
          "internalType": "string",
          "name": "_titre",
          "type": "string"
        },
        {
          "internalType": "uint256",
          "name": "_semaine",
          "type": "uint256"
        }
      ],
      "name": "soumettreRapport",
      "outputs": [],
      "stateMutability": "nonpayable",
      "type": "function"
    },
    {
      "inputs": [],
      "name": "userManager",
      "outputs": [
        {
          "internalType": "contract UserManager",
          "name": "",
          "type": "address"
        }
      ],
      "stateMutability": "view",
      "type": "function"
    },
    {
      "inputs": [
        {
          "internalType": "uint256",
          "name": "_rapportId",
          "type": "uint256"
        }
      ],
      "name": "validerRapport",
      "outputs": [],
      "stateMutability": "nonpayable",
      "type": "function"
    }
  ],
  "bytecode": "0x608034609157601f6113ce38819003918201601f19168301916001600160401b038311848410176095578084926040948552833981010312609157604b602060458360a9565b920160a9565b6001600281905560038190555f80546001600160a01b03199081166001600160a01b03958616179091558154169290911691909117905560405161131190816100bd8239f35b5f80fd5b634e487b7160e01b5f52604160045260245ffd5b51906001600160a01b038216820360915756fe6080806040526004361015610012575f80fd5b5f3560e01c9081635c8a768714610eb8575080638c1c083c14610d22578063b0aadc0714610b7b578063b589f6d014610b53578063b9fb25b2146105dc578063d09332ec146104a7578063d3ca1044146101445763eec256f614610074575f80fd5b3461014057602036600319011261014057600435610090611012565b50805f5260046020526100a860405f205415156111c8565b5f52600460205261013c60405f206007604051916100c583610f9f565b8054835260018101546001600160a01b031660208401526100e8600282016110b0565b60408401526100f9600382016110b0565b60608401526004810154608084015260ff600582015416151560a0840152600681015460c0840152015460e0820152604051918291602083526020830190610efe565b0390f35b5f80fd5b346101405760403660031901126101405760043560243567ffffffffffffffff811161014057610178903690600401610f71565b5f5460405163dc35a8ed60e01b81523360048201526002602482015290602090829060449082906001600160a01b03165afa801561046d576101c1915f91610478575b50611168565b825f5260046020526101d860405f205415156111c8565b825f52600460205260018060a01b03600160405f20015416602060018060a01b03600154169160246040518094819363082af8c760e41b835260048301525afa801561046d5761023a915f9161043e575b506001600160a01b03163314611232565b825f52600560205260405f20906102696040519361025785610fbc565b85855260208501923384523691611295565b90604084019182526060840192428452805490600160401b821015610416576001820180825582101561042a575f5260205f209060021b019351845560018060a01b03905116600184019060018060a01b03166bffffffffffffffffffffffff60a01b82541617905560028301905180519067ffffffffffffffff8211610416576102f48354611078565b601f81116103d1575b50602090601f831160011461036b576003949392915f9183610360575b50508160011b915f1990861b1c19161790555b51910155604051904282527f51b1cd95a52cbdb5300cf96bef945b2ea54ade27c26170a3f3d464013e2662d360203393a3005b01519050878061031a565b90601f19831691845f52815f20925f5b8181106103b95750916001939185600398979694106103a2575b505050811b01905561032d565b01515f1983881b60f8161c19169055878080610395565b9293602060018192878601518155019501930161037b565b835f5260205f20601f840160051c8101916020851061040c575b601f0160051c01905b81811061040157506102fd565b5f81556001016103f4565b90915081906103eb565b634e487b7160e01b5f52604160045260245ffd5b634e487b7160e01b5f52603260045260245ffd5b610460915060203d602011610466575b6104588183610fd8565b810190611213565b85610229565b503d61044e565b6040513d5f823e3d90fd5b61049a915060203d6020116104a0575b6104928183610fd8565b810190611150565b856101bb565b503d610488565b34610140576020366003190112610140576004355f52600560205260405f208054906104d282610ffa565b916104e06040519384610fd8565b8083526020830180925f5260205f205f915b83831061058d57848660405191829160208301906020845251809152604083019060408160051b85010192915f905b82821061053057505050500390f35b919360019193955060208091603f1989820301855287519081518152848060a01b038383015116838201526060806105776040850151608060408601526080850190610eda565b9301519101529601920192018594939192610521565b600460206001926040516105a081610fbc565b85548152848060a01b038587015416838201526105bf600287016110b0565b6040820152600386015460608201528152019201920191906104f2565b346101405760603660031901126101405760043567ffffffffffffffff81116101405761060d903690600401610f71565b60243567ffffffffffffffff81116101405761062d903690600401610f71565b5f5460405163dc35a8ed60e01b8152336004820152600160248201529194916044803592602091839182906001600160a01b03165afa90811561046d575f91610b34575b5015610adc5760015460405163043ad6d560e31b815233600482015290602090829060249082906001600160a01b03165afa90811561046d575f91610abd575b5015610a6957600254925f198414610a555760018401600255604051906106d782610f9f565b8482526106ff60208301913383526106f0368988611295565b9860408501998a523691611295565b96606083019788526080830184815260a08401905f825260c085019242845260e08601945f8652895f52600460205260405f209651875560018060a01b03905116600187019060018060a01b03166bffffffffffffffffffffffff60a01b82541617905560028601905180519067ffffffffffffffff82116104165781906107878454611078565b601f8111610a05575b50602090601f83116001146109a2575f92610997575b50508160011b915f199060031b1c19161790555b600385019951998a5167ffffffffffffffff8111610416576107dc8254611078565b601f8111610952575b506020601f82116001146108e4578190600798999a9b9c9d5f926108d9575b50508160011b915f199060031b1c19161790555b516004860155600585019051151560ff8019835416911617905551600684015551910155335f52600660205260405f2092835493600160401b85101561041657846108899160017f56bc103e11f85eeeb04cbd78ec53a2cc3c22869fda8ff568c4eb3ce0bcbb6ce99701815561104f565b819291549060031b91821b915f19901b191617905583604051926060845281606085015260808401375f6080858401015260208201524260408201526080813394601f80199101168101030190a2005b015190508d80610804565b601f1982169c835f52815f209d5f5b8181106109355750916007999a9b9c9d9e9184600195941061091d575b505050811b019055610818565b01515f1960f88460031b161c191690558d8080610910565b919e8f60016020928684930151815501940192019e91929e6108f3565b825f5260205f20601f830160051c8101916020841061098d575b601f0160051c01905b81811061098257506107e5565b5f8155600101610975565b909150819061096c565b015190508d806107a6565b5f8581528281209350601f198516905b8181106109ed57509084600195949392106109d5575b505050811b0190556107ba565b01515f1960f88460031b161c191690558d80806109c8565b929360206001819287860151815501950193016109b2565b909150835f5260205f20601f840160051c81019160208510610a4b575b90601f859493920160051c01905b818110610a3d5750610790565b5f8155849350600101610a30565b9091508190610a22565b634e487b7160e01b5f52601160045260245ffd5b60405162461bcd60e51b815260206004820152602660248201527f53756976694d616e616765723a20617563756e6520636f6e76656e74696f6e2060448201526561637469766560d01b6064820152608490fd5b610ad6915060203d6020116104a0576104928183610fd8565b866106b1565b60405162461bcd60e51b815260206004820152602a60248201527f53756976694d616e616765723a206574756469616e74206175746f72697365206044820152691d5b9a5c5d595b595b9d60b21b6064820152608490fd5b610b4d915060203d6020116104a0576104928183610fd8565b86610671565b34610140575f366003190112610140576001546040516001600160a01b039091168152602090f35b34610140576020366003190112610140575f5460405163dc35a8ed60e01b815233600480830191909152600260248301523591602090829060449082906001600160a01b03165afa801561046d57610bd9915f91610d035750611168565b805f526004602052610bf060405f205415156111c8565b805f52600460205260405f2060058101805460ff8116610cbe57600183810154905460405163082af8c760e41b81526001600160a01b039283166004820152929160209184916024918391165afa91821561046d57600192610c63915f91610c9f575b503390848060a01b031614611232565b60ff1916179055600742910155604051904282527f1d957997623e686679fd1c87f241ad88294369d5506ad8fd587b12ec3e813d7660203393a3005b610cb8915060203d602011610466576104588183610fd8565b87610c53565b60405162461bcd60e51b815260206004820152601960248201527f53756976694d616e616765723a2064656a612076616c696465000000000000006044820152606490fd5b610d1c915060203d6020116104a0576104928183610fd8565b836101bb565b34610140576020366003190112610140576004356001600160a01b03811690819003610140575f52600660205260405f208054610d5e81610ffa565b91610d6c6040519384610fd8565b818352601f19610d7b83610ffa565b015f5b818110610ea15750505f5b828110610df757836040518091602082016020835281518091526040830190602060408260051b8601019301915f905b828210610dc857505050500390f35b91936001919395506020610de78192603f198a82030186528851610efe565b9601920192018594939192610db9565b80610e046001928461104f565b90549060031b1c5f52600460205260405f20600760405191610e2583610f9f565b80548352848060a01b0385820154166020840152610e45600282016110b0565b6040840152610e56600382016110b0565b60608401526004810154608084015260ff600582015416151560a0840152600681015460c0840152015460e0820152610e8f8287611064565b52610e9a8186611064565b5001610d89565b602090610eac611012565b82828801015201610d7e565b34610140575f366003190112610140575f546001600160a01b03168152602090f35b805180835260209291819084018484015e5f828201840152601f01601f1916010190565b908151815260018060a01b03602083015116602082015260e080610f48610f3660408601516101006040870152610100860190610eda565b60608601518582036060870152610eda565b936080810151608085015260a0810151151560a085015260c081015160c0850152015191015290565b9181601f840112156101405782359167ffffffffffffffff8311610140576020838186019501011161014057565b610100810190811067ffffffffffffffff82111761041657604052565b6080810190811067ffffffffffffffff82111761041657604052565b90601f8019910116810190811067ffffffffffffffff82111761041657604052565b67ffffffffffffffff81116104165760051b60200190565b6040519061101f82610f9f565b5f60e083828152826020820152606060408201526060808201528260808201528260a08201528260c08201520152565b805482101561042a575f5260205f2001905f90565b805182101561042a5760209160051b010190565b90600182811c921680156110a6575b602083101461109257565b634e487b7160e01b5f52602260045260245ffd5b91607f1691611087565b9060405191825f8254926110c384611078565b808452936001811690811561112e57506001146110ea575b506110e892500383610fd8565b565b90505f9291925260205f20905f915b8183106111125750509060206110e8928201015f6110db565b60209193508060019154838589010152019101909184926110f9565b9050602092506110e894915060ff191682840152151560051b8201015f6110db565b90816020910312610140575180151581036101405790565b1561116f57565b60405162461bcd60e51b815260206004820152602b60248201527f53756976694d616e616765723a20656e63616472616e74206175746f7269736560448201526a081d5b9a5c5d595b595b9d60aa1b6064820152608490fd5b156111cf57565b606460405162461bcd60e51b815260206004820152602060248201527f53756976694d616e616765723a20726170706f727420696e6578697374616e746044820152fd5b9081602091031261014057516001600160a01b03811681036101405790565b1561123957565b60405162461bcd60e51b815260206004820152602e60248201527f53756976694d616e616765723a20656e63616472616e74206e6f6e206c69652060448201526d184818d95d08195d1d591a585b9d60921b6064820152608490fd5b92919267ffffffffffffffff821161041657604051916112bf601f8201601f191660200184610fd8565b829481845281830111610140578281602093845f96013701015256fea2646970667358221220e4259d5f7d02b5323dfe952236bd628f5a7d7ad0996fc4481b435b976fbeafe864736f6c634300081c0033",
  "linkReferences": {},
  "deployedLinkReferences": {},
  "immutableReferences": {},
  "inputSourceName": "project/contracts/SC5_SuiviManager.sol",
  "buildInfoId": "solc-0_8_28-0d1ea19a18def96aac7638c05b32655bb9e07c27"
}