{
  "_format": "hh3-artifact-1",
  "contractName": "UserManager",
  "sourceName": "contracts/SC1_UserManager.sol",
  "abi": [
    {
      "inputs": [],
      "stateMutability": "nonpayable",
      "type": "constructor"
    },
    {
      "anonymous": false,
      "inputs": [
        {
          "indexed": true,
          "internalType": "address",
          "name": "wallet",
          "type": "address"
        },
        {
          "indexed": false,
          "internalType": "uint256",
          "name": "date",
          "type": "uint256"
        }
      ],
      "name": "UserDeactivated",
      "type": "event"
    },
    {
      "anonymous": false,
      "inputs": [
        {
          "indexed": true,
          "internalType": "address",
          "name": "wallet",
          "type": "address"
        },
        {
          "indexed": false,
          "internalType": "enum UserManager.Role",
          "name": "role",
          "type": "uint8"
        },
        {
          "indexed": false,
          "internalType": "uint256",
          "name": "date",
          "type": "uint256"
        }
      ],
      "name": "UserRegistered",
      "type": "event"
    },
    {
      "inputs": [
        {
          "internalType": "address",
          "name": "_wallet",
          "type": "address"
        },
        {
          "internalType": "string",
          "name": "_nom",
          "type": "string"
        },
        {
          "internalType": "string",
          "name": "_prenom",
          "type": "string"
        },
        {
          "internalType": "string",
          "name": "_filiere",
          "type": "string"
        }
      ],
      "name": "addEncadrant",
      "outputs": [],
      "stateMutability": "nonpayable",
      "type": "function"
    },
    {
      "inputs": [
        {
          "internalType": "address",
          "name": "_wallet",
          "type": "address"
        },
        {
          "internalType": "string",
          "name": "_nom",
          "type": "string"
        },
        {
          "internalType": "string",
          "name": "_prenom",
          "type": "string"
        },
        {
          "internalType": "string",
          "name": "_entreprise",
          "type": "string"
        }
      ],
      "name": "addRH",
      "outputs": [],
      "stateMutability": "nonpayable",
      "type": "function"
    },
    {
      "inputs": [
        {
          "internalType": "address",
          "name": "_wallet",
          "type": "address"
        },
        {
          "internalType": "string",
          "name": "_nom",
          "type": "string"
        },
        {
          "internalType": "string",
          "name": "_prenom",
          "type": "string"
        },
        {
          "internalType": "string",
          "name": "_filiere",
          "type": "string"
        }
      ],
      "name": "addStudent",
      "outputs": [],
      "stateMutability": "nonpayable",
      "type": "function"
    },
    {
      "inputs": [],
      "name": "admin",
      "outputs": [
        {
          "internalType": "address",
          "name": "",
          "type": "address"
        }
      ],
      "stateMutability": "view",
      "type": "function"
    },
    {
      "inputs": [
        {
          "internalType": "address",
          "name": "_wallet",
          "type": "address"
        }
      ],
      "name": "deactivateUser",
      "outputs": [],
      "stateMutability": "nonpayable",
      "type": "function"
    },
    {
      "inputs": [],
      "name": "getAllEncadrants",
      "outputs": [
        {
          "internalType": "address[]",
          "name": "",
          "type": "address[]"
        }
      ],
      "stateMutability": "view",
      "type": "function"
    },
    {
      "inputs": [],
      "name": "getAllStudents",
      "outputs": [
        {
          "internalType": "address[]",
          "name": "",
          "type": "address[]"
        }
      ],
      "stateMutability": "view",
      "type": "function"
    },
    {
      "inputs": [
        {
          "internalType": "address",
          "name": "_wallet",
          "type": "address"
        }
      ],
      "name": "getRole",
      "outputs": [
        {
          "internalType": "enum UserManager.Role",
          "name": "",
          "type": "uint8"
        }
      ],
      "stateMutability": "view",
      "type": "function"
    },
    {
      "inputs": [
        {
          "internalType": "address",
          "name": "_wallet",
          "type": "address"
        }
      ],
      "name": "getUser",
      "outputs": [
        {
          "components": [
            {
              "internalType": "address",
              "name": "wallet",
              "type": "address"
            },
            {
              "internalType": "enum UserManager.Role",
              "name": "role",
              "type": "uint8"
            },
            {
              "internalType": "string",
              "name": "nom",
              "type": "string"
            },
            {
              "internalType": "string",
              "name": "prenom",
              "type": "string"
            },
            {
              "internalType": "string",
              "name": "filiere",
              "type": "string"
            },
            {
              "internalType": "string",
              "name": "entreprise",
              "type": "string"
            },
            {
              "internalType": "bool",
              "name": "isActive",
              "type": "bool"
            },
            {
              "internalType": "uint256",
              "name": "registeredAt",
              "type": "uint256"
            }
          ],
          "internalType": "struct UserManager.User",
          "name": "",
          "type": "tuple"
        }
      ],
      "stateMutability": "view",
      "type": "function"
    },
    {
      "inputs": [
        {
          "internalType": "address",
          "name": "_wallet",
          "type": "address"
        },
        {
          "internalType": "enum UserManager.Role",
          "name": "_role",
          "type": "uint8"
        }
      ],
      "name": "isAuthorized",
      "outputs": [
        {
          "internalType": "bool",
          "name": "",
          "type": "bool"
        }
      ],
      "stateMutability": "view",
      "type": "function"
    }
  ],
  "bytecode": "0x60806040523461065a575f80546001600160a01b0319163317905560405161010081016001600160401b038111828210176103da5760405233815260208101906004825261004d604061065e565b91600583526420b236b4b760d91b602084015260408201928352610071604061065e565b92600a845269556e697665727369746560b01b60208501526060830193845261009a602061065e565b5f8152608084019081526100ae602061065e565b945f865260a0850195865260c08501926001845260e0860194428652335f52600160205260405f209660018060a01b0390511660018060a01b031988541617875551600581101561064657865460ff60a01b191660a09190911b60ff60a01b1617865551805160018701916001600160401b0382116103da57825490600182811c9216801561063c575b60208310146103bc5781601f8493116105ec575b50602090601f8311600114610589575f9261057e575b50508160011b915f199060031b1c19161790555b51805160028601916001600160401b0382116103da57825490600182811c92168015610574575b60208310146103bc5781601f849311610524575b50602090601f83116001146104c1575f926104b6575b50508160011b915f199060031b1c19161790555b51805160038501916001600160401b0382116103da57825490600182811c921680156104ac575b60208310146103bc5781601f84931161045c575b50602090601f83116001146103f9575f926103ee575b50508160011b915f199060031b1c19161790555b92518051939060048401906001600160401b0386116103da578154600181811c911680156103d0575b60208210146103bc57601f8111610377575b50602090601f871160011461031157958091600696975f92610306575b50508160011b915f199060031b1c19161790555b600584019051151560ff8019835416911617905551910155604051600481524260208201527feea238307e4577ec1b8645d63505c2d57767cfc074bb5ab579a615525f07a25760403392a2604051611abb90816106848239f35b015190505f80610298565b90601f19871691835f52815f20925f5b81811061035f57509160019391896006999a9410610347575b505050811b0190556102ac565b01515f1960f88460031b161c191690555f808061033a565b92936020600181928786015181550195019301610321565b825f5260205f20601f880160051c810191602089106103b2575b601f0160051c01905b8181106103a7575061027b565b5f815560010161039a565b9091508190610391565b634e487b7160e01b5f52602260045260245ffd5b90607f1690610269565b634e487b7160e01b5f52604160045260245ffd5b015190505f8061022c565b5f8581528281209350601f198516905b818110610444575090846001959493921061042c575b505050811b019055610240565b01515f1960f88460031b161c191690555f808061041f565b92936020600181928786015181550195019301610409565b909150835f5260205f20601f840160051c810191602085106104a2575b90601f859493920160051c01905b8181106104945750610216565b5f8155849350600101610487565b9091508190610479565b91607f1691610202565b015190505f806101c7565b5f8581528281209350601f198516905b81811061050c57509084600195949392106104f4575b505050811b0190556101db565b01515f1960f88460031b161c191690555f80806104e7565b929360206001819287860151815501950193016104d1565b909150835f5260205f20601f840160051c8101916020851061056a575b90601f859493920160051c01905b81811061055c57506101b1565b5f815584935060010161054f565b9091508190610541565b91607f169161019d565b015190505f80610162565b5f8581528281209350601f198516905b8181106105d457509084600195949392106105bc575b505050811b019055610176565b01515f1960f88460031b161c191690555f80806105af565b92936020600181928786015181550195019301610599565b909150835f5260205f20601f840160051c81019160208510610632575b90601f859493920160051c01905b818110610624575061014c565b5f8155849350600101610617565b9091508190610609565b91607f1691610138565b634e487b7160e01b5f52602160045260245ffd5b5f80fd5b6040519190601f01601f191682016001600160401b038111838210176103da5760405256fe6080806040526004361015610012575f80fd5b5f3560e01c9081630b09f62514611665575080631a47767b146115795780633eb104d314610fc65780634427673314610f815780636f77926b14610d7557806391741768146107d6578063cf9f4999146101cb578063dc35a8ed14610142578063e9e30927146100b55763f851a4401461008a575f80fd5b346100b1575f3660031901126100b1575f546040516001600160a01b039091168152602090f35b5f80fd5b346100b1575f3660031901126100b15760405180602060025491828152019060025f527f405787fa12a823e0f2b7631cc41b3ba8828b3321ca811111fa75cd3aa3bb5ace905f5b8181106101235761011f8561011381870382611837565b604051918291826116de565b0390f35b82546001600160a01b03168452602090930192600192830192016100fc565b346100b15760403660031901126100b15761015b611720565b6024359060058210156100b1576001600160a01b03165f908152600160205260409020600581015460ff16908161019a575b6020826040519015158152f35b60ff91505460a01c169060058210156101b757602091148261018d565b634e487b7160e01b5f52602160045260245ffd5b346100b1576101d936611763565b956101f560018060a0989694989795971b035f54163314611858565b6001600160a01b03169461020a8615156118a4565b855f52600160205260ff60405f205460a01c1660058110156101b7576102789261023761026992156118f0565b61025a604051966102478861181b565b8988526020880196600188523691611948565b96604087019788523691611948565b96606085019788523691611948565b9260808301938452602093604051966102918689611837565b5f885260a0850197885260c08501926001845260e0860194428652885f526001885260405f209660018060a01b039051168754915160058110156101b7576001600160a81b03199092161760a09190911b60ff60a01b1617865551805160018701916001600160401b0382116104d557819061030d845461198d565b601f8111610788575b508990601f8311600114610725575f9261071a575b50508160011b915f199060031b1c19161790555b51805160028601916001600160401b0382116104d5578190610361845461198d565b601f81116106cc575b508890601f8311600114610669575f9261065e575b50508160011b915f199060031b1c19161790555b51805160038501916001600160401b0382116104d55781906103b5845461198d565b601f8111610610575b508790601f83116001146105ad575f926105a2575b50508160011b915f199060031b1c19161790555b6004830195519586516001600160401b0381116104d557610408825461198d565b601f811161055f575b5085601f82116001146104f457908061045f94939260069798999a5f926104e9575b50508160011b915f199060031b1c19161790555b511515600585019060ff801983541691151516179055565b51910155600254600160401b8110156104d55760018101806002558110156104c1575f516020611a665f395f51905f529160409160025f52815f2001846bffffffffffffffffffffffff60a01b825416179055815190600182524290820152a2005b634e487b7160e01b5f52603260045260245ffd5b634e487b7160e01b5f52604160045260245ffd5b015190508a80610433565b601f19821698835f52875f20995f5b818110610548575099600192849261045f97969560069a9b9c9d10610530575b505050811b019055610447565b01515f1960f88460031b161c191690558a8080610523565b838301518c556001909b019a928901928901610503565b825f52865f20601f830160051c810191888410610598575b601f0160051c01905b81811061058d5750610411565b5f8155600101610580565b9091508190610577565b0151905089806103d3565b5f8581528981209350601f198516905b8a8282106105fa5750509084600195949392106105e2575b505050811b0190556103e7565b01515f1960f88460031b161c191690558980806105d5565b60018596829396860151815501950193016105bd565b909150835f52875f20601f840160051c810191898510610654575b90601f859493920160051c01905b81811061064657506103be565b5f8155849350600101610639565b909150819061062b565b015190508a8061037f565b5f8581528a81209350601f198516905b8b8282106106b657505090846001959493921061069e575b505050811b019055610393565b01515f1960f88460031b161c191690558a8080610691565b6001859682939686015181550195019301610679565b909150835f52885f20601f840160051c8101918a8510610710575b90601f859493920160051c01905b818110610702575061036a565b5f81558493506001016106f5565b90915081906106e7565b015190508b8061032b565b5f8581528b81209350601f198516905b8c82821061077257505090846001959493921061075a575b505050811b01905561033f565b01515f1960f88460031b161c191690558b808061074d565b6001859682939686015181550195019301610735565b909150835f52895f20601f840160051c8101918b85106107cc575b90601f859493920160051c01905b8181106107be5750610316565b5f81558493506001016107b1565b90915081906107a3565b346100b1576107e436611763565b9561080060018060a0989694989795971b035f54163314611858565b6001600160a01b0316946108158615156118a4565b855f52600160205260ff60405f205460a01c1660058110156101b7576108659261084261026992156118f0565b61025a604051966108528861181b565b8988526020880196600288523691611948565b92608083019384526020936040519661087e8689611837565b5f885260a0850197885260c08501926001845260e0860194428652885f526001885260405f209660018060a01b039051168754915160058110156101b7576001600160a81b03199092161760a09190911b60ff60a01b1617865551805160018701916001600160401b0382116104d55781906108fa845461198d565b601f8111610d27575b508990601f8311600114610cc4575f92610cb9575b50508160011b915f199060031b1c19161790555b51805160028601916001600160401b0382116104d557819061094e845461198d565b601f8111610c6b575b508890601f8311600114610c08575f92610bfd575b50508160011b915f199060031b1c19161790555b51805160038501916001600160401b0382116104d55781906109a2845461198d565b601f8111610baf575b508790601f8311600114610b4c575f92610b41575b50508160011b915f199060031b1c19161790555b6004830195519586516001600160401b0381116104d5576109f5825461198d565b601f8111610afe575b5085601f8211600114610aac579080610a4a94939260069798999a5f926104e95750508160011b915f199060031b1c1916179055511515600585019060ff801983541691151516179055565b51910155600354600160401b8110156104d55760018101806003558110156104c1575f516020611a665f395f51905f529160409160035f52815f2001846bffffffffffffffffffffffff60a01b825416179055815190600282524290820152a2005b601f19821698835f52875f20995f5b818110610ae75750996001928492610a4a97969560069a9b9c9d1061053057505050811b019055610447565b838301518c556001909b019a928901928901610abb565b825f52865f20601f830160051c810191888410610b37575b601f0160051c01905b818110610b2c57506109fe565b5f8155600101610b1f565b9091508190610b16565b0151905089806109c0565b5f8581528981209350601f198516905b8a828210610b99575050908460019594939210610b81575b505050811b0190556109d4565b01515f1960f88460031b161c19169055898080610b74565b6001859682939686015181550195019301610b5c565b909150835f52875f20601f840160051c810191898510610bf3575b90601f859493920160051c01905b818110610be557506109ab565b5f8155849350600101610bd8565b9091508190610bca565b015190508a8061096c565b5f8581528a81209350601f198516905b8b828210610c55575050908460019594939210610c3d575b505050811b019055610980565b01515f1960f88460031b161c191690558a8080610c30565b6001859682939686015181550195019301610c18565b909150835f52885f20601f840160051c8101918a8510610caf575b90601f859493920160051c01905b818110610ca15750610957565b5f8155849350600101610c94565b9091508190610c86565b015190508b80610918565b5f8581528b81209350601f198516905b8c828210610d11575050908460019594939210610cf9575b505050811b01905561092c565b01515f1960f88460031b161c191690558b8080610cec565b6001859682939686015181550195019301610cd4565b909150835f52895f20601f840160051c8101918b8510610d6b575b90601f859493920160051c01905b818110610d5d5750610903565b5f8155849350600101610d50565b9091508190610d42565b346100b15760203660031901126100b157610d8e611720565b5f60e0604051610d9d8161181b565b8281528260208201526060604082015260608082015260606080820152606060a08201528260c0820152015260018060a01b0316805f52600160205260ff60405f205460a01c1660058110156101b75715610f30575f52600160205260405f20604051610e098161181b565b81546001600160a01b038116825260a01c60ff16916020820160058410156101b757610f1c83926020958352610f09610e44600183016119c5565b60408601908152610ef6610e5a600285016119c5565b60608801908152610ee3610e70600387016119c5565b9360808a01948552610ecf6006610e8960048a016119c5565b9860a08d01998a5260c060ff6005830154169d019c15158d5201549960e08d019a8b526040518e819f9e829f835260018060a01b039051169101525160408d01906117ea565b5161010060608c01526101208b01906117f7565b9051898203601f190160808b01526117f7565b9051878203601f190160a08901526117f7565b9051858203601f190160c08701526117f7565b9151151560e0840152516101008301520390f35b60405162461bcd60e51b8152602060048201526024808201527f557365724d616e616765723a207574696c6973617465757220696e74726f757660448201526361626c6560e01b6064820152608490fd5b346100b15760203660031901126100b1576001600160a01b03610fa2611720565b165f526001602052602060ff60405f205460a01c16610fc460405180926117ea565bf35b346100b157610fd436611763565b95610ff060018060a0989698979594971b035f54163314611858565b6001600160a01b0316946110058615156118a4565b855f52600160205260ff60405f205460a01c169060058210156101b75761102f61106192156118f0565b6110526040519561103f8761181b565b8887526020870195600387523691611948565b92604086019384523691611948565b956060840196875261108e6020956040519261107d8885611837565b5f8452608087019384523691611948565b9660a0850197885260c08501926001845260e0860194428652885f526001885260405f209660018060a01b039051168754915160058110156101b7576001600160a81b03199092161760a09190911b60ff60a01b1617865551805160018701916001600160401b0382116104d5578190611108845461198d565b601f811161152b575b508990601f83116001146114c8575f926114bd575b50508160011b915f199060031b1c19161790555b51805160028601916001600160401b0382116104d557819061115c845461198d565b601f811161146f575b508890601f831160011461140c575f92611401575b50508160011b915f199060031b1c19161790555b51805160038501916001600160401b0382116104d55781906111b0845461198d565b601f81116113b3575b508790601f8311600114611350575f92611345575b50508160011b915f199060031b1c19161790555b6004830195519586516001600160401b0381116104d557611203825461198d565b601f8111611302575b5085601f8211600114611287579260409695949282611269936006965f516020611a665f395f51905f529b9c5f9261127c5750508160011b915f199060031b1c1916179055511515600585019060ff801983541691151516179055565b51910155815190600382524290820152a2005b015190508c80610433565b601f19821698835f52875f20995f5b8181106112eb5750835f516020611a665f395f51905f529a9b6006979460409b9a99979461126997600195106112d357505050811b019055610447565b01515f1960f88460031b161c191690558c8080610523565b838301518c556001909b019a928901928901611296565b825f52865f20601f830160051c81019188841061133b575b601f0160051c01905b818110611330575061120c565b5f8155600101611323565b909150819061131a565b0151905089806111ce565b5f8581528981209350601f198516905b8a82821061139d575050908460019594939210611385575b505050811b0190556111e2565b01515f1960f88460031b161c19169055898080611378565b6001859682939686015181550195019301611360565b909150835f52875f20601f840160051c8101918985106113f7575b90601f859493920160051c01905b8181106113e957506111b9565b5f81558493506001016113dc565b90915081906113ce565b015190508a8061117a565b5f8581528a81209350601f198516905b8b828210611459575050908460019594939210611441575b505050811b01905561118e565b01515f1960f88460031b161c191690558a8080611434565b600185968293968601518155019501930161141c565b909150835f52885f20601f840160051c8101918a85106114b3575b90601f859493920160051c01905b8181106114a55750611165565b5f8155849350600101611498565b909150819061148a565b015190508b80611126565b5f8581528b81209350601f198516905b8c8282106115155750509084600195949392106114fd575b505050811b01905561113a565b01515f1960f88460031b161c191690558b80806114f0565b60018596829396860151815501950193016114d8565b909150835f52895f20601f840160051c8101918b851061156f575b90601f859493920160051c01905b8181106115615750611111565b5f8155849350600101611554565b9091508190611546565b346100b15760203660031901126100b157611592611720565b6115a660018060a01b035f54163314611858565b6001600160a01b03165f8181526001602052604090205460a01c60ff1660058110156101b7571561161457805f526001602052600560405f200160ff1981541690557f0a3c4dd3ee5277d6eada470cf9b47a480953120ecafcbbdc14bde6f8a62489306020604051428152a2005b60405162461bcd60e51b815260206004820152602360248201527f557365724d616e616765723a207574696c6973617465757220696e6578697374604482015262185b9d60ea1b6064820152608490fd5b346100b1575f3660031901126100b157600354808252602082019060035f527fc2575a0e9e593c00f959f8c92f12db2869c3395a3b0502d05e2516446f71f85b905f5b8181106116bf5761011f8561011381870382611837565b82546001600160a01b03168452602090930192600192830192016116a8565b60206040818301928281528451809452019201905f5b8181106117015750505090565b82516001600160a01b03168452602093840193909201916001016116f4565b600435906001600160a01b03821682036100b157565b9181601f840112156100b1578235916001600160401b0383116100b157602083818601950101116100b157565b9060806003198301126100b1576004356001600160a01b03811681036100b157916024356001600160401b0381116100b157816117a291600401611736565b929092916044356001600160401b0381116100b157816117c491600401611736565b92909291606435906001600160401b0382116100b1576117e691600401611736565b9091565b9060058210156101b75752565b805180835260209291819084018484015e5f828201840152601f01601f1916010190565b61010081019081106001600160401b038211176104d557604052565b90601f801991011681019081106001600160401b038211176104d557604052565b1561185f57565b60405162461bcd60e51b815260206004820152601d60248201527f557365724d616e616765723a2061646d696e20756e697175656d656e740000006044820152606490fd5b156118ab57565b60405162461bcd60e51b815260206004820152601c60248201527f557365724d616e616765723a2077616c6c657420696e76616c696465000000006044820152606490fd5b156118f757565b60405162461bcd60e51b815260206004820152602360248201527f557365724d616e616765723a2077616c6c65742064656a6120656e726567697360448201526274726560e81b6064820152608490fd5b9291926001600160401b0382116104d55760405191611971601f8201601f191660200184611837565b8294818452818301116100b1578281602093845f960137010152565b90600182811c921680156119bb575b60208310146119a757565b634e487b7160e01b5f52602260045260245ffd5b91607f169161199c565b9060405191825f8254926119d88461198d565b8084529360018116908115611a4357506001146119ff575b506119fd92500383611837565b565b90505f9291925260205f20905f915b818310611a275750509060206119fd928201015f6119f0565b6020919350806001915483858901015201910190918492611a0e565b9050602092506119fd94915060ff191682840152151560051b8201015f6119f056feeea238307e4577ec1b8645d63505c2d57767cfc074bb5ab579a615525f07a257a2646970667358221220d5ee1ee5751ab8a00d24e80565b69893a45442488a684ad7abc5e7f8b17a82f164736f6c634300081c0033",
  "linkReferences": {},
  "deployedLinkReferences": {},
  "immutableReferences": {},
  "inputSourceName": "project/contracts/SC1_UserManager.sol",
  "buildInfoId": "solc-0_8_28-0d1ea19a18def96aac7638c05b32655bb9e07c27"
}